:020000040800F2
:10000000E80A002029020008832700082D220008A2
:10001000812700081F040008412D0008000000008F
:10002000000000000000000000000000B1280008EF
:100030002D0400080000000085270008B3280008F0
:10004000430200084302000843020008430200087C
:10005000430200084302000843020008430200086C
:10006000430200084302000843020008430200085C
:10007000430200084302000843020008430200084C
:10008000430200084302000843020008430200083C
:10009000210400084302000843020008430200084C
:1000A000430200084302000843020008430200081C
:1000B000430200084302000843020008430200080C
:1000C00043020008430200084302000843020008FC
:1000D00043020008430200084302000843020008EC
:1000E00043020008430200084302000843020008DC
:1000F00043020008430200084302000843020008CC
:1001000043020008430200085D290008430200087A
:10011000430200084302000843020008692900085E
:10012000430200084302000843020008430200089B
:10013000430200084302000843020008430200088B
:10014000430200084302000843020008430200087B
:10015000430200084302000843020008430200086B
:10016000430200084302000843020008430200085B
:100170004302000843020008430200080000000098
:10018000430200084302000800F002F800F03CF8C7
:100190000AA090E8000C82448344AAF10107DA45E2
:1001A00001D100F031F8AFF2090EBAE80F0013F0F8
:1001B000010F18BFFB1A43F001031847A4390000D0
:1001C000C4390000103A24BF78C878C1FAD8520761
:1001D00024BF30C830C144BF04680C6070470000C1
:1001E0000023002400250026103A28BF78C1FBD840
:1001F000520728BF30C148BF0B6070471FB503F0DE
:100200004DFC1FBD10B510BD00F0CFF81146FFF733
:10021000F5FF03F04DFB00F0EDF803B4FFF7F2FF3C
:1002200003BC00F0F5F80000094880470948004782
:10023000FEE7FEE7FEE7FEE7FEE7FEE7FEE7FEE796
:10024000FEE7FEE704480549054A064B70470000F3
:100250004D29000889010008E8040020E80A002070
:10026000E8060020E806002053EA020C00F069804E
:100270002DE9F04B4FF00006002B1FBFB3FA83F5BA
:1002800003FA05F424FA05F65E4012BF1643B2FAEB
:1002900082F502FA05F4C5F120051EBF22FA05FC1D
:1002A00044EA0C04203556EA044C4FEA144418BFC3
:1002B000641C4FF000084FF00009904271EB030CF2
:1002C00039D3002919BFB1FA81F701FA07F6B0FA5C
:1002D00080F700FA07F6C7F120071EBF20FA07FCD7
:1002E00046EA0C062037B6FBF4FCA7EB0507103FE7
:1002F00007F01F0BCBF120060CFA0BFB2CFA06F6CD
:1003000044BFB3460026202FA4BF5E464FF0000B2B
:100310005BEA060C08BF4FF0010B19EB0B09ABFBB6
:10032000027C48EB0608C01B06FB02CC0BFB03CC8F
:1003300071EB0C01C1E70B46024641464846BDE859
:10034000F08B13B54FF000004FF00001AFF30080C9
:10035000BDE81C4070474FF0000200B513469446BC
:100360009646203922BFA0E80C50A0E80C50B1F10D
:100370002001BFF4F7AF090728BFA0E80C5048BF21
:100380000CC05DF804EB890028BF40F8042B08BFBF
:10039000704748BF20F8022B11F0804F18BF00F8BB
:1003A000012B7047704770477047754600F02CF876
:1003B000AE4605006946534620F00700854618B052
:1003C00020B5FFF73FFFBDE820404FF000064FF09B
:1003D00000074FF000084FF0000B21F00701AC467A
:1003E000ACE8C009ACE8C009ACE8C009ACE8C00999
:1003F0008D46704710B50446AFF300802046BDE837
:100400001040FFF70ABF0000004870478804002032
:1004100001491820ABBEFEE7260002007047FEE748
:10042000014800F08EBA000070000020704772B6DC
:10043000FEE70000002229B101291AD002291BD0B1
:100440004FF440720E490B6823F440730B600B6845
:1004500013430B600A6822F078020A600A680223DC
:1004600003EBC00002430A60086840F48030086073
:1004700070474FF48072E5E74FF40072E2E7000046
:10048000103C02401348016889050FD5016821F42A
:1004900000710160016841F400610160016821F4AC
:1004A00000610160016841F4007101600168490563
:1004B0000FD5016821F480610160016841F4805129
:1004C0000160016821F480510160016841F480619C
:1004D00001607047003C024008490A6822F44072FB
:1004E0000A600A6842F004020A600A684FF4803326
:1004F00043EA002002430A6070470000103C0240BB
:10050000064A136823F4407313601368136013687A
:1005100043F001031360017070470000103C02407B
:10052000094910B50C6824F440740C600C6844F45C
:1005300040740C600C6844F001040C600260BFF36E
:100540006F8F436010BD0000103C0240074A1368E3
:1005500023F440731360136843F4807313601368CB
:1005600043F001031360018070470000103C02401B
:10057000074A136823F440731360136843F400734D
:100580001360136843F001031360016070470000BB
:10059000103C024017490868C206174805D5C269D1
:1005A00042F01002C26110220A600A68920605D564
:1005B000C26942F00802C26120220A600A6852063B
:1005C00005D5C26942F00402C26140220A600A688D
:1005D000120605D5C26942F00202C26180220A6099
:1005E0000A68920705D5C26942F02002C261022062
:1005F000086070470C3C02400000002070B51149B3
:1006000004460020C86100F077FD06460E4D09E063
:10061000601C07D024B100F06FFD801BA04201D9FF
:10062000032070BD2868C003F2D42868C00701D039
:1006300001202860286810F0F200F2D0FFF7AAFF2E
:10064000012070BD000000200C3C024090F82020EA
:10065000012A07D0022A05D0416A41F48021416273
:1006600001207047006842690A43426100207047D8
:10067000F0B590F820500468A468012D05D0022D33
:1006800003D0416A41F4802157E014F0406F01D15A
:10069000E5004FD5C4F301640125A5401D608D68B8
:1006A0004FF4C0739DB1CE6835434E6845EAC60528
:1006B000066803EB0417F5514FF4C275076805EBA4
:1006C00004150E697E51097D012905D009E00E88C7
:1006D000CD6845EA4655EBE701684E5946F4807609
:1006E0004E511179D579567941EA056195792D04F4
:1006F00045EA062529434FF4C676056806EB04163D
:10070000A9511178D57841EA0561957852782D0480
:1007100045EA022211434FF4C475026805EB041543
:100720005151006803EB0411425842F0010242505B
:100730000020F0BD416A41F4001141620120F0BD8A
:1007400010B590F82020012A07D0022A05D0416A6E
:1007500041F480214162012010BD3B48D0F80022C5
:1007600042F00102C0F80022D0F8002222F47C52AC
:10077000C0F80022D0F800224B6A42EA0322C0F8F7
:1007800000220A7D02F01F0301229A40D0F81C3299
:100790009343C0F81C32CB69B3B9D0F80C32934301
:1007A000C0F80C328C894B6864F31F434C6900EB32
:1007B000C404C4F840320C890B6864F31F434C69CD
:1007C00000EBC404C4F84432CB69012B16D1D0F835
:1007D0000C321343C0F80C320C884B6864F31F438F
:1007E0004C6900EBC404C4F840320C89CB6864F354
:1007F0001F434C6900EBC404C4F844328B69002BDE
:10080000D0F804320ED01343C0F804320B69002B29
:10081000D0F8143208D01343C0F81432096A012901
:1008200004D008E09343EFE79343F5E7D0F81C12B8
:100830001143C0F81C12D0F8001221F00101C0F8D9
:100840000012002010BD000000640040704770B529
:1008500090F82040012C05D0022C03D0416A41F4CD
:10086000802128E0046809B32469A40720D04FF44C
:10087000D874056804EB01142D5915F00405956032
:1008800005682D591AD0ED08556005682C5904F0FB
:100890000204D4604FF4DA74056804EB01142E5995
:1008A00006F00F06082E0CD308250DE0E468DCE7FF
:1008B000416A41F400114162012070BD6D0D156067
:1008C000E3E72D5905F00F05156105682D59C5F3AE
:1008D0000725956105682C59240C54614FF4DC728E
:1008E000046802EB0112A4581C700468A458240A7E
:1008F0005C700468A458240C9C700468A258120E02
:10090000DA704FF4DE72046802EB0112A4581C7115
:100910000468A458240A5C710468A458240C9C71CF
:100920000468A258120EDA71006829B1016941F019
:1009300020010161002070BDC16841F02001C1604B
:10094000F8E72DE9F05F0546006800244669D0F815
:1009500004908768D0F80CB0D0F810A0D0F81880B8
:10096000F10748D0F90714D001218160B80703D5F9
:10097000284600F000FA0CE0780702D54FF4006436
:1009800007E0380702D54FF4805402E0284600F013
:10099000F1F9F80516D529684FF480708860B8051C
:1009A00003D5284600F0E9F90CE0780502D544F4B7
:1009B000005407E0380502D544F4804402E028469C
:1009C00000F0DAF9F80316D529684FF48030886012
:1009D000B80303D5284600F0D2F90CE0780302D51D
:1009E00044F4004407E0380302D544F4803402E0C4
:1009F000284600F0C3F9300707D55FEACB6004D57D
:100A00002968102044F40074C86070074FF008078C
:100A100007D55FEA0B7004D52868C760284600F048
:100A200059F9B00706D52868C068800702D0284663
:100A300000F052F9700607D55FEACA6004D529684C
:100A4000102044F480640861B00607D55FEA0A709C
:100A500004D528680761284600F05CF9F00606D541
:100A600028680069800702D0284600F054F9B003D6
:100A700008D55FEAC96005D5296810204860284676
:100A800000F04AF9F00307D55FEA097004D5286839
:100A90004760284600F074F9300446D55FEA497093
:100AA00040D5F00504D55FEAC87001D044F00104D8
:100AB000B00504D55FEA887001D544F002047005E2
:100AC00004D55FEA487001D544F00404300529D507
:100AD00018F0700F26D008F07000402815D006DC02
:100AE000102809D020280AD0302816D10AE0502832
:100AF0000ED0602811D10EE044F008040DE044F05F
:100B000010040AE044F0200407E044F0400404E04C
:100B100044F0800401E044F480742868816921F085
:100B200070018161296804204860002C05D0686A42
:100B3000204368622846FFF789FEBDE8F09F70B544
:100B4000040003D094F8200010B104E0012070BD2F
:100B5000204600F081F82068016841F00101016041
:100B600000F0CAFA0546052604E000F0C5FA401B6D
:100B70000A2811D820684068C007F6D020680168AC
:100B800021F00201016000F0B7FA05460BE000F029
:100B9000B3FA401B0A2806D9606A40F4003060624C
:100BA00084F82060D2E7206840688007EFD4207E78
:100BB0000128206801683DD021F080010160607E3D
:100BC00001282068016838D021F040010160A07E32
:100BD00001282068016833D021F020010160E07E07
:100BE0000128206801682ED041F010010160207FAB
:100BF00001282068016829D021F008010160607F88
:100C000001282068016824D021F004010160D4E9A2
:100C100002010843D4E90412114308436168491EE4
:100C200008432168C86100206062012084F8200028
:100C3000002070BD41F08001C0E741F04001C5E7F0
:100C400041F02001CAE721F01001CFE741F008018F
:100C5000D4E741F00401D9E710B586B00446142169
:100C60006846FFF778FB18492068884229D1174861
:100C70000021026842F000720260006800F000701B
:100C8000059012481038026842F0010202600068C4
:100C900000F0010005904FF4C05000900220CDE913
:100CA000010103200390092004906946084800F0E0
:100CB00025F900221146142000F08CFA142000F0CF
:100CC0007BFA06B010BD00000064004040380240CE
:100CD000000002407047000010B58AB000246B4647
:100CE00002AA2146FFF7B3FD00280ED169460A5C2F
:100CF000401C2244C0B2D4B20728F8D39DF80700A4
:100D0000A04202D1024802F0C3FB0AB010BD0000AD
:100D1000E8020020704770477047000070B5044635
:100D200090F82000012804D0606A40F4002060623E
:100D300018E0022084F820002068016821F00101F9
:100D4000016000F0D9F905460EE000BF00F0D4F9CB
:100D5000401B0A2808D9606A40F400306062052010
:100D600084F82000012070BD20684068C007EDD1E4
:100D7000606270BD7047704770477047704770473A
:100D80007047000070B5044600F0B6F90546601CD7
:100D900002D004480078044400F0AEF9401BA042A1
:100DA000FAD370BD200000202DE9F0470446224808
:100DB0000F46017E01290AD00121804601764CF2BE
:100DC00050394846FFF71AFC020003D02FE00220FA
:100DD000BDE8F0874FF0FF3038602068174D0128DC
:100DE00001D0A6681CE0207C6168FFF775FB4846CF
:100DF000FFF704FC0246286820F00400286014E095
:100E0000217C3046FFF716FB4846FFF7F7FB020050
:100E1000286820F07A00286001D03E6005E0761C4A
:100E2000D4E902100844B042EAD8FFF72BFB0021B6
:100E300088F818101046CBE700000020103C024054
:100E40000348016841F00041016000207047000044
:100E5000103C02402DE9F0471B4E05461446307EFB
:100E60001F468946012808D0012030764CF25038C0
:100E70004046FFF7C3FB18B114E00220BDE8F0873D
:100E80009DB1012D16D0022D19D022463B46484671
:100E9000FFF746FB4046FFF7B1FB0C490A6822F01A
:100EA00001020A6000213176E8E7E1B24846FFF727
:100EB00027FBEFE7A1B24846FFF748FBEAE72146E8
:100EC0004846FFF755FBE5E700000020103C0240D4
:100ED000074900200A68002A09DA054A054B0C3A3E
:100EE0001360054B13600968002900DA0120704780
:100EF000103C024023016745AB89EFCD2DE9F84F47
:100F0000DFF8BCA10022012503264FF00F090AF1EA
:100F1000040BAAF1040E00BF0B6805FA02F423408B
:100F2000A34270D10F7907F00307012F01D0022FE0
:100F300016D187684FEA420806FA08FC27EA0C0730
:100F4000D1F80CC00CFA08FC4CEA070CC0F808C039
:100F50004768A7430C79C4F3001494403C434460B1
:100F60000C79E443A4070AD0C4684FEA420C06FA9D
:100F70000CF7BC438F6807FA0CF72743C7600C795E
:100F800004F00304022C12D1D40800EB840CDCF82A
:100F900020405707FF0E09FA07F824EA0804D1F8A1
:100FA000108008FA07F848EA0408CCF820800468A2
:100FB0004FEA420C06FA0CF7BC430F7907F003071F
:100FC00007FA0CF7274307604C6814F4403F70D0D1
:100FD0003C4C276847F480472760246822F00307C9
:100FE00004F480440094384C07EB040CDCF8084807
:100FF00097074FEA177809FA08F7BC43334FB8420E
:1010000002D1002724E054E0314FB84201D101273A
:101010001EE0304FB84201D1022719E02E4FB842EE
:1010200001D1032714E02D4FB84201D104270FE06E
:101030002B4FB84201D105270AE02A4FB84201D10F
:10104000062705E0284FB84201D1072700E008270E
:1010500007FA08F72743CCF80878DAF80040574633
:10106000D1F804C09C435FEACC2C00D51C433C6003
:10107000DBF800405F46D1F804C09C435FEA8C2C4B
:1010800000D51C433C60DEF800407746D1F804C030
:101090009C435FEA8C3C00D51C433C60084F083FF2
:1010A0003C68D1F804C09C435FEACC3C00D51C43AB
:1010B0003C60521C102AFFF42FAFBDE8F88F0000EF
:1010C000083C01404438024000300140000002402A
:1010D0000004024000080240000C024000100240E0
:1010E0000014024000180240001C02400AB1816155
:1010F00070470904FBE70000014880687047000062
:101100002000002002488168027811448160704705
:10111000200000200B4810B5016841F40071016007
:10112000016841F480610160016841F480710160EF
:10113000032000F06FF80F2000F006F800F024F80C
:10114000002010BD003C024070B50D4D04464FF428
:101150007A712878B1FBF0F00A490968B1FBF0F028
:1011600000F096FC48B9102C07D200222146501EF0
:1011700000F030F800206C6070BD012070BD0000F0
:10118000200000202C0000200A4808B5016841F426
:1011900080410160006800F4804000900548001F15
:1011A000016841F080510160006800F080500090BB
:1011B00008BD000044380240002809DB00F01F028F
:1011C000012191404009800000F1E020C0F80011A9
:1011D00070470000F0B40E4B1B680C46C3F30223AB
:1011E000C3F10705042D00D90425191D072901D2D3
:1011F000002300E0DB1E012606FA05F1491E21400E
:1012000099409E40761E16403143F0BC01F099BDD6
:101210000CED00E0064900F0070208684FF6FF03F6
:10122000184040EA0220034A10430860704700005B
:101230000CED00E00000FA052DE9F0470E46050030
:1012400065D0DFF81481D8F80000F7B200F007008D
:10125000B04207D288F80070D8F8000000F007000C
:10126000B04254D128683D4C810712D5400703D5C0
:10127000206840F4E05020602878000703D52068FB
:1012800040F4604020602068A96820F0F000084326
:1012900020602878C0072DD03049686808390128B7
:1012A00012D0022813D0032811D009688907002919
:1012B0002DDA216821F0030101432160FFF71CFFB3
:1012C000814641F2883A0EE009688903EFE7096830
:1012D0008901ECE7FFF710FFA0EB0901514502D9A6
:1012E0000320BDE8F0872068696800F00C00B0EBCF
:1012F000810FEFD1D8F80010404601F00701B1424C
:1013000007D90770006800F00700B04201D0012043
:10131000E7E72878400705D52068E96820F4E05021
:10132000084320602878000706D52068296920F442
:10133000604040EAC100206000F038F82168084AA7
:10134000C1F30311515CC8400649086006480068B3
:10135000FFF7FAFE0020C4E7003C024008380240D4
:10136000A63A00082C00002024000020044805496B
:1013700000680968044AC1F38221515CC840704783
:101380002C00002008380240B63A000804480549FD
:1013900000680968044AC1F34231515CC840704793
:1013A0002C00002008380240B63A0008154810B555
:1013B000006810F00C02144813D04110042A0FD01A
:1013C000082A0ED10F4C241F2268236802F03F0226
:1013D0005B0207D52068C0F38810A0FB010106E07E
:1013E000084610BD2168C1F38811A1FB000100234C
:1013F000FEF73AFF2168C1F30141491C4900B0FBE7
:10140000F1F010BD083802400024F4002DE9F84F37
:1014100004006ED02078DFF84C93C007A9F10405D2
:101420004AD009F104000168C1F38101012908D003
:101430000068C0F3810002280AD1D9F800004002F8
:1014400006D52868800337D560680028E1D033E0EE
:101450006068B0F5803F10D0B0F5A02F286810D09C
:1014600020F480302860286820F48020286060689C
:10147000A8B1FFF741FE06460DE0286840F4803031
:10148000F4E740F480202860F7E700BFFFF734FE60
:10149000801B642873D828688003F7D50CE0FFF719
:1014A0002BFE064605E000BFFFF726FE801B6428E2
:1014B000F0D828688003F7D42078DFF8AC82800762
:1014C0004FF0000A3ED5A748001D016811F00C0F2F
:1014D00008D00068C0F3810002280BD1D9F80000C1
:1014E000400207D42868800716D5E068012800D19B
:1014F00012E033E1E068B8B10120C8F80000FFF75E
:10150000FBFD064605E000BFFFF7F6FD801B022845
:10151000C0D828688007F7D52868216920F0F8002E
:1015200040EAC10028600DE0C8F800A0FFF7E4FD24
:10153000064604E0FFF7E0FD801B02281FD828685C
:101540008007F7D42078000722D5864F8748616945
:10155000703771B101210160FFF7CEFD064604E04E
:10156000FFF7CAFD801B022809D838688007F7D525
:101570000EE0C0F800A0FFF7BFFD064605E082E0E0
:10158000FFF7BAFD801B02287DD838688007F7D4A2
:101590002078400768D5DFF8CCB100270BF13C0B71
:1015A000DBF80000C0000BD4DBF8001041F08051E4
:1015B000CBF80010DBF80000012700F0805000900D
:1015C0006B4E3068C00510D4306840F480703060D5
:1015D000FFF792FD009005E0FFF78EFD0099401A9D
:1015E000022850D83068C005F6D55E4EA0686C362B
:1015F00001280FD00528306810D020F0010030609D
:10160000306820F004003060A068B8B1FFF774FDC6
:1016100000900FE0306840F00100F4E740F0040073
:101620003060F7E7FFF768FD0099411A41F2883012
:10163000814266D830688007F4D50EE0FFF75CFD84
:10164000009007E0FFF758FD0099411A41F28830F9
:10165000814256D830688007F4D42FB1DBF80010EF
:1016600021F08051CBF80010A069C8B33D49091D95
:101670000968C1F3810102294AD00228504607D0E7
:10168000C8F8600000E03CE0FFF736FD04463BE0B0
:101690004746C8F86000FFF72FFD064605E000BF8B
:1016A000FFF72AFD801B02282BD828688001F7D479
:1016B000D4E907010843A16A2E4A490802EB014117
:1016C000626A41EA8211084394F82C1040EA0161F1
:1016D000C9F8001001203866FFF70EFD044606E049
:1016E0003EE000BFFFF708FD001B022809D828686C
:1016F0008001F7D534E000BFFFF7FEFC001B022895
:1017000002D90320BDE8F88F28688001F4D427E0CF
:101710000128F7D0D9F80000E26900F48001914275
:101720001CD1226A00F03F01914217D147F6C071E7
:10173000626A0140B1EB821F10D1A26A4FF0FF3301
:1017400000F4403103EB5202B1EB024F06D194F8A2
:101750002C1000F07060B0EB016F01D00120D1E7D8
:101760000020CFE70438024000004742800E474285
:10177000007000400000FFFF70B5040009D0606AEF
:10178000002540B125616561A56294F8510040B122
:101790000CE0012070BD6068B0F5827FF4D0E56197
:1017A000F2E784F85050204600F044F8022084F814
:1017B00051002068016821F040010160A088218962
:1017C00000F4827001F404410843A18901F400612E
:1017D0000843217C01F002010843217D01F0010151
:1017E0000843218B01F400710843217F01F0380187
:1017F000084394F8201001F080010843218D01F482
:101800000051084321680860A069042101EA1040E2
:1018100094F8241001F01001084321684860206802
:10182000C16921F40061C1616565012084F851003E
:10183000002070BD10B586B0044614216846FEF73E
:101840008AFD14492068884221D11348002102688A
:1018500042F400420260006800F4004005900E4827
:101860001038026842F004020260006800F00400D0
:1018700005904FF4E05000900220CDE901010320D3
:1018800003900620049069460448FFF737FB06B032
:1018900010BD0000003C00404038024000080240FB
:1018A0002DE9FF4F81B01D46934604464FF00109D4
:1018B0000E9EFFF721FC074694F85100616801284D
:1018C00006D0B1F5827F3CD1A168C9BB042838D1CC
:1018D0000298002871D0BBF1000FFBD0002DF9D089
:1018E00094F8500001282CD04FF0010A84F850A041
:1018F00094F85100042802D0052084F851004FF0DC
:101900000008C4F85480C4F838B0E587A587029968
:101910002163E586A586C4F84080C4F84480206829
:101920000168490603D4016841F040010160E068A4
:10193000B0F5006F606808D0F0B3012D49D081E0A8
:10194000FFE7022005B0BDE8F08F08B1012D39D1C5
:10195000206B21680088C860206B801C2063E08EAB
:10196000401EE0862EE02068816889070FD5E18E51
:1019700069B1B9F1010F0AD1216B0988C160206BEF
:10198000801C2063E08E401EE0864FF00009206836
:101990008168C9070CD0E18F51B1C068A16B088084
:1019A000A06B801CA063E08F401EE0874FF0010910
:1019B000FFF7A2FBC01B01E00BE067E0B04201D3E0
:1019C000701C50D1E08E0028CDD1E08F0028CAD104
:1019D0003EE0206B216800780873206B401C206378
:1019E000E08E401EE0862DE02068816889070FD5D3
:1019F000E18E69B1B9F1010F0AD1216B0978017348
:101A0000206B401C2063E08E401EE0864FF00009F2
:101A100020688168C9070CD0E18F51B1C068A16B03
:101A20000870A06B401CA063E08F401EE0874FF061
:101A30000109FFF761FBC01BB04202D3701C01D04B
:101A400011E086B1E08E0028CED1E08F0028CBD106
:101A50003A463146204600F097FE50B1202060659E
:101A600084F8508012E084F851A084F8508003205C
:101A700068E7A06818B92068C1688068009084F899
:101A800051A084F85080606D0028F1D0012059E702
:101A900010B5401EB0F1807F01D3012010BD4FF082
:101AA000E02460610F21601701F04BF90020A06174
:101AB00007202061002010BD7047704770B590F876
:101AC0003C20012A32D0012480F83C40022280F8D8
:101AD0003D2003685A689D6822F070060A68324308
:101AE0005A60134B02689A4214D0B2F1804F11D061
:101AF000104B9A420ED0104B9A420BD00F4B9A4289
:101B000008D00F4B9A4205D00E4B9A4202D00E4B92
:101B10009A4204D1496825F080031943916080F806
:101B20003D40002180F83C10084670BD022070BD89
:101B3000000001400004004000080040000C00408C
:101B400000040140004001400018004010B50400AE
:101B500003D094F83D0010B107E0012010BD002033
:101B600084F83C00204600F01FF8022084F83D0075
:101B7000211D206800F0FEFE012084F8460084F854
:101B80003E0084F83F0084F8400084F8410084F867
:101B9000420084F8430084F8440084F8450084F847
:101BA0003D00002010BD000008B501682B48B1F1D0
:101BB000804F0BD02A4A914210D1016841F00201B6
:101BC0000160006800F00200009008BD016841F06B
:101BD00001010160006800F00100F5E7214A91422F
:101BE00007D1016841F004010160006800F00400C1
:101BF000EAE71D4A91420ED1016841F008010160F7
:101C00000068002200F00800009003213220FFF756
:101C1000E1FA322010E0154A914211D1016841F0F9
:101C2000200101600068002200F0200000900221E5
:101C30003720FFF7CFFA3720BDE80840FFF7BCBADE
:101C40000B488142C1D10548001D016841F4803133
:101C50000160006800F48030B6E7000040380240C0
:101C60000004004000080040000C00400014004048
:101C70000040014090F83D10012901D0012070473B
:101C8000022180F83D100168CA6842F00102CA6072
:101C900000681149884214D0B0F1804F11D00F492B
:101CA00088420ED00E4988420BD00E49884208D097
:101CB0000D49884205D00D49884202D00C4988421E
:101CC00004D1816801F00701062903D0016841F0C1
:101CD0000101016000207047000001400004004045
:101CE00000080040000C004000040140004001409A
:101CF0000018004070B5044690F83C00002501280B
:101D000017D0012684F83C60022084F83D0020684A
:101D1000826822F0770222F47F42826008685028AD
:101D200038D00DDC20284FD005DC90B3102811D11D
:101D30004AE0022070BD302846D040280AD13BE05E
:101D400060282FD070280DD0B0F5805F03D0B0F59B
:101D5000005F12D0012584F83D60002084F83C002B
:101D6000284670BDCB68D1E90121206800F06AFEE9
:101D70002068816841F0770109E0CB68D1E9012151
:101D8000206800F05FFE2068816841F48041816036
:101D9000E1E719E0CA684968206800F027FF502190
:101DA000206806E0CA684968206800F030FF6021BA
:101DB000206800F051FECEE7CA684968206800F04C
:101DC00015FF40212068F4E7226801461046F0E73D
:101DD00070472DE9F04104460068C66805694FF078
:101DE0000007A90713D5B10711D5F91E016101201C
:101DF0002077206880698007204602D0FFF7E8FF3F
:101E000004E000F0D3F8204600F091F92777680746
:101E100016D5700714D521686FF004000861022000
:101E200020772068806910F4407F204602D0FFF7B9
:101E3000CFFF04E000F0BAF8204600F078F92777E9
:101E4000280715D5300713D521686FF00800086101
:101E5000042020772068C0698007204602D0FFF761
:101E6000B7FF04E000F0A2F8204600F060F9277701
:101E7000E80616D5F00614D521686FF01000086149
:101E8000082020772068C06910F4407F204602D0E7
:101E9000FFF79EFF04E000F089F8204600F047F9C4
:101EA0002777E80708D0F00706D021686FF0010017
:101EB0000861204600F03CF9280608D5300606D512
:101EC00021686FF0800008612046FFF7F5FD680685
:101ED00008D5700606D521686FF0400008612046DD
:101EE00000F032F9A8060AD5B00608D521686FF0CF
:101EF000200008612046BDE8F041FFF7DEBDBDE8E7
:101F0000F081000070B586B0044614216846FEF7E3
:101F100022FA24680022204902232048B4F1804F8D
:101F200016D01F4E4025B44223D1086840F004006B
:101F3000086008680095CDE9013200F00400CDE9A1
:101F40000430694603921748FEF7D8FF06B070BD0B
:101F50000C6844F002040C60096801F0020105916C
:101F60004FF480610091CDE901320121CDE90321D7
:101F700010E00D4EB442E9D10C6844F002040C604C
:101F80000968009501F002010591CDE901320321B4
:101F9000CDE903136946D7E7303802400004024018
:101FA000000400400008024000080040704770B57F
:101FB0000D46040003D094F83D0010B107E0012065
:101FC00070BD002084F83C00204600F01BF8022081
:101FD00084F83D00211D206800F0CCFC20680168D9
:101FE00021F00801016054F8460B016829430160A3
:101FF000012004F81F09E0752076E0762077A075AF
:10200000002070BD704770B5044690F83C00002673
:102010000D4601280FD0012084F83C006AB1042A43
:102020001DD0082A2FD00C2A3FD00126002084F88A
:102030003C00304670BD022070BD206800F014FDE9
:102040002068816941F0080181612068816921F07F
:1020500004018161206881692A69114311E02068C7
:1020600000F032FD2068816941F4006181612068DF
:10207000816921F480618161206881692A6941EA6E
:1020800002218161D2E7206800F054FD2068C16917
:1020900041F00801C1612068C16921F00401C161FA
:1020A0002068C1692A69114311E0206800F076FDBB
:1020B0002068C16941F40061C1612068C16921F4EF
:1020C0008061C1612068C1692A6941EA0221C16158
:1020D000ACE710B5040003D094F83D0010B107E060
:1020E000012010BD002084F83C00204600F01EF8BE
:1020F000022084F83D00211D206800F03BFC0120F7
:1021000084F8460084F83E0084F83F0084F84000DC
:1021100084F8410084F8420084F8430084F84400C5
:1021200084F8450084F83D00002010BD70477047DA
:1021300000680349884202D10249012008707047B3
:102140000014004030000020704770B5040004D037
:1021500094F84100002510B106E0012070BD84F81C
:102160004050204600F024F8242084F841002068E4
:10217000C16821F40051C160204600F05BFD206879
:10218000016921F4904101612068416921F02A012F
:1021900041612068C16841F40051C160656420203C
:1021A00084F8410084F842006563002070BD00009F
:1021B00010B586B0044614216846FEF7CCF81849DD
:1021C0002068884229D117480021026842F0100295
:1021D0000260006800F01000059012481438026890
:1021E00042F001020260006800F0010005904FF427
:1021F000C06000900220CDE9010103200390072078
:10220000049069460848FEF779FE00220121252046
:10221000FEF7E0FF2520FEF7CFFF06B010BD00005F
:10222000001001404438024000000240FEE7000078
:10223000114810B50F4901600621416000214FF09F
:102240008072C0E902124FF4202202614FF4801222
:1022500042610176012242768176C176017741772B
:10226000FEF76DFC002803D0BDE81040FEF7DFB894
:1022700010BD000000640040700000202DE9F04F08
:1022800087B014216846FEF766F85E4800240168AE
:1022900041F080010160016801F080010591016851
:1022A00041F001010160016801F00101059101683F
:1022B00041F002010160016801F00201059101682D
:1022C00041F020010160016801F0200105910168E1
:1022D00041F004010160016801F004010591016809
:1022E00041F008010160016801F0080105910168F1
:1022F00041F0400101600068434F00F0400005904C
:10230000012202213846FEF7F1FE00220421384660
:10231000FEF7ECFEDFF8F4B0012242F2030158466A
:10232000FEF7E4FEDFF8E8804FF400560022314665
:102330004046FEF7DBFE002271105846FEF7D6FE3F
:10234000DFF8D090012224214846FEF7CFFE00227C
:1023500018214846FEF7CAFEDFF8BCA0012231462C
:102360005046FEF7C3FE062000900125CDE901543A
:10237000694638460394FEF7C1FD43F2030000901E
:10238000CDE90154694658460394FEF7B7FD4FF472
:10239000C057CDE90074694640460294FEF7AEFD91
:1023A0000096CDE90154694640460394FEF7A6FD28
:1023B00002208DE8310069464846FEF79FFD3C202B
:1023C0000090CDE90154694648460394FEF796FD16
:1023D000CDE90074694650460294FEF78FFD0096E1
:1023E000CDE90154694650460394FEF787FD8020ED
:1023F000CDE90004694658460294FEF77FFD07B018
:10240000BDE8F08F30380240000002400004024076
:1024100000140240000C024000180240104810B5A1
:102420000E4901604FF482714160002102228160F7
:10243000C0E9031201224261520282611822C0E9FE
:102440000721416281620A21C162FFF795F90028E4
:1024500003D0BDE81040FDF7EABF10BD003C0040CE
:102460009800002010B58EB00024079408940994B9
:102470000A940B941C2168460C94FDF76CFF2248CB
:102480004FF08041016042F2CF01C0E9011442F2F5
:102490000F71C0E903148461FFF758FB08B1FDF721
:1024A000C6FF4FF48050079007A91748FFF722FC9A
:1024B00008B1FDF7BCFF1448FFF70BFE08B1FDF7AC
:1024C000B6FF08211048FFF772FD08B1FDF7AFFF16
:1024D0000B940BA90C480C94FFF7F0FA08B1FDF728
:1024E000A6FF6020CDE90004029408226946064850
:1024F0000494FFF788FD08B1FDF799FF0248FFF744
:1025000001FD0EB010BD0000F000002010B58EB02F
:1025100000240794089409940A940B941C2168469B
:102520000C94FDF718FF2248204901602921C0E9D9
:1025300001144FF6FF71C0E903148461FFF706FB35
:1025400008B1FDF774FF4FF48050079007A91848B1
:10255000FFF7D0FB08B1FDF76AFF1548FFF7B9FD9B
:1025600008B1FDF764FF08211148FFF720FD08B10D
:10257000FDF75DFF0B940BA90D480C94FFF79EFA35
:1025800008B1FDF754FF6020CDE900040294002259
:10259000694607480494FFF736FD08B1FDF747FF89
:1025A0000348FFF7AFFC0EB010BD00000004004070
:1025B0003801002010B58EB00024079408940994C7
:1025C0000A940B941C2168460C94FDF7C4FE1F4826
:1025D0001D49C0E900140521C0E9024180210461C0
:1025E0008161FFF7B3FA08B1FDF721FF4FF4805086
:1025F000079007A91548FFF77DFB08B1FDF717FF06
:102600001248FFF766FD08B1FDF711FF0B940BA907
:102610000E480C94FFF752FA08B1FDF708FF60204E
:1026200000900320CDE901040420049000226946B3
:102630000648FFF7E8FC08B1FDF7F9FE0348FFF78D
:1026400061FC0EB010BD00000008004080010020B9
:1026500010B586B0002417480094019402940394A6
:10266000049413490594016042F2CF01C0E90114BA
:1026700041F28731C0E903148461FFF767FA08B1BA
:10268000FDF7D5FE4FF48050009069460948FFF7EA
:1026900031FB08B1FDF7CBFE049404A9054805946D
:1026A000FFF70CFA002801D0FDF7C1FE06B010BDFF
:1026B000000C0040C80100201CB500240E48009406
:1026C0000C49019401605321C0E9011440F2CF711B
:1026D0008461C160FFF73AFA08B1FDF7A8FE0094E3
:1026E000694605480194FFF7E9F9002801D0FDF794
:1026F0009EFE1CBD00140040100200201FB50021EA
:1027000010480091019102910D4A039102605322F9
:10271000C0E901216322C0E903218161FFF716FAB4
:1027200008B1FDF784FE4FF48050009069460548DB
:10273000FFF7E0FA002801D0FDF779FE1FBD000089
:1027400000400140580200200C4810B50A490160C1
:102750004FF4E1314160002181600C22C160C0E989
:1027600004128161C161FFF7F0FC002803D0BDE8CD
:102770001040FDF75CBE10BD00100140A00200201B
:10278000FEE7FEE770470000F8B515460E460B461B
:10279000009204460122022100F02CF8A0B913484F
:1027A00013490068B0FBF1F04FF47A714843009090
:1027B0006068B0F5827F0DD133460022802120462B
:1027C000009500F017F870B1606D40F02000606572
:1027D0000320F8BD009830B1401E0090206880684A
:1027E000C0430006F6D50020F8BD00002C000020F4
:1027F00000366E012DE9F8431E4691468846044690
:10280000089DFEF779FC401B351AFEF775FC07465C
:1028100026480068C0F3CB3068430AE0701C09D03A
:10282000FEF76AFCC01BA8420FD275B10098B8B37E
:10283000401E00902068816838EA010033D00021F2
:102840004945EBD10020BDE8F8832068416821F0BC
:10285000E00141606068B0F5827F0BD1A068B0F5FF
:10286000004F02D0B0F5806F04D12068016821F0DC
:1028700040010160A06AB0F5005F09D120680168DD
:1028800021F4005101602068016841F400510160A9
:10289000012084F85100002084F850000320D2E782
:1028A000FFE70025C6E70121CAE700002C00002051
:1028B0007047FEF727BC000030B593B03021684662
:1028C000FDF749FD14210CA8FDF745FD1D48002525
:1028D000016841F080510160006800F08050119063
:1028E0001948016841F4804101600068022400F445
:1028F00080401190092000904FF480300190012019
:10290000CDE905048005079008AA0420542182E837
:1029100013000B906846FEF779FD08B172B6FEE72A
:102920000CA90F2081E831004FF480500F901090D7
:1029300002210CA8FEF780FC002801D072B6FEE749
:1029400013B030BD403802400070004002480168BA
:1029500041F470010160704788ED00E00148FFF725
:1029600038BA0000C80100200148FFF732BA000061
:1029700010020020F0B50268274B284D284E294F41
:10298000294C4FF0804C984209D0604507D0A842AE
:1029900005D0B04203D0B84201D0A04204D122F009
:1029A000700E4A6842EA0E0298421BD0604519D068
:1029B000A84217D0B04215D0B84213D0A04211D0CF
:1029C0001A4DA8420ED01A4DA8420BD0194DA8425C
:1029D00008D0194DA84205D0184DA84202D0184D74
:1029E000A84203D122F44075CA682A434D6922F0F7
:1029F00080022A438D68C5620D688562984201D0C5
:102A0000A04201D109690163016841F0040101603C
:102A1000012141610260F0BD00000140000400405E
:102A200000080040000C004000040140004001404C
:102A3000004401400048014000180040001C0040D4
:102A40000020004010B5846842EA032224F47F4449
:102A50000A432243826010BD826822F070020A435A
:102A600042F0070181607047F0B5036A026A22F004
:102A70000102026242688469124E24F073050C68F8
:102A80002C4323F002058B682B430D4DA84201D047
:102A9000B04205D123F00807CB683B4323F0040381
:102AA000A84201D0B04205D14D6922F440721543CD
:102AB0008A692A4342608461496841630362F0BDC8
:102AC0000000014000040140F0B5026A036A23F0EF
:102AD00010030362436884690D6824F4E64444EA01
:102AE00005248D6822F0200242EA05120F4D104E97
:102AF000A84201D0B04206D1CF6822F0800242EA5B
:102B0000071222F04002A84201D0B04207D14D691D
:102B100023F4406343EA85038D6943EA85034360F8
:102B20008461496881630262F0BD000000000140D9
:102B300000040140F0B5026A036A23F48073036263
:102B40004368C46922F4007224F073050C68124EC5
:102B50002C438D6842EA05220E4DA84201D0B042B6
:102B600006D1CF6822F4006242EA072222F4806292
:102B7000A84201D0B04207D14D6923F4405343EA43
:102B800005138D6943EA05134360C4614968C16355
:102B90000262F0BD000001400004014030B5046A4B
:102BA000026A22F4805202624268C3690D6823F40B
:102BB000E64343EA05238D6824F4005444EA0534CF
:102BC000084DA84202D0084DA84204D14D6922F414
:102BD000804242EA85124260C3614968016404622E
:102BE00030BD0000000001400004014010B5036A40
:102BF000046A24F001040462846924F0F00444EAC5
:102C0000021423F00A020A438461026210BD10B567
:102C1000036A046A24F010040462846923F0A003A8
:102C200024F4704444EA023243EA011182610162F1
:102C300010BD000070B5044600680169E26821F427
:102C40004051114301612169A068E269084361694B
:102C5000114308432168CA6849F20C639A4302434E
:102C6000CA6020684169A26921F440711143416141
:102C700031492068884202D03049884202D1FEF7AB
:102C800085FB01E0FEF772FBE26900231921642550
:102C90003226B2F5004F626828D0A0FB0101930FE5
:102CA0009200FDF7E1FA0146B0FBF5F06FF0180273
:102CB000504301EB800006EB0010B0FBF5F000F094
:102CC000F002B1FBF5F002EB0012B1FBF5F06FF092
:102CD0001803584301EB800006EB0010B0FBF5F041
:102CE00000F00F0021681044886070BDA0FB010156
:102CF00092185B41FDF7B8FA0146B0FBF5F002010E
:102D0000B1FBF5F06FF01803584301EB800006EBC0
:102D1000C000B0FBF5F000F0F80002EB4002B1FBA0
:102D2000F5F0584301EB800006EBC000B0FBF5F076
:102D300000F00700D6E70000001001400014014039
:102D4000FEE70907090E002804DB00F1E02080F807
:102D50000014704700F00F0000F1E02080F8141D0F
:102D60007047024600200146535C491C1844C9B212
:102D7000C0B20729F8D3704770B51E4986B0002449
:102D8000D1E900016D46CDE90001E100082302AA66
:102D9000194800F004FA55F824009DF80C10427808
:102DA000914204D19DF80D10807881421DD01248C7
:102DB00000F0D6F9114E0024049655F82420E000C6
:102DC000082351788DF81410927831448DF815202D
:102DD0001144ADF8161004AA074900F0EFF9641C7D
:102DE000E4B2022CE8D306B070BD641CE4B2022C3D
:102DF000CBD3F8E7C03A00086000002043414C45BF
:102E0000A0F10060B0F5804F01D200207047B0F50E
:102E1000004F01D201207047B0F5404F01D202208F
:102E20007047B0F5803F01D203207047B0F5003FF6
:102E300001D204207047B0F5802F01D205207047E1
:102E4000B0F5C02F01D20620704707207047000060
:102E500000B58BB04DF22A5200924FF61422019227
:102E60004FF6FF720020029201210590D21ECDE99B
:102E70000601CDE903200E20CDE908106946064879
:102E8000FDF75EFC0448FDF749FF0BB00221024844
:102E90005DF804EBFDF7DABB7000002010B588B0D8
:102EA000002401900420CDE9020408200A46049081
:102EB0008DF8144006AB69460448FDF7D9FB10B104
:102EC000012008B010BD2046FBE700007000002084
:102ED000704700002DE9F047554800F0FCFA002843
:102EE0007ED1534800F0C2FA002879D001784278A8
:102EF000077941EA02218278447941EA0241C278A5
:102F000067F3070541EA0266817964F30F25C0790A
:102F100061F3174560F31F65454800F092FA092FE9
:102F20005ED2DFE807F082051B33496382777B00BE
:102F3000204600F0AFF98146204600F0C9F98046EE
:102F4000204600F0BBF90746C5F30741204600F0D4
:102F50007BF93146204600F0FBF912E0204600F0F4
:102F600099F98146204600F0B3F98046204600F0EA
:102F7000A5F90746C5F30741204600F065F931463B
:102F800016E03B464246494620463FE0204600F0D8
:102F900081F98146204600F09BF98046204600F0EA
:102FA0008DF90746C5F30741204600F04DF97142FF
:102FB000204600F099F9E4E7204600F06BF98146DD
:102FC000204600F085F90746204600F077F9804654
:102FD000C5F30741204600F037F93146204600E0AE
:102FE00023E000F0DBF943463A46CCE72546284685
:102FF00000F050F90646284600F06AF904462846D3
:1030000000F0E4F90023224631462846BDE8F047A7
:1030100000F010B8204600F039F802E0204600F039
:1030200025F800231A461946AEE7BDE8F0870000F0
:10303000E80200207CB516460A4605461C4669464D
:10304000104600F02DFC8DF804608DF805508DF8C9
:1030500006406846FFF785FE8DF80700694602487E
:10306000FFF71CFF7CBD0000435FA51A10B500F000
:1030700003F9002808D08178002905D0002181704B
:10308000BDE8104000F0C0BB10BD000010B500F05E
:10309000F3F830B18178012908D00121817000F066
:1030A000B3FBBDE81040024800F0C7B910BD0000F6
:1030B0006C0400201CB5C8214842CDE90001002362
:1030C0001A460521054800F0AFF9054800210160C6
:1030D0004160BDE81C4000F005BA00006C0400200F
:1030E00058000020054A012802D0022802D002E040
:1030F000116000E05160024800F09FB958000020C4
:103100006C04002070B5064600F0B6F8050023D028
:10311000A878002820D0012E01D0012000E0002056
:103120000E4951F82040304600F0BEF8A04213D1BD
:10313000304600F0AFF8201A00F1FF01B1F5FF7F33
:103140000AD9044421463046FFF7CCFF21462846E1
:10315000BDE8704000F03BBB70BD0000580000208F
:1031600030B5044687B00068FFF74AFE0546D4E94B
:1031700000010844401EFFF743FE441B641CFDF79A
:10318000A7FE0020009002950220CDE9034005A98A
:103190006846FDF709FEFDF753FE07B030BD30B5B8
:1031A0004568CC18AC4208D800680144002002E011
:1031B0000C5C1454401C9842FAD330BD2DE9F04702
:1031C0000C461E4680464968304415469246884261
:1031D00037D8FDF77DFE2068E06000EB08018842EB
:1031E00004D8626802448A4200D9E160711C4F0829
:1031F000E168A946814216D3626801EB4701104499
:10320000814210D800250CE009EB4500002302881C
:103210000120E168FDF71EFE10B9E068801CE06047
:103220006D1CBD42F0D3FDF70BFE21680020414428
:1032300005E00B5C1AF80020934202D1401CB0421A
:10324000F7D3BDE8F087000010B50C46062808D07B
:1032500000F012F800280AD02146BDE8104000F026
:1032600047B9034800F044F921460248F5E710BD8C
:10327000490000204C000020012803D0022803D080
:1032800000207047014870470148704749000020FE
:103290004C00002010B5FFF7EFFF002803D0BDE879
:1032A000104000F079B910BD10B5FFF7E5FF002818
:1032B00003D0BDE8104000F09BB910BD10B5FFF77A
:1032C000DBFF002803D0BDE8104000F077B910BD47
:1032D00010B5FFF7D1FF002803D0BDE8104000F083
:1032E0008BB910BD704700002DE9F0410C46064631
:1032F000062810D0FFF7C0FF050023D000F078F9B2
:1033000007192146284600F057FA39463046BDE8ED
:10331000F041FFF7E7BE0C4800F06AF906190B48C8
:1033200000F066F905192146074800F045FA3146D4
:103330000120FFF7D7FE2146044800F03DFA294658
:103340000220E4E7BDE8F081490000204C000020A5
:1033500070B50D46044606280CD0FFF78DFF0028F7
:1033600016D0294600F033FA29462046BDE87040C1
:10337000FFF7B8BE074800F02AFA29460120FFF7F8
:10338000B1FE2946044800F022FA29460220EDE762
:1033900070BD0000490000204C00002010B50C4614
:1033A000062808D0FFF768FF00280AD02146BDE8AC
:1033B000104000F02FBA034800F02CFA21460248D2
:1033C000F5E710BD490000204C00002070B505460F
:1033D00006280FD0FFF750FF040020D000F008F9B6
:1033E0000646204600F02BFA31462846BDE87040DC
:1033F000FFF778BE0A4800F0FBF80546094800F0E0
:10340000F7F80446064800F01AFA29460120FFF7AB
:1034100069FE044800F013FA21460220E6E770BD79
:10342000490000204C00002030B5DDE903450EC006
:10343000002102C080E8320030BD0021C16001617E
:10344000704710B590F8821171B190F88021302347
:10345000521CB2FBF3F403FB142280F88021491EB6
:1034600080F88211002010BD022010BD90F882115A
:1034700021B190F8801100EBC10070470020704727
:10348000002180F8801180F8811180F88211704746
:1034900010B590F88221302A01D3012010BD0022FE
:1034A00090F881418B5C00EBC404A354521CD2B24F
:1034B000082AF5D390F881113022491CB1FBF2F3B0
:1034C00002FB131180F8811190F88211491C80F8D9
:1034D0008211002010BD90F8820108B100207047D1
:1034E000012070470148FEF7C5BB00001002002014
:1034F00070B5054609B1042900D9012101EBC100CD
:10350000194901EB8004232154F8242D284600F0AA
:10351000A3F92B212846626800F09EF92521284650
:10352000A26800F099F924212846E26800F094F995
:1035300026212846226900F08FF927212846626952
:1035400000F08AF928212846E26900F085F92A214D
:103550002846A26900F080F92846226ABDE870403A
:103560002C2100F079B90000D03A000810B50446CB
:103570000022382100F070F9064A3A21204600F076
:103580006BF92046BDE810404FF480723D2100F0F9
:1035900063B900003333F3FF10B50446392100F05E
:1035A00024F92178012901D0012100E00021024AFB
:1035B00052F82110401A10BD5000002010B5002410
:1035C000352100F012F9810600D50124410601D50C
:1035D00044F00204010601D544F00404410501D57C
:1035E00044F00804C00701D044F01004204610BD88
:1035F0000078212100F0A2B92DE9F047814600248E
:10360000352100F0F2F807466F21484600F0EDF84A
:1036100080460121484600F0E8F806463B2148462E
:1036200000F0E3F80546384600F032FA38B9404673
:1036300000F02EFA18B9304600F02AFA10B1102026
:10364000BDE8F087B80505D501246202352148465A
:1036500000F002F9A80706D544F0020402223B213B
:10366000484600F0F9F818F0C06F01D044F00404A7
:10367000B00706D544F0080402220121484600F0B4
:10368000EBF82046DCE700002DE9FF474449D1E98B
:103690000201CDE90201322000F025F9414FDFF8A7
:1036A0000881DFF80891002002AE00BF56F82050D4
:1036B000441CC1002C7008236A463D48FFF76FFD8B
:1036C0009DF8042000989DF805308118194489B2AE
:1036D000B84207D1BDF80600884203D16A709DF850
:1036E000050002E0012068700020A8706978287841
:1036F00000F07AF9287800F00DF907220121284618
:1037000000F0AAF8012000F0EEF80121284600F0B0
:103710006CF8411C00D070B90A2000F0E4F80722D0
:103720000121284600F098F8012000F0DCF8012182
:10373000284600F05AF804220021284600F08CF8B0
:1037400042466C21284600F087F82846FFF70EFF16
:103750004A461021284600F07FF8282211212846E9
:1037600000F07AF800226D21284600F075F800225A
:103770001421284600F070F8E0B2022896D36420A5
:1037800000F0B1F839210B4800F02FF8094C39212D
:10379000E41D2060201F00F028F86060BDE8FF876E
:1037A000C03A000843414C45C5010100060A01002A
:1037B000600000204900002070B50C460546FFF768
:1037C00017FF01192846BDE87040AFF3008070B5BF
:1037D0000C4605460022202100F03EF822462846ED
:1037E000BDE870402D2100F037B8007800F0A6B891
:1037F00004480178002903D000210170FFF7BCBA0A
:1038000070470000480000200149012008707047FF
:103810004800002070B50C00054605D40122202187
:1038200000F01AF8224604E00222202100F014F8E9
:1038300062422846BDE87040272100F00DB810B55F
:1038400004460022272100F007F820460022BDE8A8
:1038500010402021AFF30080007800F0F1B80000A4
:103860000D48FFF70DFEFFF7F3FAFFF731FBFFF707
:103870000BFFFFF737FDFFF71DFC084C002500BFCD
:10388000FFF728FB207818B125700220FFF73AFCDB
:10389000FFF7AEFFF4E70000E80200203000002050
:1038A0000870020A4A70020C8A70000EC8707047D5
:1038B000FDF730FCFFF700F8FEF7E0FCFEF7B8FC80
:1038C000FEF7D0FDFEF776FEFEF720FEFEF73CFF8A
:1038D000FEF7BEFEFEF7A2FDFEF7EEFEFEF70EFFC0
:1038E000FFF7BEFFFEE7FDF74DBA0000012807D045
:1038F000022809D101220548114600BFFDF7F6BB99
:10390000012220210248F9E770470000000402402C
:10391000000C0240012807D002280AD100220548E5
:10392000022100BFFDF7E2BB00224FF40051024824
:10393000F8E770470004024000180240F8B5054659
:103940001D4801F07F010170002141708170C1703C
:103950000171284600F034F8174A4FF0FF34521D29
:103960000523511F15480094FDF79AFF0646284687
:10397000FFF7BCFF96B90120FDF704FA284600F0D6
:103980001FF80D4A0523521D511F0C480094FDF7E6
:1039900087FF06462846FFF7A9FF0EB12046F8BD6F
:1039A0000549491DB1F80100CA7840BA00040979F7
:1039B00040EA02200843F8BD3B00002098000020A8
:1039C000012807D0022809D100220548012100BFA3
:1039D000FDF78CBB002220210248F9E77047000068
:1039E00000040240000C024070B5012916D00229E3
:1039F00016D003291FD101220024012813D0022848
:103A000019D10D4DC1022846FDF770FB22464FF437
:103A100000512846BDE87040FDF768BB002200E079
:103A200001220124E9E7054D08212846FDF75EFB48
:103A300022460421EDE770BD00040240000C024064
:103A400038B50446104841F080010170110E4170F4
:103A5000110C8170110AC17002712046FFF7B0FF8E
:103A6000094A4FF0FF30521D00900523511F0748AF
:103A7000FDF716FF05462046FFF738FF0DB1012080
:103A800038BD002038BD0000310000209800002023
:103A9000401C01D000207047012070474FF040705B
:103AA000E1EE100A70470000000000000000010273
:103AB00003040607080900000000010203040000D7
:103AC000490000204C000020490000204C0000204C
:103AD000000000000A0000000000000000000000DC
:103AE000E803000088130000E8030000E80300007A
:103AF0000A000000000000000A00000000000000B2
:103B00000000000088130000204E00008813000011
:103B1000881300000A000000000000000A000000F6
:103B200000000000000000001027000050C300004B
:103B300010270000102700000A000000000000000D
:103B40000A0000000000000000000000204E0000FD
:103B5000A0860100204E0000204E00000A00000058
:103B6000803B00080000002070000000C401000835
:103B7000F03B000870000020780A0000E001000817
:103B80000000000000000000000000000000000035
:103B90000100000000000000000000000000000024
:103BA0000100000010000000000000000024F400EC
:103BB0000000000000000000000000000000000005
:103BC00000000000000000000000000000000000F5
:103BD00000000000000000000000000000000000E5
:103BE00000000108000001000100000000000000CA
:040000050800018965
:00000001FF
