:020000040800F2
:10000000880A002029020008FD2A000805250008AA
:10001000F92A00081F0400088532000800000000CB
:10002000000000000000000000000000652C000837
:100030003504000800000000012B0008672C0008B0
:10004000430200084302000843020008430200087C
:10005000430200084302000843020008430200086C
:10006000430200084302000843020008430200085C
:10007000430200084302000843020008430200084C
:10008000430200084302000843020008430200083C
:100090002504000843020008430200084302000848
:1000A000430200084302000843020008430200081C
:1000B000430200084302000843020008430200080C
:1000C00043020008430200084302000843020008FC
:1000D00043020008430200084302000843020008EC
:1000E00043020008430200084302000843020008DC
:1000F00043020008430200084302000843020008CC
:100100004302000843020008392D0008430200089A
:1001100043020008430200084302000843020008AB
:10012000430200084302000843020008430200089B
:10013000430200084302000843020008430200088B
:10014000430200084302000843020008430200087B
:10015000430200084302000843020008430200086B
:10016000430200084302000843020008430200085B
:100170004302000843020008430200080000000098
:10018000430200084302000800F002F800F03CF8C7
:100190000AA090E8000C82448344AAF10107DA45E2
:1001A00001D100F031F8AFF2090EBAE80F0013F0F8
:1001B000010F18BFFB1A43F001031847003C000071
:1001C000203C0000103A24BF78C878C1FAD8520702
:1001D00024BF30C830C144BF04680C6070470000C1
:1001E0000023002400250026103A28BF78C1FBD840
:1001F000520728BF30C148BF0B6070471FB503F0DE
:1002000080FD1FBD10B510BD00F0CFF81146FFF7FF
:10021000F5FF03F05FFC00F0EDF803B4FFF7F2FF29
:1002200003BC00F0F5F80000094880470948004782
:10023000FEE7FEE7FEE7FEE7FEE7FEE7FEE7FEE796
:10024000FEE7FEE704480549054A064B70470000F3
:10025000252D00088901000888040020880A002054
:10026000880600208806002053EA020C00F069800E
:100270002DE9F04B4FF00006002B1FBFB3FA83F5BA
:1002800003FA05F424FA05F65E4012BF1643B2FAEB
:1002900082F502FA05F4C5F120051EBF22FA05FC1D
:1002A00044EA0C04203556EA044C4FEA144418BFC3
:1002B000641C4FF000084FF00009904271EB030CF2
:1002C00039D3002919BFB1FA81F701FA07F6B0FA5C
:1002D00080F700FA07F6C7F120071EBF20FA07FCD7
:1002E00046EA0C062037B6FBF4FCA7EB0507103FE7
:1002F00007F01F0BCBF120060CFA0BFB2CFA06F6CD
:1003000044BFB3460026202FA4BF5E464FF0000B2B
:100310005BEA060C08BF4FF0010B19EB0B09ABFBB6
:10032000027C48EB0608C01B06FB02CC0BFB03CC8F
:1003300071EB0C01C1E70B46024641464846BDE859
:10034000F08B13B54FF000004FF00001AFF30080C9
:10035000BDE81C4070474FF0000200B513469446BC
:100360009646203922BFA0E80C50A0E80C50B1F10D
:100370002001BFF4F7AF090728BFA0E80C5048BF21
:100380000CC05DF804EB890028BF40F8042B08BFBF
:10039000704748BF20F8022B11F0804F18BF00F8BB
:1003A000012B7047704770477047754600F02CF876
:1003B000AE4605006946534620F00700854618B052
:1003C00020B5FFF73FFFBDE820404FF000064FF09B
:1003D00000074FF000084FF0000B21F00701AC467A
:1003E000ACE8C009ACE8C009ACE8C009ACE8C00999
:1003F0008D46704710B50446AFF300802046BDE837
:100400001040FFF70ABF0000004870472804002092
:1004100001491820ABBEFEE726000200704700BF6E
:10042000FEE7000010B5024800F01DFA10BD000004
:100430002C000020704772B600BFFEE710B50246E0
:1004400092F82030012B01D0022B06D110684069B0
:10045000084314686061002010BD506A40F4802099
:1004600050620120F8E7F0B504460D461E4694F8A8
:10047000207020688368A86800B900E000BF012FE1
:1004800001D0022F7DD103F0806030B903F000600D
:1004900018B903F0805000287ED0C3F30161012019
:1004A00088403060A86860B9B5F800C0E86840EAE4
:1004B0004C5C206800F5C07000EB0110C0F800C073
:1004C0000FE0D5E901C040EACC00D5F80CC040EA05
:1004D0000C00D4F800C00CF5C07C0CEB011CCCF86F
:1004E0000000D5F810C0206800F5C07000EB0110C6
:1004F000C0F804C0287D01280ED1206800F5C07026
:1005000000EB0110406840F4807C206800F5C0706A
:1005100000EB0110C0F804C0D079000692F806C0C4
:1005200040EA0C4092F805C040EA0C2092F804C062
:1005300040EA0C00D4F800C00CF5C07C0CEB011CA8
:10054000CCF80C00D078000692F802C040EA0C40CB
:1005500092F801C040EA0C2092F800C040EA0C007A
:10056000D4F800C00CF5C07C0CEB011CCCF80800E2
:10057000206800F5C07000EB0110006840F0010C2D
:1005800001E00FE008E0206800F5C07000EB01100A
:10059000C0F800C00020F0BD606A40F40010606246
:1005A0000120F8E7606A40F4802060620120F2E7F1
:1005B000F0B504460A4694F82050012D01D0022DD2
:1005C0007ED1424901F50071086840F001000860E1
:1005D000086820F47C5008600868566A40EA0620E3
:1005E0000860107D00F01F06012000FA06F3C869BC
:1005F0009843C861A1F50071D069C8B9D1F80C025F
:100600009843C1F80C02908880B2968940EA064669
:1006100001F51070576940F83760108880B216896C
:1006200040EA064601F51070576900EBC7004660C6
:10063000D069012819D1D1F80C021843C1F80C0275
:10064000908880B2168840EA064601F51070576916
:1006500040F83760908980B2168940EA064601F575
:100660001070576900EBC7004660906928B9D1F84F
:1006700004029843C1F8040204E0D1F804021843CC
:10068000C1F80402106928B9D1F814029843C1F8DE
:10069000140204E0D1F814021843C1F81402106ADD
:1006A000012804D1D1F81C021843C1F81C02D1F86A
:1006B000000220F00100C1F800020020F0BDFFE7B9
:1006C000606A40F4802060620120F7E70064004027
:1006D000704770B5044694F82050012D01D0022DCA
:1006E0007DD151B92068C06800F0030080B9606A0C
:1006F00040F400106062012070BD2068006900F0C5
:10070000030028B9606A40F4001060620120F3E73A
:10071000206800F5D87000EB0110006800F00400BC
:100720009060906840B9206800F5D87000EB011027
:100730000068400D106007E0206800F5D87000EBFD
:1007400001100068C0085060206800F5D87000EB08
:100750000110006800F00200D060206800F5D87039
:1007600000EB0110406800F00F00082802D30820B9
:10077000106108E0206800F5D87000EB01104068B7
:1007800000F00F001061206800F5D87000EB011038
:10079000406800F47F40000A9061206800F5D8703E
:1007A00000EB01104068000C5061206800F5D87023
:1007B00000EB011080681870206800F5D87000EB1D
:1007C0000110806800F47F40000A5870206800F52E
:1007D000D87000EB0110806800F47F0000E03CE07E
:1007E000000C9870206800F5D87000EB011080684C
:1007F000000ED870206800F5D87000EB0110C068BA
:100800001871206800F5D87000EB0110C06800F482
:100810007F40000A5871206800F5D87000EB011085
:10082000C06800F47F00000C9871206800F5D87053
:1008300000EB0110C068000ED87131B92068C068A3
:1008400040F020002668F06005E02068006940F074
:1008500020002668306100204EE7606A40F4802066
:100860006062012048E72DE9F05F0446002520681A
:1008700046692068D0F80490206887682068D0F81E
:100880000CA02068D0F810B02068D0F8188006F0CE
:100890000100002855D007F00100C0B101202168F7
:1008A000886007F0020018B1204600F062FA0EE0FE
:1008B00007F0040010B145F4006508E007F00800F7
:1008C00010B145F4805502E0204600F051FA07F4DB
:1008D0008070C8B14FF480702168886007F40070A0
:1008E00018B1204600F047FA0EE007F4806010B11E
:1008F00045F4005508E007F4006010B145F4804568
:1009000002E0204600F036FA07F48030C8B14FF418
:1009100080302168886007F4003018B1204600F06C
:100920002CFA0EE007F4802010B145F4004508E0F1
:1009300007F4002010B145F4803502E0204600F0B5
:100940001BFA06F0080038B10AF0100020B145F497
:10095000007510202168C86006F0040040B10AF05C
:10096000080028B108202168C860204600F0A8F9D6
:1009700006F0020038B12068C06800F0030010B132
:10098000204600F09FF906F0400038B10BF010004F
:1009900020B145F4806510202168086106F0200030
:1009A00040B10BF0080028B10820216808612046FA
:1009B00000F0ACF906F0100038B12068006900F0D2
:1009C000030010B1204600F0A2F906F4003040B157
:1009D00009F0100028B1102021684860204600F07E
:1009E00097F906F4803040B109F0080028B10820DA
:1009F00021684860204600F0C1F906F4004088B341
:100A000009F0040078B306F4807020B108F001000A
:100A100008B145F0010506F4007020B108F00200AD
:100A200008B145F0020506F4806020B108F004002A
:100A300008B145F0040506F40060A0B108F07000AC
:100A400088B108F07000402817D006DC10280BD0C1
:100A500020280CD0302819D10CE0502810D0602864
:100A600014D110E01DE019E045F008050FE045F055
:100A700010050CE045F0200509E045F0400506E0D2
:100A800045F0800503E045F4807500E000BF00BF3D
:100A90002068806920F07000216888610420216846
:100AA00048602DB1606A284360622046FFF710FE5F
:100AB000BDE8F09F70B504460CB9012070BD94F8F4
:100AC000200010B9204600F0AFF82068006840F020
:100AD00001002168086000F067FA05460DE000F0AB
:100AE00063FA401B0A2808D9606A40F4003060624B
:100AF000052084F820000120E0E72068406800F02D
:100B000001000028EBD02068006820F00200216876
:100B1000086000F049FA05460DE000F045FA401B78
:100B20000A2808D9606A40F400306062052084F821
:100B300020000120C2E72068406800F00200002881
:100B4000EBD1207E012806D12068006840F08000AB
:100B50002168086005E02068006820F080002168B6
:100B60000860607E012806D12068006840F04000DF
:100B70002168086005E02068006820F040002168D6
:100B80000860A07E012806D12068006840F020009F
:100B90002168086005E02068006820F020002168D6
:100BA0000860E07E012806D12068006820F010006F
:100BB0002168086005E02068006840F010002168A6
:100BC0000860207F012806D12068006840F00800F6
:100BD0002168086005E02068006820F008002168AE
:100BE0000860607F012806D12068006840F004009A
:100BF0002168086005E02068006820F00400216892
:100C00000860D4E902010843216908436169084387
:100C10006168491E08432168C861002060620120A4
:100C200084F82000002049E710B586B0044614215E
:100C300001A8FFF790FB1F492068884238D100BF08
:100C4000002000901C48006840F000701A490860BD
:100C50000846006800F00070009000BF00BF00BFB1
:100C60000020009014481038006840F0010012493C
:100C7000103908600846006800F00100009000BFCD
:100C800000BF4FF4C050019002200290002003905A
:100C9000032004900920059001A9084800F084F879
:100CA00000221146142000F00DFA142000F0F6F98D
:100CB00006B010BD00640040403802400000024011
:100CC0007047000070B58AB00646002501AB03AA44
:100CD00000213046FFF7FDFC08B10AB070BD0024CA
:100CE00005E001A8005D2844C5B2601CC4B2072C11
:100CF000F7DB9DF80B00A84200D0EEE701A90248FF
:100D000002F02CFD00BFE8E7A40200207047704706
:100D1000704770B5044694F82000012822D10220C3
:100D200084F820002068006820F001002168086035
:100D300000F03AF905460DE000F036F9401B0A28AC
:100D400008D9606A40F400306062052084F8200011
:100D5000012070BD2068406800F001000028EBD140
:100D60006062F6E7606A40F4002060620120F0E70C
:100D70007047704770477047704770477047000072
:100D800070B5044600F010F906462546681C10B1FF
:100D900004480078054400BF00F006F9801BA84213
:100DA000FAD370BD08000020F8B502460B460025B6
:100DB000002400200021D6E0012606FA01F51E6875
:100DC00006EA0504AC4274D11E7906F00306012E32
:100DD00004D01E7906F00306022E13D190684F004E
:100DE0000326BE40B0434F00DE68BE4030439060F3
:100DF000506801268E40B0431E79C6F300168E401F
:100E0000304350601E7906F00306032E09D0D068E7
:100E10004F000326BE40B0434F009E68BE403043A3
:100E2000D0601E7906F00306022E13D1CF0802F11E
:100E3000200656F827004E07F70E0F26BE40B04397
:100E40004F07FF0E1E69BE403043CF0802F1200657
:100E500046F8270010684F000326BE40B0431E79B5
:100E600006F003064F00BE40304310605E6806F493
:100E70004036002E76D000BF002600963C4E3668E5
:100E800046F480463A4F3E603E46366806F4804659
:100E9000009600BF00BF374E8F0856F827008E0718
:100EA000370F0F26BE40B043334EB24202D1002668
:100EB00024E057E0314EB24201D101261EE0304E0F
:100EC000B24201D1022619E02E4EB24201D10326D0
:100ED00014E02D4EB24201D104260FE02B4EB24257
:100EE00001D105260AE02A4EB24201D1062605E0CC
:100EF000284EB24201D1072600E008268F073F0F97
:100F0000BE4030431B4E8F0846F82700224E306803
:100F1000A0435E6806F4801606B120431E4E306082
:100F2000361D3068A0435E6806F4001606B1204303
:100F3000194E361D3060184E361F3068A0435E686B
:100F400006F4003606B12043134E361F3060361FBC
:100F50003068A0435E6806F4803606B120430E4E2A
:100F6000083E3060491C1029FFF426AFF8BD000090
:100F700044380240083801400000024000040240AA
:100F800000080240000C0240001002400014024021
:100F900000180240001C0240083C01400AB1816177
:100FA00001E00B048361704701480068704700004E
:100FB00000000020034800680349097808440149FB
:100FC00008607047000000200800002010B50D48A0
:100FD000006840F400700B4908600846006840F45F
:100FE000806008600846006840F480700860032054
:100FF00000F0A6F80F2000F007F800F02BF8002012
:1010000010BD0000003C024070B504460E48007858
:101010004FF47A71B1FBF0F00C490968B1FBF0F5BF
:10102000284600F0FBFD08B1012070BD102C07D24E
:1010300000222146501E00F045F80548046001E0FA
:101040000120F2E70020F0E7080000200C0000205B
:101050000400002008B500BF002000900E48006882
:1010600040F480400C4908600846006800F4804065
:10107000009000BF00BF00BF00200090081F006864
:1010800040F08050091F08600846006800F080505A
:10109000009000BF00BF08BD44380240014608462A
:1010A00000280DDB00BF00BF00F01F0301229A40A3
:1010B00043099B0003F1E023C3F8002100BF00BFF8
:1010C00000BF70472DE9F05F80460D4616460027A9
:1010D00002F0DAF8074639462A46334601F007009F
:1010E000C0F1070ABAF1040F02D94FF0040A01E077
:1010F000C0F1070AD14600F1040ABAF1070F02D283
:101100004FF0000A01E0A0F1030AD4464FF0010AB3
:101110000AFA09FAAAF1010A0AEA020A0AFA0CFA18
:101120004FF0010B0BFA0CFBABF1010B0BEA030BBD
:101130004AEA0B042146404602F0AEF8BDE8F09FB3
:1011400000BF00F00702064B19684FF6FF03194075
:10115000044B0B4343EA0221014B196000BF704767
:101160000CED00E00000FA0570B504460D460CB920
:10117000012070BD5848006800F00700A84209D25D
:1011800055490D700846006800F00700A84201D0DC
:101190000120EEE7207800F0020002281DD120781F
:1011A00000F00400042805D14C48006840F4E050E9
:1011B0004A490860207800F00800082805D147480F
:1011C000006840F46040454908604448006820F0E9
:1011D000F000A168084341490860207800F0010050
:1011E000A8B36068012807D13C4808380068C0F3FC
:1011F0004040B8B90120BCE76068022802D06068AE
:10120000032807D1354808380068C0F3406048B962
:101210000120AEE7314808380068C0F3400008B943
:101220000120A6E72D48006820F00300616808430C
:101230002A490860FFF7B8FE064609E0FFF7B4FE4A
:10124000801B41F28831884202D9032091E707E0F0
:101250002248006800F00C006168B0EB810FEDD10E
:101260001D48006800F00700A84209D91A490D700E
:101270000846006800F00700A84201D0012078E786
:10128000207800F00400042807D11448006820F4F6
:10129000E050E168084311490860207800F0080038
:1012A000082808D10D48006820F46040216940EA10
:1012B000C1000A49086000F03FF808490968C1F315
:1012C0000311074A515CC840064908600648006897
:1012D000FFF79AFE00204CE7003C0240083802402D
:1012E0000C3D00080C0000200400002001480068AC
:1012F000704700000C00002000B5FFF7F7FF04491D
:101300000968C1F38221034A515CC84000BD000056
:10131000083802401C3D000800B5FFF7E7FF04490C
:101320000968C1F34231034A515CC84000BD000066
:10133000083802401C3D00082DE9F0470024002534
:101340000026A1462548006800F00C0020B10428C2
:1013500005D008283AD105E0DFF8849039E0DFF8BD
:10136000849036E01D48001F006800F03F041B48D1
:10137000001F006800F4800078B11A481749091F5F
:101380000968C1F38811A0FB0170014622460023C1
:101390003846FEF769FF05460EE011480F49091F60
:1013A0000968C1F38811A0FB0170014622460023A1
:1013B0003846FEF759FF05460848001F0068C0F38D
:1013C0000140401C4600B5FBF6F902E0DFF8109042
:1013D00000BF00BF4846BDE8F08700000838024063
:1013E0000024F40000127A00F8B504460CB901207C
:1013F000F8BD207800F00100002874D0F94800689A
:1014000000F00C0004280DD0F648006800F00C0035
:10141000082813D1F348001F006800F48000B0F5DD
:10142000800F0BD1EF4808380068C0F34040002817
:1014300059D06068002856D10120D9E700BF606804
:10144000B0F5803F08D1E7480838006840F48030A4
:10145000E449083908601EE06068B0F5A02F0DD19E
:10146000E0480838006840F48020DE490839086008
:101470000846006840F4803008600CE0D94808381D
:10148000006820F48030D7490839086008460068B1
:1014900020F48020086000BF606890B1FFF784FDF1
:1014A000054606E0FFF780FD401B642801D90320B4
:1014B0009EE7CC4808380068C0F340400028F1D0CF
:1014C00011E0FFF771FD054606E0FFF76DFD401BDB
:1014D000642801D903208BE7C24808380068C0F3AC
:1014E00040400028F1D1207800F0020002285FD1AE
:1014F000BC48006800F00C0058B1BA48006800F021
:101500000C0008281CD1B748001F006800F48000B8
:10151000B0B9B44808380068C0F3400020B1E068B2
:10152000012801D0012063E7AE480838006820F0A8
:10153000F800216940EAC100AA490839086037E08B
:10154000E06800B30120A8490860FFF72DFD0546BB
:1015500006E0FFF729FD401B022801D9032047E7D9
:10156000A04808380068C0F340000028F1D09D482A
:101570000838006820F0F800216940EAC100994964
:101580000839086014E0002097490860FFF70CFD57
:10159000054606E0FFF708FD401B022801D903209D
:1015A00026E7904808380068C0F340000028F1D1D1
:1015B000207800F0080008282CD16069A8B101202B
:1015C0008A490860FFF7F0FC054606E0FFF7ECFCEF
:1015D000401B022801D903200AE782486C300068CA
:1015E000C0F340000028F1D014E000207F490860DB
:1015F000FFF7DAFC054606E0FFF7D6FC401B0228A1
:1016000001D90320F4E677486C300068C0F340004D
:101610000028F1D1207800F00400042870D10027C0
:1016200070483830006800F0805090B900BF00204A
:1016300000906C483830006840F08050694938317B
:1016400008600846006800F08050009000BF00BFAE
:1016500001276748006800F48070B0B964480068EA
:1016600040F4807062490860FFF79EFC054606E082
:10167000FFF79AFC401B022801D90320B8E65C481A
:10168000006800F480700028F2D000BFA068012834
:1016900008D154486830006840F001005149683171
:1016A00008601DE0A06805280DD14E48683000682C
:1016B00040F004004B49683108600846006840F07B
:1016C000010008600CE047486830006820F0010025
:1016D0004449683108600846006820F0040008604A
:1016E00000BFA068A8B1FFF75FFC054609E0FFF75F
:1016F0005BFC401B41F28831884202D9032077E627
:1017000026E0384868300068C0F340000028EED07A
:1017100013E0FFF749FC054608E0FFF745FC401BD6
:1017200041F28831884201D9032061E62D486830B2
:101730000068C0F340000028EFD1012F07D12948ED
:101740003830006820F0805026493831086000BFEA
:10175000A069002845D02348006800F00C00082844
:101760005DD0A069022845D100201F490866FFF717
:101770001BFC054606E0FFF717FC401B022801D9B9
:10178000032035E6174808380068C0F34060002899
:10179000F1D1D4E907010843616A40EA81110122CD
:1017A000A06AC2EB500041EA00412C20005D41EAF2
:1017B00000600C49091F086001200B490866FFF70B
:1017C000F3FB054606E0FFF7EFFB401B022801D9BB
:1017D00003200DE6034808380068C0F34060002885
:1017E000F1D049E00838024000004742800E4742ED
:1017F00000700040002021490866FFF7D5FB054630
:1018000006E0FFF7D1FB401B022801D90320EFE5DA
:101810001B480068C0F340600028F2D12CE0A069AA
:10182000012800D1E4E51648001D0668A0690128DA
:1018300020D006F48001E06981421BD106F03F010F
:10184000206A814216D147F6C0703040616AB0EB21
:10185000811F0FD106F440310122A06AC2EB500073
:10186000B1EB004F06D106F070612C20005DB1EBAA
:10187000006F01D00120BBE50020B9E50000474220
:101880000038024010B504460CB9012010BD606A52
:1018900038B96068B0F5827F00D105E00021E161D0
:1018A00002E00021216161610021A16294F85100F0
:1018B00028B9002084F85000204600F047F80220A4
:1018C00084F851002068006820F04000216808601A
:1018D000A08800F48270218901F404410843A189A1
:1018E00001F400610843217C01F002010843217DDD
:1018F00001F001010843218B01F400710843217FAD
:1019000001F0380108432021095D01F080010843FE
:10191000218D01F400510843216808600421A06969
:1019200001EA104094F8241001F0100108432168E6
:1019300048602068C06920F400602168C861002008
:101940006065012084F8510000209FE710B586B043
:101950000446142101A8FEF7FEFC1B4920688842BA
:1019600030D100BF002000901848006840F40040CB
:10197000164908600846006800F40040009000BF67
:1019800000BF00BF0020009010481038006840F0F1
:1019900004000E49103908600846006800F0040091
:1019A000009000BF00BF4FF4E05001900220029071
:1019B00000200390032004900620059001A904480C
:1019C000FFF7F2F906B010BD003C0040403802407D
:1019D000000802402DE9FE4F04460F4690461D4682
:1019E0000C9E01200190FFF7DFFA814694F851B078
:1019F00060680290AA46BBF1010F0BD00298B0F5C7
:101A0000827F04D1A06810B9BBF1040F02D002207C
:101A1000BDE8FE8F1FB1B8F1000F00D00DB9012055
:101A2000F6E700BF94F85000012801D10220EFE74B
:101A3000012084F8500000BF94F85100042802D01F
:101A4000052084F8510000206065C4F83880E587DF
:101A5000A5872763E586A586206460642068006802
:101A600000F04000402805D02068006840F04000A9
:101A700021680860E068B0F5006F52D1606810B16D
:101A8000BAF1010F09D1206B00882168C860206B72
:101A9000801C2063E08E401EE0863BE0206880686A
:101AA00000F00200022810D1E08E70B101980128E8
:101AB0000BD1206B00882168C860206B801C2063DC
:101AC000E08E401EE086002001902068806800F0D3
:101AD000010068B1E08F58B12068C068A16B088030
:101AE000A06B801CA063E08F401EE0870120019066
:101AF000FFF75AFAA0EB0900B0420BD3701C48B1B3
:101B0000012084F8510000BF002084F8500000BF7D
:101B100003207DE7E08E0028C0D1E08F0028BDD1F2
:101B200052E0606810B1BAF1010F09D1206B007862
:101B300021680873206B401C2063E08E401EE08605
:101B40003CE02068806800F00200022810D1E08E9E
:101B500070B1019801280BD1206B007821680873BF
:101B6000206B401C2063E08E401EE0860020019028
:101B70002068806800F0010068B1E08F58B12068EB
:101B8000C068A16B0870A06B401CA063E08F401E72
:101B9000E08701200190FFF707FAA0EB0900B042AF
:101BA00001D3701C00B94EB9012084F8510000BF68
:101BB000002084F8500000BF032029E7E08E0028B1
:101BC000BFD1E08F0028BCD14A463146204600F004
:101BD00099FF40B12020606500BF002084F85000CC
:101BE00000BF012014E7A06850B900BF002000909A
:101BF0002068C068009020688068009000BF00BF27
:101C0000012084F8510000BF002084F8500000BF7C
:101C1000606D08B10120FBE60020F9E670B50446CE
:101C20002546681EB0F1807F01D301200FE0681EB9
:101C30004FF0E02148610F214FF0FF3001F02CFB05
:101C400000204FF0E021886107200861002070BD6E
:101C50007047704730B502460B4600BF92F83C0013
:101C6000012801D1022030BD012082F83C0000BFD4
:101C7000022082F83D00106844681068816824F0F2
:101C800070041868044310684460184D1068A84236
:101C90001BD01068B0F1804F17D0154D1068A842C6
:101CA00013D0144D1068A8420FD0134D1068A842ED
:101CB0000BD0124D1068A84207D0114D1068A842F1
:101CC00003D0104D1068A84205D121F0800158685A
:101CD000014310688160012082F83D0000BF0020B0
:101CE00082F83C0000BF00BFBDE7000000000140DB
:101CF0000004004000080040000C004000040140C7
:101D0000004001400018004010B504460CB9012005
:101D100010BD94F83D0028B9002084F83C0020460E
:101D200000F026F8022084F83D00211D206801F013
:101D30000BF8012084F8460000BF84F83E00012122
:101D40003F200155402001554120015500BF00BFF3
:101D5000012084F8420043200155442001554520CC
:101D6000015500BF012084F83D000020D0E70000AD
:101D700038B504462068B0F1804F0FD100BF002075
:101D800000904348006840F001004149086008465F
:101D9000006800F00100009000BF77E03D49206836
:101DA00088420FD100BF002000903948006840F001
:101DB0000200374908600846006800F00200009001
:101DC00000BF63E03449206888420FD100BF002083
:101DD00000902F48006840F004002D490860084634
:101DE000006800F00400009000BF4FE02B4920681D
:101DF000884218D100BF002000902548006840F0BC
:101E00000800234908600846006800F008000090B8
:101E100000BF00BF002204213220FFF753F9322017
:101E2000FFF73CF932E01E492068884218D100BF14
:101E3000002000901648006840F020001449086017
:101E40000846006800F02000009000BF00BF00229C
:101E500002213720FFF736F93720FFF71FF915E089
:101E600010492068884211D100BF00200090084826
:101E7000001D006840F480300549091D08600846CF
:101E8000006800F48030009000BF00BF38BD000043
:101E9000403802400004004000080040000C0040B0
:101EA00000140040004001402DE9F04104460D4679
:101EB000002700BF94F83C00012802D10220BDE8B1
:101EC000F081012084F83C0000BF022084F83D002E
:101ED0002068866826F0770626F47F4620688660AC
:101EE0002868502833D00CDC202850D004DC00288F
:101EF0004BD0102851D149E0302849D040284CD14E
:101F000039E060282DD0702807D0B0F5805F03D06D
:101F1000B0F5005F41D10DE041E0D5E902136A68F8
:101F2000206800F081FF2068866846F07706206808
:101F3000866034E0D5E902136A68206800F074FF17
:101F40002068806840F480402168886027E0EA6863
:101F50006968206801F058F85021206800F06FFF90
:101F60001DE0EA686968206801F061F86021206876
:101F700000F065FF13E0EA686968206801F044F842
:101F80004021206800F05BFF09E000BF00BF00BFF8
:101F90002968206800F053FF01E0012700BF00BF5F
:101FA000012084F83D0000BF002084F83C0000BF01
:101FB000384684E7704770B504462068C5682068D5
:101FC000066906F00200022819D105F00200022875
:101FD00015D1401F216808610120207720688069A1
:101FE00000F0030018B12046FFF7E4FF05E02046AB
:101FF00000F012F9204600F0FAF90020207706F0F0
:102000000400042819D105F00400042815D1C043A8
:1020100021680861022020772068806900F4407000
:1020200018B12046FFF7C6FF05E0204600F0F4F89F
:10203000204600F0DCF90020207706F00800082890
:1020400019D105F00800082815D1C043216808619E
:10205000042020772068C06900F0030018B12046F2
:10206000FFF7A8FF05E0204600F0D6F8204600F074
:10207000BEF90020207706F01000102819D105F0D5
:102080001000102815D1C04321680861082020776E
:102090002068C06900F4407018B12046FFF78AFF3D
:1020A00005E0204600F0B8F8204600F0A0F9002036
:1020B000207706F0010048B105F0010030B16FF063
:1020C000010021680861204600F092F906F08000C6
:1020D000802809D105F08000802805D1C0432168FF
:1020E00008612046FFF7B4FD06F04000402809D102
:1020F00005F04000402805D1C04321680861204612
:1021000000F077F906F02000202809D105F0200022
:10211000202805D1C043216808612046FFF799FDBA
:1021200070BD000010B586B00446142101A8FEF76A
:1021300012F92068B0F1804F1DD100BF002000903F
:102140003048006840F002002E49086008460068E8
:1021500000F00200009000BF00BF081501900220AF
:1021600002900020039004900120059001A92648C8
:10217000FEF71AFE43E02549206888421DD100BFC2
:10218000002000901F48006840F004001D490860CE
:102190000846006800F00400009000BF00BF402027
:1021A00001900220029000200390049002200590EC
:1021B00001A91748FEF7F8FD21E01649206888427A
:1021C0001DD100BF002000900E48006840F00200C2
:1021D0000C4908600846006800F00200009000BF4B
:1021E00000BF4020019002200290002003900320B5
:1021F00004900220059001A90348FEF7D5FD06B022
:1022000010BD0000303802400004024000040040CD
:102210000008024000080040704770B504460D46B3
:102220000CB9012070BD94F83D0028B9002084F855
:102230003C00204600F024F8022084F83D00211DD7
:10224000206800F081FD2068006820F00800216807
:10225000086020680068284321680860012084F82D
:10226000460084F83E0001213F200155012084F8FA
:10227000420043200155012084F83D000020D1E7B1
:1022800070472DE9F04104460D461646002700BF71
:1022900094F83C00012802D10220BDE8F081012021
:1022A00084F83C0000BF36B1042E1BD0082E31D07C
:1022B0000C2E5ED145E02946206800F0C9FD20685B
:1022C000806940F00800216888612068806920F0FA
:1022D00004002168886120688069296908432168B1
:1022E000886148E02946206800F0EAFD206880699E
:1022F00040F40060216888612068806920F4806073
:102300002168886120688069296940EA0120216884
:10231000886130E02946206800F010FE2068C0691E
:1023200040F008002168C8612068C06920F00400FE
:102330002168C8612068C069296908432168C861AB
:1023400019E02946206800F035FE2068C06940F495
:1023500000602168C8612068C06920F4806021683D
:10236000C8612068C069296940EA01202168C86104
:1023700001E0012700BF00BF00BF002084F83C003F
:1023800000BF384689E710B504460CB9012010BDDE
:1023900094F83D0028B9002084F83C00204600F065
:1023A00025F8022084F83D00211D206800F0CCFCB7
:1023B000012084F8460000BF84F83E0001213F2040
:1023C0000155402001554120015500BF00BF0120AB
:1023D00084F8420043200155442001554520015511
:1023E00000BF012084F83D000020D0E7704770470F
:1023F0007047704710B504460CB9012010BDA069A4
:1024000000B100E000BF94F8410028B9002084F832
:102410004000204600F02AF8242084F8410020687B
:10242000C06820F400502168C860204600F014FE07
:102430002068006920F490402168086120684069A4
:1024400020F02A00216848612068C06840F40050EC
:102450002168C86000206064202084F8410084F86E
:1024600042000020606300BFC8E7000010B586B0DE
:102470000446142101A8FDF76EFF1F492068884219
:1024800038D100BF002000901C48006840F01000C8
:102490001A4908600846006800F01000009000BF6C
:1024A00000BF00BF0020009014481438006840F0BE
:1024B00001001249143908600846006800F0010064
:1024C000009000BF00BF4FF4C06001900220029056
:1024D00000200390032004900720059001A90848DC
:1024E000FEF762FC002201212520FEF7EBFD2520EE
:1024F000FEF7D4FD06B010BD001001404438024084
:102500000000024000BFFEE710B510481049086007
:102510000620486000210E4881604FF08071C16044
:102520004FF4202101614FF48011416100210176B7
:102530000121417600218176C17601774177FEF74E
:10254000B9FA08B1FDF777FF10BD00000064004044
:102550002C00002000B587B0142102A8FDF7FBFE77
:1025600000BF002001907A48006840F08000784960
:1025700008600846006800F08000019000BF00BFBE
:1025800000BF002001900846006840F0010008608C
:102590000846006800F00100019000BF00BF00BFC6
:1025A000002001900846006840F0020008600846DC
:1025B000006800F00200019000BF00BF00BF0020D3
:1025C00001900846006840F0200008600846006856
:1025D00000F02000019000BF00BF00BF002001906C
:1025E0000846006840F0040008600846006800F0F3
:1025F0000400019000BF00BF00BF0020019008460A
:10260000006840F0080008600846006800F0080014
:10261000019000BF00BF00BF002001900846006885
:1026200040F0400008600846006800F0400001905B
:1026300000BF00BF012202214648FEF7AFFC002286
:1026400004214448FEF7AAFC012242F20301424859
:10265000FEF7A4FC00224FF400514048FEF79EFC18
:1026600000224FF480513C48FEF798FC01222421BF
:102670003B48FEF793FC002218213948FEF78EFCF8
:10268000012251033748FEF789FC06200290012001
:10269000039000200490059002A92E48FEF784FBC9
:1026A00043F2030002900120039000200490059063
:1026B00002A92948FEF778FB4FF4C0500290002091
:1026C0000390049002A92548FEF76EFB4FF40050DA
:1026D00002900120039000200490059002A91F4859
:1026E000FEF762FB0220029000200390012004907C
:1026F00002A91B48FEF758FB3C20029001200390E2
:1027000000200490059002A91548FEF74DFB4FF4F8
:10271000C050029000200390049002A91148FEF7D7
:1027200043FB4FF4005002900120039000200490DE
:10273000059002A90B48FEF737FB8020029000208D
:102740000390049002A90448FEF72EFB07B000BDD9
:1027500030380240000002400004024000140240F1
:10276000000C02400018024010B50F480F490860E5
:102770004FF48270486000210C488160C1600221E2
:10278000016101214161490281611821C16100217A
:102790000162416281620A21C162FFF773F808B1E8
:1027A000FDF749FE10BD0000003C00405400002031
:1027B00000B58DB0002009900A900B900C90079006
:1027C00008901C216846FDF7C6FD4FF08040234964
:1027D000086042F2CF00486000212048816042F248
:1027E0000F71C160002101618161FFF78DFA08B1AD
:1027F000FDF721FE4FF48050099009A91748FFF713
:1028000053FB08B1FDF717FE1448FFF7BCFD08B1F4
:10281000FDF711FE08211148FFF7FFFC08B1FDF795
:102820000AFE00200790089007A90C48FFF712FA4B
:1028300008B1FDF700FE602000900020019002909A
:102840000490082269460548FFF71BFD08B1FDF713
:10285000F2FD0248FFF766FC0DB000BDAC000020A1
:1028600000B58DB0002009900A900B900C90079055
:1028700008901C216846FDF76EFD23482349086037
:10288000292048600021214881604FF6FF71C16016
:10289000002101618161FFF737FA08B1FDF7CBFD37
:1028A0004FF48050099009A91848FFF7FDFA08B1C4
:1028B000FDF7C1FD1548FFF766FD08B1FDF7BBFD4B
:1028C00008211248FFF7A9FC08B1FDF7B4FD00206C
:1028D0000790089007A90D48FFF7BCF908B1FDF76C
:1028E000AAFD602000900020019002900490002238
:1028F00069460648FFF7C5FC08B1FDF79CFD034893
:10290000FFF710FC0DB000BD00040040F4000020F3
:1029100000B58DB0002009900A900B900C900790A4
:1029200008901C216846FDF716FD214821490860E2
:102930000020486000211F4881600521C1600021FE
:10294000016180218161FFF7DFF908B1FDF773FDB7
:102950004FF48050099009A91648FFF7A5FA08B16D
:10296000FDF769FD1348FFF70EFD08B1FDF763FDA4
:1029700000200790089007A90E48FFF76BF908B1EF
:10298000FDF759FD60200090032001900020029087
:1029900004200490002269460648FFF772FC08B143
:1029A000FDF749FD0348FFF7BDFB0DB000BD00007A
:1029B000000800403C01002000B587B000200390D3
:1029C0000490059006900190029015481549086002
:1029D00042F2CF00486000211248816041F2873105
:1029E000C160002101618161FFF78EF908B1FDF737
:1029F00022FD4FF48050039003A90A48FFF754FAD0
:102A000008B1FDF718FD00200190029001A90548CA
:102A1000FFF720F908B1FDF70EFD07B000BD00007B
:102A2000000C0040840100201CB5002000900190A3
:102A30000D480E4908605320486000210B48816012
:102A40006321C16000218161FFF75EF908B1FDF7E4
:102A5000F2FC00200090019069460448FFF7FAF864
:102A600008B1FDF7E8FC1CBD00140040CC010020BB
:102A70001FB5002000900190029003900E480F496E
:102A800008605320486000210C4881606321C160C8
:102A9000002101618161FFF737F908B1FDF7CBFC37
:102AA0004FF48050009069460448FFF7FDF908B1E3
:102AB000FDF7C1FC1FBD00000040014014020020D2
:102AC00010B50B480B4908604FF4E1304860002115
:102AD00008488160C16001610C2141610021816170
:102AE000C161FFF787FC08B1FDF7A5FC10BD000030
:102AF000001001405C02002000BFFEE700BFFEE7BF
:102B0000704700007CB504460E4615463346012248
:102B100002212046009500F039F828B1606D40F0A0
:102B20002000606503207CBD164800681821B0FBBA
:102B3000F1F01549B0FBF1F04FF47A714843019080
:102B40006068B0F5827F0DD1334600228021204697
:102B5000009500F01BF898B1606D40F020006065B2
:102B60000320E0E700BF019800B908E00198401E8B
:102B7000019020688068C0F3C0100028F3D100BF26
:102B80000020D0E70C00002040420F002DE9F84F54
:102B900004460D4690461E46DDF82890FEF704FADE
:102BA000A0EB0900371AFEF7FFF982462C480068AF
:102BB000C0F3CB307843009046E0701C002843D02F
:102BC000FEF7F2F9A0EB0A00B84200D2A7BB2068DA
:102BD000406820F0E000216848606068B0F5827FBE
:102BE0000DD1A068B0F5004F03D0A068B0F5806F9C
:102BF00005D12068006820F0400021680860A06AC4
:102C0000B0F5005F0DD100BF2068006820F40050CF
:102C1000216808602068006840F40050216808605E
:102C200000BF012084F8510000BF002084F850004C
:102C300000BF0320BDE8F88FFFE7009808B9002720
:102C400002E00098401E0090206880682840A8425A
:102C500001D1012000E000204045AED10020E9E78D
:102C60000C000020704710B5FEF7A4F910BD00005D
:102C700000B593B0302107A8FDF76DFB142102A821
:102C8000FDF769FB00BF002001902448006840F078
:102C90008050224908600846006800F0805001908A
:102CA00000BF00BF00BF002001901D48006840F435
:102CB00080401B4908600846006800F4804001908D
:102CC00000BF00BF092007904FF48030089001201A
:102CD0000C9002200D9041050E9104210F9154217A
:102CE0001091022111910421129107A8FEF77CFB9B
:102CF00008B1FDF7A0FB0F200290022003900020F6
:102D000004904FF4805005900690022102A8FEF72F
:102D10002BFA08B1FDF78FFB13B000BD403802401D
:102D2000007000400348006840F4700001490860EA
:102D30007047000088ED00E010B50248FFF73BF94E
:102D400010BD00008401002010B502682B4B984292
:102D50000ED0B0F1804F0BD0294B984208D0294BB0
:102D6000984205D0284B984202D0284B984203D174
:102D700022F070024B681A43204B984220D0B0F1E9
:102D8000804F1DD01E4B98421AD01E4B984217D030
:102D90001D4B984214D01D4B984211D01C4B9842A9
:102DA0000ED01C4B98420BD01B4B984208D01B4BAB
:102DB000984205D01A4B984202D01A4B984203D140
:102DC00022F44072CB681A4322F080034C6943EA34
:102DD00004028B68C3620B688362084B984202D07E
:102DE0000A4B984201D10B690363036843F0040363
:102DF000036001234361026010BD00000000014038
:102E00000004004000080040000C004000040140A5
:102E100000400140004401400048014000180040CB
:102E2000001C00400020004030B50C46816821F4B1
:102E30007F4142EA032525432943816030BD0A468C
:102E4000816821F0700142F00703194381607047E7
:102E500030B5026A056A25F0010505624368846998
:102E600024F0700424F003040D682C4322F00202C5
:102E70008D682A43104DA84200D103E00F4DA842AF
:102E800006D100BF22F00802CD682A4322F00402D6
:102E9000094DA84202D0094DA84207D123F48073FE
:102EA00023F400734D692B438D692B434360846188
:102EB0004D684563026230BD0000014000040140DE
:102EC00030B5026A056A25F0100505624368846919
:102ED00024F4E04424F440740D6844EA052422F00C
:102EE00020028D6842EA0512124DA84200D103E08B
:102EF000114DA84207D100BF22F08002CD6842EAFE
:102F0000051222F040020B4DA84202D00A4DA84201
:102F100009D123F4806323F400634D6943EA8503F8
:102F20008D6943EA8503436084614D68856302626D
:102F300030BD0000000001400004014030B5026ACD
:102F4000056A25F4807505624368C46924F070043D
:102F500024F003040D682C4322F400728D6842EAC9
:102F60000522124DA84200D103E0114DA84207D11D
:102F700000BF22F40062CD6842EA052222F480629A
:102F80000A4DA84202D00A4DA84209D123F4805329
:102F900023F400534D6943EA05138D6943EA051391
:102FA0004360C4614D68C563026230BD00000140EA
:102FB0000004014030B5036A056A25F480550562B6
:102FC0004468C26922F4E04222F440720D6842EA89
:102FD000052223F400538D6843EA0533084DA842C7
:102FE00002D0084DA84204D124F480444D6944EA3B
:102FF00085144460C2614D680564036230BD000001
:10300000000001400004014030B50B461446026A3E
:10301000056A25F001050562816921F0F00141EAA8
:10302000041122F00A021A438161026230BD30B5F8
:103030000B461446026A056A25F01005056281698F
:1030400021F4704141EA043122F0A00242EA031265
:103050008161026230BD00002DE9F84F044620680E
:10306000006920F44050E168084321680861216943
:10307000A068084361690843E1690843009020683B
:10308000C06849F20C618843009908432168C86010
:103090002068406920F44070A169084321684861B4
:1030A00076492068884203D075492068884203D158
:1030B000FEF732F9814602E0FEF71EF98146E0692B
:1030C000B0F5004F6CD102206168A0FB01500346AF
:1030D0001920A9FB007001462A463846FDF7C4F8BE
:1030E0006421B0FBF1F04FEA001A02206168A0FBF6
:1030F00001510B461920A9FB00712A463846FDF7FD
:10310000B3F8834602206168A0FB015003461920F2
:10311000A9FB00712A463846FDF7A6F86421B0FBEA
:10312000F1F000EBC00101EB0010ABEB80003221AD
:1031300001EBC0006421B0FBF1F000F0F8000AEBF5
:10314000400A02206168A0FB015003461920A9FB38
:10315000007001462A463846FDF786F8834602206D
:103160006168A0FB015003461920A9FB00712A46A3
:103170003846FDF779F86421B0FBF1F000EBC001AF
:1031800001EB0010ABEB8000322101EBC0006421A9
:10319000B0FBF1F000F007005044216888606AE05D
:1031A00004206168A0FB015003461920A9FB0070B0
:1031B00001462A463846FDF757F8824604206168E2
:1031C000A0FB015003461920A9FB007001462A46C6
:1031D0003846FDF749F86421B0FBF1F000EBC0017F
:1031E00001EB0010AAEB8000322101EB00106421FA
:1031F000B0FBF1F000F0F00A04206168A0FB017060
:1032000003461920A9FB00513A462846FDF72CF841
:103210006421B0FBF1F00AEB001A04206168A0FB06
:1032200001510B461920A9FB00712A463846FDF7CB
:103230001BF8834604206168A0FB01500346192057
:10324000A9FB007001462A463846FDF70DF86421B7
:10325000B0FBF1F000EBC00101EB0010ABEB800024
:10326000322101EB00106421B0FBF1F000F00F00FF
:10327000504421688860BDE8F88F000000100140CC
:103280000014014000BFFEE702480068C0F30220BE
:10329000704700000CED00E010B5002804DB0A07C1
:1032A000130E054A135406E00A07140E034A00F0F1
:1032B0000F031B1FD45410BD00E400E018ED00E024
:1032C000014608784A7840EA02208A7840EA0240BB
:1032D000CA7840EA0260704702460020002104E0FC
:1032E000535C0344D8B24B1CD9B20729F8DB7047B2
:1032F00000B58BB0002006900790012008904DF299
:103300002A5001904FF6142002904FF6FF70039060
:10331000C01E049000200590012009900E200A9004
:1033200001A90248FDF744F90BB000BD2C000020B4
:1033300030B587B004460D46029404200390002067
:1033400004900820059000208DF818006B462A464E
:1033500001A90448FDF787F810B1012007B030BD7E
:103360000020FBE72C00002010B50448FDF7D1FC3D
:1033700002210248FDF762F810BD00002C00002079
:1033800010B5FFF7B5FFFFF7EFFF10BD70B50446AE
:103390000D4629462046FFF7CBFF70BD7047000061
:1033A0002DE9FC41674800F0FFF908B1BDE8FC8158
:1033B000644800F0C0F9044604B9F7E72046FFF777
:1033C0007FFF009020798DF8040060798DF805006A
:1033D000A0798DF80600E0798DF80700594800F0D3
:1033E00093F99DF8040007287ED2DFE800F0A604D8
:1033F00026486B8FA5009DF8050000F0E1F8054612
:103400009DF8050000F0FEF806469DF8050000F066
:10341000ECF807469DF806109DF8050000F0B2F89C
:103420009DF80500009900F019F99DF805003B464C
:103430003246294600F088F880E09DF8050000F04B
:10344000BFF805469DF8050000F0DCF806469DF83B
:10345000050000F0CAF807469DF806109DF8050023
:1034600000F090F89DF80500009900F0D9F89DF85B
:1034700005003B463246294600F066F85EE09DF8BE
:10348000050000F09DF805469DF8050000F0BAF82B
:1034900006469DF8050000F0A8F807469DF80610BE
:1034A0009DF8050000F06EF8009A51429DF8050065
:1034B00000F0B6F89DF805003B463246294600F07C
:1034C00043F83BE09DF8050000F07AF805469DF8CA
:1034D000050000F097F806469DF8050000F085F815
:1034E00007469DF8061000E027E09DF8050000F073
:1034F00049F89DF80500009900F0CEF89DF8050008
:103500003B463246294600F01FF817E09DF80500BB
:1035100000F056F805469DF8050000F073F80646E1
:103520009DF8050000F0D6F89DF80500002332460E
:10353000294600F009F801E000E000BF00BF00BF2D
:1035400034E70000A40200202DE9FC4104460D46AA
:1035500016461F466946284600F0B4FA8DF8046006
:103560008DF805408DF806706846FFF7B5FE8DF8BA
:10357000070069460248FFF709FFBDE8FC8100002B
:10358000435FA51A70B504460E46062C08D1314695
:10359000094800F011F93146084800F00DF909E03A
:1035A000204600F07FFA05461DB13146284600F05E
:1035B00003F900BF70BD0000240000202700002098
:1035C0002DE9F0410546284600F06CFA044654B156
:1035D000204600F06FF90646204600F041F9074604
:1035E000B81BBDE8F0810020FBE770B50546284612
:1035F00000F058FA04461CB1204600F038F970BDBE
:103600000020FCE770B50546284600F04BFA04465A
:103610001CB1204600F055F970BD0020FCE7704752
:1036200070B504460E46062C08D13146094800F014
:10363000D3F93146084800F0CFF909E0204600F000
:1036400031FA05461DB13146284600F0C5F900BFE4
:1036500070BD0000240000202700002070B5044643
:103660000E46062C08D13146094800F0C1F9314612
:10367000084800F0BDF909E0204600F013FA0546BD
:103680001DB13146284600F0B3F900BF70BD0000FF
:10369000240000202700002070B504460E46062CAA
:1036A00008D13146094800F0B9F93146084800F020
:1036B000B5F909E0204600F0F5F905461DB131469F
:1036C000284600F0ABF900BF70BD000024000020C8
:1036D0002700002070B50446062C06D1084800F0EB
:1036E000B8F9084800F0B5F908E0204600F0DAF92A
:1036F000054615B1284600F0ACF900BF70BD0000CA
:103700002400002027000020014691F8820108B91A
:103710000220704791F88001401C302290FBF2F3A8
:1037200002FB130081F8800191F88201401E81F8AC
:1037300082010020EDE7014691F8820108B90020DE
:10374000704791F8800101EBC000F9E7002180F893
:10375000801180F8811180F88211704730B50246DF
:103760000B4692F88201302801DB012030BD002198
:1037700007E0585C92F8814102EBC4046054481C95
:10378000C1B20829F5DB92F88101401C302490FB7E
:10379000F4F504FB150082F8810192F88201401CC7
:1037A00082F882010020E1E7014691F8820108B920
:1037B000012070470020FCE770B506460D460DB1AC
:1037C000042D00DD0125681E00EBC000184901EB47
:1037D000800423213046226800F048F92B2130462E
:1037E000626800F043F925213046A26800F03EF9F6
:1037F00024213046E26800F039F92621304622695A
:1038000000F034F927213046626900F02FF92821B1
:103810003046E26900F02AF92A213046A26900F018
:1038200025F92C213046226A00F020F970BD0000F5
:10383000243D000810B5044600223821204600F03F
:1038400015F9064A3A21204600F010F94FF480722B
:103850003D21204600F00AF910BD00003333F3FF8C
:1038600010B504463921204600F0D0F810BD70B5DF
:10387000064600243521304600F0C8F8054605F01C
:10388000200008B144F0010405F0400008B144F004
:10389000020405F0800008B144F0040405F48060DF
:1038A00008B144F0080405F0010008B144F0100428
:1038B000204670BD10B504462121204600F0A6F830
:1038C00010BD2DE9F047804600243521404600F028
:1038D0009DF805466F21404600F098F80646012104
:1038E000404600F093F807463B21404600F08EF832
:1038F0008146284600F0FCF938B9304600F0F8F966
:1039000018B9384600F0F4F920B144F0100420460C
:10391000BDE8F08705F4007038B144F001044FF4BD
:1039200000723521404600F0A1F809F0020030B1E4
:1039300044F0020402223B21404600F097F806F0D2
:10394000C06008B144F0040407F0020030B144F054
:10395000080402220121404600F088F82046D7E7FB
:103960007CB51A4903C9CDE90001002527E05DF8BF
:103970002540681C2070012060700020A0706178D4
:10398000207800F057F9207800F0DCF807220121B8
:10399000204600F06BF804220021204600F066F873
:1039A0000B4A6C21204600F061F82046FFF742FFE9
:1039B000084A1021204600F059F8681CC5B2022DB3
:1039C000D5DB642000F0A2F87CBD0000B43D000807
:1039D000C5010100060A040070B505460C462846DC
:1039E000FFF768FF06463119284600F001F870BD60
:1039F00070B505460C4600222021284600F036F816
:103A000022462D21284600F031F870BD70B50446DD
:103A10000D462078294600F0ABF870BD70B505461C
:103A20000C46002C0ADB01222021284600F01EF85B
:103A300022462721284600F019F809E00222202119
:103A4000284600F013F862422721284600F00EF8BD
:103A500070BD10B5044600222721204600F006F86C
:103A600000222021204600F001F810BD70B5044668
:103A70000D46164620783246294600F00FF970BDF3
:103A80000748FFF763FEFFF77BFCFFF787FCFFF7B4
:103A900067FFFFF7C4FD01E0FFF782FCFCE70000D1
:103AA000A40200200146012901D1044870470229DF
:103AB00001D10348FAE70020F8E7000024000020C5
:103AC000270000200870020A4A70020C8A70020E59
:103AD000CA707047FDF77AFAFFF7CAF8FEF73AFDA9
:103AE000FEF712FDFEF764FEFEF712FFFEF7B8FECA
:103AF000FEF7E6FFFEF760FFFEF736FEFEF794FFE7
:103B0000FEF7B6FFFFF7BCFF00BFFEE710B50446A7
:103B10002046FDF735F910BD10B50446012C05D13E
:103B2000012220210548FDF739FA06E0022C04D1D4
:103B3000012211460248FDF731FA10BD000C024087
:103B40000004024010B50446012C05D100224103B7
:103B50000548FDF723FA06E0022C04D100220221D9
:103B60000248FDF71BFA10BD001802400004024095
:103B7000F8B506460C4604F07F0020490870002086
:103B800048708870C8700871304600F03DF84FF0FA
:103B9000FF3005231A4A194900901A48FDF71AFF09
:103BA00005463046FFF7B8FF15B14FF0FF30F8BDBE
:103BB0000120FDF7E5F8304600F026F84FF0FF3021
:103BC00005230F4A0D4900900E48FDF703FF0546F7
:103BD0003046FFF7A1FF15B14FF0FF30E7E7084887
:103BE000407800060649897840EA01400449C978CE
:103BF00040EA0120024909790843D8E71A00002069
:103C00001F0000205400002010B50446012C05D1EF
:103C1000002220210548FDF7C1F906E0022C04D15D
:103C2000002201210248FDF7B9F910BD000C024045
:103C3000000402402DE9F04107460C46012C02D158
:103C4000002501260BE0022C02D10125012606E009
:103C5000032C02D10125002601E0BDE8F081012FEF
:103C60000AD12A4608210B48FDF798F9324604216B
:103C70000848FDF793F90BE0022F09D12A46F90213
:103C80000548FDF78BF9324639030348FDF786F9FD
:103C900000BFE2E7000C024000040240F8B506460F
:103CA0000D46144645F080000E490870200E4870FD
:103CB000200C8870200AC8700C713046FFF7A4FFF2
:103CC0004FF0FF300523084A064900900748FDF7EA
:103CD00081FE07463046FFF71FFF0FB10120F8BDF8
:103CE0000020FCE7100000201500002054000020F8
:103CF0000146B1F1FF3F00D009B901207047002013
:103D0000FCE74FF04070E1EE100A70470000000041
:103D1000000000000102030406070809000000007B
:103D200001020304000000000A000000000000007F
:103D300000000000E803000088130000E803000012
:103D4000E80300000A000000000000000A00000074
:103D5000000000000000000088130000204E00005A
:103D600088130000881300000A0000000000000013
:103D70000A00000000000000000000001027000002
:103D800050C3000010270000102700000A000000A8
:103D9000000000000A000000000000000000000019
:103DA000204E0000A0860100204E0000204E0000A2
:103DB0000A0000002400002027000020DC3D00084D
:103DC000000000202C000000C4010008083E00088C
:103DD0002C0000205C0A0000E00100080000000048
:103DE00010000000010000000024F40000000000AA
:103DF00000000000000000000000000000000000C3
:083E00000000000000000000BA
:040000050800018965
:00000001FF
