:020000040800F2
:100000008008002439030008632F0008C52C00086D
:10001000612F00089B0500089D3E000800000000BD
:10002000000000000000000000000000D1310008C6
:100030009D05000800000000652F0008D33100086E
:100040005703000857030008570300085703000828
:100050005703000857030008570300085703000818
:100060005703000857030008570300085703000808
:1000700057030008570300085703000857030008F8
:1000800057030008570300085703000857030008E8
:1000900057030008570300085703000857030008D8
:1000A00057030008570300085703000857030008C8
:1000B00057030008570300085703000857030008B8
:1000C00057030008570300085703000857030008A8
:1000D0005703000857030008570300085703000898
:1000E00057030008570300080000000057030008EA
:1000F0005703000857030008570300085703000878
:100100005703000857030008570300085703000867
:100110005703000857030008570300085703000857
:100120005703000857030008570300085703000847
:100130005703000857030008570300085703000837
:1001400000000000000000000000000000000000AF
:100150005703000857030008570300085703000817
:100160005703000857030008570300085703000807
:1001700057030008570300085703000857030008F7
:1001800057030008570300085703000857030008E7
:1001900057030008570300085703000857030008D7
:1001A00057030008570300085703000857030008C7
:1001B00057030008570300085703000857030008B7
:1001C00057030008570300085703000857030008A7
:1001D0005703000857030008570300085703000897
:1001E0005703000857030008570300085703000887
:1001F0005703000857030008570300085703000877
:100200005703000857030008570300085703000866
:100210005703000857030008570300085703000856
:1002200057030008570300085703000800000000A8
:100230005703000857030008000000005703000898
:100240005703000857030008570300085703000826
:100250005703000857030008570300085703000816
:100260005703000857030008570300085703000806
:100270005703000857030008570300080000000058
:100280005703000857030008570300080000000048
:10029000000000005703000800F002F800F03CF8EE
:1002A0000AA090E8000C82448344AAF10107DA45D1
:1002B00001D100F031F8AFF2090EBAE80F0013F0E7
:1002C000010F18BFFB1A43F001031847003D00005F
:1002D000203D0000103A24BF78C878C1FAD85207F0
:1002E00024BF30C830C144BF04680C6070470000B0
:1002F0000023002400250026103A28BF78C1FBD82F
:10030000520728BF30C148BF0B6070471FB503F0CC
:100310000EFE1FBD10B510BD00F005F91146FFF728
:10032000F5FF03F0CDFD00F023F903B4FFF7F2FF72
:1003300003BC00F02BF900000A4880470A488047B8
:100340000A480047FEE7FEE7FEE7FEE7FEE7FEE7B6
:10035000FEE7FEE7FEE7FEE705480649064A074BCB
:1003600070470000A50500088532000899020008C2
:1003700080020024800800248004002480040024DB
:1003800053EA020C00F069802DE9F04B4FF00006B3
:10039000002B1FBFB3FA83F503FA05F424FA05F620
:1003A0005E4012BF1643B2FA82F502FA05F4C5F1B7
:1003B00020051EBF22FA05FC44EA0C04203556EA4B
:1003C000044C4FEA144418BF641C4FF000084FF06F
:1003D0000009904271EB030C39D3002919BFB1FA1F
:1003E00081F701FA07F6B0FA80F700FA07F6C7F1CD
:1003F00020071EBF20FA07FC46EA0C062037B6FB92
:10040000F4FCA7EB0507103F07F01F0BCBF120060C
:100410000CFA0BFB2CFA06F644BFB3460026202F3D
:10042000A4BF5E464FF0000B5BEA060C08BF4FF01E
:10043000010B19EB0B09ABFB027C48EB0608C01B58
:1004400006FB02CC0BFB03CC71EB0C01C1E70B46A6
:10045000024641464846BDE8F08B13B54FF0000018
:100460004FF00001AFF30080BDE81C40704710B5AD
:10047000203AC0F00B80B1E81850203AA0E818509C
:10048000B1E81850A0E81850BFF4F5AF5FEA027C5D
:1004900024BFB1E81850A0E8185044BF18C918C0CC
:1004A000BDE810405FEA827C24BF51F8043B40F86D
:1004B000043B08BF7047D20728BF31F8023B48BF52
:1004C00011F8012B28BF20F8023B48BF00F8012B90
:1004D00070474FF0000200B5134694469646203907
:1004E00022BFA0E80C50A0E80C50B1F12001BFF4ED
:1004F000F7AF090728BFA0E80C5048BF0CC05DF853
:1005000004EB890028BF40F8042B08BF704748BFA0
:1005100020F8022B11F0804F18BF00F8012B704714
:10052000704770477047754600F02CF8AE460500DE
:100530006946534620F00700854618B020B5FFF7FE
:100540000BFFBDE820404FF000064FF000074FF0D2
:1005500000084FF0000B21F00701AC46ACE8C009E1
:10056000ACE8C009ACE8C009ACE8C0098D467047EA
:1005700010B50446AFF300802046BDE81040FFF7F9
:10058000D4BE0000004870471C0200240149182016
:10059000ABBEFEE7260002007047FEE7704772B66A
:1005A000FEE70000054805490839026842F00202EA
:1005B000026008688004FCD5704700000C480258AF
:1005C000F0B503684FF6FC716D4C426BD3F8845064
:1005D0008D4345EA8205C3F88450036853F8845F6D
:1005E000068F25F47F0545EA06451D60836B654D42
:1005F0009F180268D2F888308B4343EA8703C2F819
:100600008830026852F8883F868F23F4FE0343EA5D
:1006100006431360066856F8A03FC26B8B4307EB96
:10062000420243EA82033360076857F8A03FB0F8FC
:10063000406023F4FE0343EA06433B60D0E91036F2
:1006400003FB06220368D3F8B0608E4346EA8206B5
:10065000C3F8B0600368B0F84860D3F8B07027F40E
:10066000FE0747EA0646C3F8B060D0E912670368A0
:1006700006FB0722D3F8AC608E4346EA8206C3F835
:10068000AC60D0E91467036806FB0722D3F8F0607A
:100690008E4346EA8206C3F8F0600368B0F85860FB
:1006A000D3F8F07027F47C1747EA0646C3F8F060E9
:1006B0000368876D53F8C06F02EB47028E4346EA2A
:1006C000820119600168B0F85C20D1F8C03023F4D1
:1006D0007C1343EA0242C1F8C020016890F8602010
:1006E000D1F8C03023F07C5343EA0262C1F8C02045
:1006F000416B04EB8101C166826B01EB82020267F0
:10070000C36B02EBC3024267D0E91034634302EBD0
:1007100083028267D0E91234634302EB8302C2672B
:10072000D0E91434634302EB8302C0F88020836D68
:1007300002EBC303C0F88430C46D826E544303EBF4
:100740008403C0F88830046E544303EB8402C0F87D
:100750009020AA420AD9D0F89C20032142F020021E
:10076000C0F89C2080F898100120F0BD002200E025
:1007700004C1D0F890308B42FAD80020F0BD0000C0
:1007800000AC0040FCD300402DE9F04194B08D490D
:100790004C2204466846FFF76AFE64B18A4D206821
:1007A000A84202D100F58070606094F898004FF084
:1007B000000820B108E0012014B0BDE8F081204617
:1007C00084F8998000F002F92068816921F0100115
:1007D000816100F065FA0327064604E000F060FA44
:1007E000801B0A2811D8206880690007F6D4206889
:1007F000816941F00101816100F052FA06460DE085
:1008000000F04EFA801B0A2808D9D4F89C0040F06A
:100810000100C4F89C0084F89870CCE720688069D7
:10082000C007EDD02068816941F002018161207C20
:1008300001282068816937D041F040018161607CE6
:1008400001282068816932D021F480418161A07C37
:100850000128206881692DD041F480518161206890
:10086000A268816921F44071114381612068816926
:1008700021F0A40181612068016921F0100101616A
:10088000E068012819D010B302281BD020688169C4
:1008900041F0800181612068016941F0100101612E
:1008A000E06803280ED012E021F04001C6E741F4D1
:1008B0008041CBE721F48051D0E72068816941F085
:1008C000040103E02068816941F020018161207EFC
:1008D0006FF0FF02D4E90773A68A1102400602EB0B
:1008E0000727A0F10070384327685B1E184301EB0F
:1008F00006463043F861A068B0F5407F11D104F19D
:100900002800A68C6FF00F0C89C801EB0641401E31
:1009100002EB0322104322680CEB07131843084331
:10092000D060206E30B12068626ED0F8C0101143E4
:10093000C0F8C010D4E917126846D14209D0216826
:10094000A36E51F8C82F50F8233022F007021A4343
:100950000A60216C49B12168626C51F8BC3F50F8C3
:10096000226023F0070232430A60A16C51B1216872
:10097000E36C51F8BC2F50F8233022F0700242EAA9
:1009800003120A60216D51B12168626D51F8BC3FBC
:1009900050F8220023F4E06242EA00200860206858
:1009A000A84204D16068816821F003018160C4F825
:1009B00094800121C4F89C8084F898102046FFF7A9
:1009C000FFFDF9E6483F000800A0004010B5B6B0B2
:1009D0000446142130A8FFF77CFDC0216846FFF7CC
:1009E00078FD1949206888422CD100201C904FF4D2
:1009F00000410446CDE90010684600F0BBFB08B199
:100A0000FFF7CDFD1148016841F480710160006875
:100A100000F4807035900D480C38016841F00201F7
:100A20000160006830AB022100F0020035904FF405
:100A30004050092283E81300054830A9CDE933422C
:100A400000F008F836B010BD00A40040EC44025895
:100A5000000402582DE9F84F03247F4D00234FF086
:100A600001094FF0B04B4FF00F0AEDE009FA03F621
:100A700032407AD00F7907F00307012F01D0022FFF
:100A800019D187684FEA430ED1F80CC004FA0EF86A
:100A900027EA08070CFA0EFC4CEA070CC0F808C05D
:100AA000D0F804C00F792CEA060CC7F300179F405A
:100AB00047EA0C0747600E79F643B60702D18E6805
:100AC000012E0BD0C6684FEA43088F6804FA08FC71
:100AD00026EA0C0607FA08F73743C7600E7906F0D6
:100AE0000306022E12D1DE080F694FEA437C00EBA9
:100AF0008606B646366A4FEADC6C0AFA0CF807FA44
:100B00000CF726EA08063743CEF820700F790668FE
:100B10004FEA430807F0030704FA08FC07FA08F74E
:100B200026EA0C06374307604E6816F4403F1CD097
:100B30004A4E376847F00207376036689F0706F06D
:100B40000206009623F0030606F1B046B6463F0FB4
:100B5000D6F80864DFF808810AFA07FC404526EA5F
:100B60000C0603D14FF0000C41E06CE0DFF8F4C05C
:100B7000604502D14FF0010C39E0DFF8ECC0604570
:100B800002D14FF0020C32E0DFF8E0C0604502D144
:100B90004FF0030C2BE0DFF8D8C0604502D14FF0D6
:100BA000040C24E0DFF8CCC0604502D14FF0050C06
:100BB0001DE0DFF8C4C0604502D14FF0060C16E01E
:100BC000DFF8B8C0604502D14FF0070C0FE0DFF846
:100BD000B0C0604502D14FF0080C08E0DFF8A4C0B7
:100BE000604502D14FF0090C01E04FF00A0C0CFAFD
:100BF00007FC4CEA060CCEF808C44F68DBF800602E
:100C0000FF0226EA020600D516435F46CBF80060D5
:100C1000D1F804C0DBF804605FEA8C2C26EA0206F7
:100C200000D516437E606E684F6826EA0206BF0351
:100C300000D516436E602E684F6826EA0206FF0351
:100C400000D516432E605B1C0A6832FA03F67FF467
:100C50000DAFBDE8F88F000080000058F444025842
:100C6000000002580004025800080258000C025804
:100C7000001002580014025800180258001C0258B4
:100C800000200258002402580AB18161704709040B
:100C9000FBE7000001480068000C70470010005C92
:100CA0000148806870470000000000240248816805
:100CB000027811448160704700000024032010B5C1
:100CC00000F0C6F801F0A0F80F4A10491468136844
:100CD000C4F3032203F00F038A5CC95C02F01F0215
:100CE00001F01F01D0400A4A20FA01F111600949C0
:100CF00008600F2000F010F808B1012010BD00F0CE
:100D000079F8002010BD000018440258BC3F0008CC
:100D1000100000240C00002470B50D4D0446287806
:100D2000A0B14FF47A71B1FBF0F00A490968B1FB48
:100D3000F0F001F0C9FC48B9102C07D2002221467E
:100D4000501E00F065F800206C6070BD012070BD81
:100D5000000000240C000024154BF0B5083B42783D
:100D600013491A600B680A1F23F001030B604368E4
:100D70001360057BC67A827A437B2D07847B45EA24
:100D80000665C77B90F809C0067A90F800E045EA4E
:100D9000C24040EA834040EA444040EA074040EA1B
:100DA0000C2040EA460040EA0E000860F0BD00005A
:100DB000A0ED00E0BFF35F8F044800210368034A01
:100DC00023F48033036070321160704724ED00E03B
:100DD000074A40F00100064970321060086840F48C
:100DE00080300860BFF34F8FBFF36F8F70470000F4
:100DF00024ED00E0054808B5016841F002010160FA
:100E0000006800F00200009008BD0000F4440258A1
:100E10000E4BF0B41B680D46C3F30223C3F1070663
:100E2000042E00D90426191D072901D2002300E051
:100E3000DB1E012404FA06F19C40491E2940641E71
:100E4000994014402143F0BC03F029B80CED00E0B8
:100E5000064900F0070210B54FF6FF040868044B7E
:100E6000204040EA02201843086010BD0CED00E06D
:100E70000000FA05134970B50A68D243520705D538
:100E8000096801F00701814213D118E00A6822F0D5
:100E9000070202430A60FFF703FF0A4D4FF47A7618
:100EA0000446083D07E000BFFFF7FAFE001BB04212
:100EB00001D9012070BD2868C0438004F4D400200B
:100EC00070BD00000C48025810B500F057FF0549EE
:100ED0000968054AC1F30211515C01F01F01C840C5
:100EE00010BD000020440258BC3F0008494930B5FD
:100EF000484C0B1D0A68143409681D68246802F008
:100F00000303C5F30012C1F30531C4F3CC04002977
:100F100014FB02F200EE102AF8EE400A75D03F4AA8
:100F20009FED3D1AB7EE000A6BB1DFED3D1A012BC4
:100F300001D0022B64D002EE101A1168F8EE422A9A
:100F400081EEA22A21E0334C283C23689B0612D56F
:100F5000344B246801EE901A1168C4F3C104F8EE12
:100F6000612AE34001EE903AC1F30801F8EE611AFC
:100F700081EEA22A0BE001EE901ADFED2B2A00BFD2
:100F8000F8EE611A116882EEA12AC1F3080101EEA0
:100F9000901A1168F8EE611A40EE811A71EE800A1B
:100FA00062EE200AC1F3462101EE101AB8EE411A92
:100FB00031EE001AC0EE811ABCEEE11A80ED001A83
:100FC0001168C1F3064101EE101AB8EE411A31EE74
:100FD000001AC0EE811ABCEEE11A80ED011A116808
:100FE000C1F3066101EE101AB8EE411A31EE000AA3
:100FF00080EE801ABCEEC10A80ED020A30BD04E02A
:1010000001EE901ADFED092ABAE700210160416084
:101010008160F3E728440258000000393844025840
:101020000024744A0090D0030024744C0024F44A35
:10103000494930B5484C0B1D0A681C3409681D68C5
:10104000246802F00303C5F30022C1F30551C4F381
:10105000CC04002914FB02F200EE102AF8EE400A3C
:1010600075D03F4A9FED3D1AB7EE000A6BB1DFED38
:101070003D1A012B01D0022B64D002EE101A116828
:10108000F8EE422A81EEA22A21E0334C283C236864
:101090009B0612D5344B246801EE901A1168C4F3F4
:1010A000C104F8EE612AE34001EE903AC1F3080171
:1010B000F8EE611A81EEA22A0BE001EE901ADFED44
:1010C0002B2A00BFF8EE611A116882EEA12AC1F343
:1010D000080101EE901A1168F8EE611A40EE811ACB
:1010E00071EE800A62EE200AC1F3462101EE101A69
:1010F000B8EE411A31EE001AC0EE811ABCEEE11AC8
:1011000080ED001A1168C1F3064101EE101AB8EE25
:10111000411A31EE001AC0EE811ABCEEE11A80EDE0
:10112000011A1168C1F3066101EE101AB8EE411AF6
:1011300031EE000A80EE801ABCEEC10A80ED020A90
:1011400030BD04E001EE901ADFED092ABAE7002174
:10115000016041608160F3E72844025800000039D3
:10116000404402580024744A0090D0030024744C78
:101170000024F44A2DE9FE4F0546DFF8E48350F8D9
:10118000081B0024F64FC943019005F128002646AC
:1011900008F12408009008011DD4A86E50B1B0F5E4
:1011A000801F0CD0B0F5001F0ED0B0F5401F1ED030
:1011B00001240FE0386840F40030386017E00198EF
:1011C000022101F0E5FE03E00098022101F070FF2A
:1011D00004000CD026462888C043C00523D4A86D3F
:1011E00005281ED2DFE800F00C11161B1B00AA6EAA
:1011F000D8F8001021F440111143C8F80010EAE7B4
:10120000386840F40030386009E00198002101F0AE
:10121000BFFE03E00098002101F04AFF044674B1CC
:1012200000E0012426462888C043800528D4E86DC4
:1012300080281ED00CDC90B140280ED114E0AA6D9D
:10124000D8F8001021F007011143C8F80010EAE7B0
:10125000C02813D0B0F5807F10D001240FE038688B
:1012600040F40030386009E00198002101F090FE60
:1012700003E00098002101F01BFF04469CB12646C4
:101280002888DFF8DC92C04309F12C0940052CD4F2
:10129000D5F8A800B0F5800F20D00DDCA0B1B0F5D6
:1012A000001F0FD115E0EA6DD8F8001021F4E071AD
:1012B0001143C8F80010E3E7B0F5C00F13D0B0F544
:1012C000000F10D001240FE0386840F4003038607F
:1012D00009E00198002101F05BFE03E00098002185
:1012E00001F0E6FE04467CB126462888C04300058E
:1012F0002DD4D5F8AC00B0F1007F21D00EDCA8B120
:10130000B0F1807F10D116E0D5F8A820D9F80010F0
:1013100021F460011143C9F80010E6E7B0F1407F05
:1013200013D0B0F1806F10D001240FE0386840F482
:101330000030386009E00198002101F029FE03E047
:101340000098002101F0B4FE044674B126462868D6
:10135000C04380011FD4E86CD8B110280FD02028DA
:1013600012D0302815D0012414E0D5F8AC20D9F8DB
:10137000001021F0E0611143C9F80010E7E7386878
:1013800040F40030386004E00198022101F000FED2
:10139000044674B126462888C043C0042BD4286E66
:1013A000B0F5005F20D00DDCA0B1B0F5805F0FD1AB
:1013B00015E06B48EA6C2030016821F030011143E0
:1013C0000160E8E7B0F5405F13D0B0F5804F10D072
:1013D00001240FE0386840F40030386009E00198DB
:1013E000002101F0D5FD03E00098002101F060FE2E
:1013F00004468CB126462888C043800429D4686EF0
:10140000B0F5403F23D010DC08B3B0F5803F14D0D6
:10141000B0F5003F0FD115E02A6ED8F8001021F486
:10142000E0411143C8F80010E5E7B0F5802F0ED079
:10143000B0F5A02F0BD001240AE00198012101F0A2
:10144000A7FD03E00098012101F032FE044694B1AB
:1014500026462888C04340042AD4D5F8B000B0F10D
:10146000405F23D010DC08B3B0F1805F14D0B0F13E
:10147000005F0FD115E06A6ED8F8001021F4E0216A
:101480001143C8F80010E4E7B0F1804F0ED0B0F17E
:10149000A04F0BD001240AE00198012101F078FD52
:1014A00003E00098012101F003FE044674B12646D2
:1014B0002888C04300041FD4286FD8B1B0F1805FE2
:1014C0000ED0B0F1005F10D0012414E0D5F8B020A8
:1014D000D9F8001021F0E0411143C9F80010E7E706
:1014E000386840F40030386004E00198012101F0D0
:1014F0004FFD044674B126462868C043C0011ED47F
:10150000A86CD0B101280ED0022811D0032814D025
:10151000012413E02A6FD8F8001021F04051114344
:10152000C8F80010E8E7386840F40030386004E09C
:101530000198022101F02CFD0446ACB12646286832
:10154000DFF81CB0C043ABF11C0B400252D405487D
:10155000016841F480710160FFF7A2FB824611E04F
:101560002C44025800480258FA48AA6C016821F03D
:10157000030111430160E2E7FFF792FBA0EB0A00D1
:10158000642835D8F4480068C005F5D58CBBDFF871
:10159000C4A3B5F8B4100AF1240ADAF8000001F483
:1015A000407100F44070884211D0DAF80010DAF887
:1015B000002021F4407142F48032CAF80020DAF8A9
:1015C000002022F48032CAF80020CAF80010D5F8B2
:1015D000B400B0F5807F1AD1FFF762FB029012E0F1
:1015E000FFF75EFB0299411A41F2883081420AD925
:1015F000032426462878DFF85CA3C0430AF1080AD2
:10160000C00721D03CE0DAF800008007E8D5D5F823
:10161000B410C1F30120032858460DD0016821F40D
:101620007C510160B5F8B420DAF80010C2F30B0267
:101630001143CAF80010DDE7C84A036802EA111234
:1016400023F47C511143ECE7E86F182816D005DC31
:10165000A0B1082808D0102804D10AE020280DD015
:1016600028280BD001240AE00198012101F090FC08
:1016700003E00098012101F01BFD044664B12646F9
:101680002878C04380071ED4A86F062819D2DFE847
:1016900000F0160C11161616EA6FDAF8001021F099
:1016A00038011143CAF80010EAE70198012101F05E
:1016B0006FFC03E00098012101F0FAFC04467CB1C4
:1016C00000E0012426462878C04340071FD4D5F8FF
:1016D0009400062819D2DFE800F0160C1116161631
:1016E000AA6FDAF8001021F007011143CAF80010C0
:1016F000E9E70198012101F04BFC03E0009801218A
:1017000001F0D6FC0446A4B100E001242646287866
:10171000C04380062BD4D5F89000B0F1405F24D0B0
:1017200011DC10B3B0F1805F15D0B0F1005F10D1C3
:1017300016E0D5F89420D9F8001021F007011143E4
:10174000C9F80010E3E7B0F1804F0ED0B0F1A04F20
:101750000BD001240AE00198002101F019FC03E0FC
:101760000098022101F0A4FC044694B12646287892
:10177000C04340062BD4D5F89C00B0F5406F24D070
:1017800011DC10B3B0F5806F15D0B0F5006F10D13B
:1017900016E0D5F89020DAF8001021F0E04111436E
:1017A000CAF80010E3E7B0F5805F0ED0B0F5A05F97
:1017B0000BD001240AE00198002101F0E9FB03E0CD
:1017C0000098022101F074FC044694B12646287862
:1017D000C04300062BD4D5F8A000B0F5C04F24D0EC
:1017E00011DC10B3B0F5005F15D0B0F5804F10D10B
:1017F00016E0D5F89C20D9F8001021F4E0511143EF
:10180000C9F80010E3E7B0F5004F0ED0B0F5204F57
:101810000BD001240AE00198002101F0B9FB03E09C
:101820000098022101F044FC044654B12646287871
:10183000C04300071ED4D5F88400B0F5805F0AD0FD
:101840000FE0D5F8A020D9F8001021F46041114331
:10185000C9F80010EBE70098022101F029FC00B163
:101860000126D5F88420DAF8001021F44051114304
:10187000CAF800102878C043C00613D4D5F89800E1
:10188000B0F5807F05D10098022101F011FC00B174
:101890000126D5F89820D9F8001021F440711143A1
:1018A000C9F800102868C043000316D4D5F8A40076
:1018B00038B1B0F5803F09D0B0F5003F0BD001241E
:1018C0000AE00198002101F063FB03E00098022187
:1018D00001F0EEFB04468CB126462868C043400365
:1018E00022D4D5F88800B0F5801F11D0B0F5001FC4
:1018F00013D0B0F5401F15D0012414E0D5F8A42072
:10190000D9F8001021F440311143C9F80010E4E780
:10191000386840F40030386004E00098012101F09C
:10192000C7FB04465CB126462868C043C00323D4E5
:10193000286DA8B1B0F5803F17D001241BE0D5F881
:101940008820DAF8001021F440111143CAF8001081
:10195000EAE700004C44025800480258CFFFFF005D
:10196000386840F40030386004E00198022101F04A
:101970000FFB0446E4B126462868C043800005D426
:101980000098022101F094FB00B101262868C043B1
:1019900080031BD4D5F88000B0B1B0F5807F0FD0A4
:1019A000B0F5007F10D0B0F5407F0DD001240CE0E1
:1019B0005A482A6D016821F4803111430160DBE748
:1019C000386840F400303860ECB326462868C043DD
:1019D000C00207D46A6FD8F8001021F0004111430B
:1019E000C8F800102868C043C00008D4D5F8B82053
:1019F000DBF8001021F480411143CBF80010286877
:101A0000C043800207D4EA6ED8F8001021F080713C
:101A10001143C8F800102868C04340000CD4DBF81C
:101A2000001021F40041CBF80010DBF80010D5F8CD
:101A3000BC201143CBF800102868C04308D43748B5
:101A40006A6D016800E018E021F040511143016027
:101A50002868C043000208D4D5F88C20DAF80010BA
:101A600021F440011143CAF8001028790024C04332
:101A700000F0010020430AD00FE0D5F88020DAF80A
:101A8000001021F440711143CAF800109EE701983C
:101A9000002101F07DFA00B106462879C04300F02C
:101AA0000200204305D10198012101F071FA00B133
:101AB00006462879C04300F00400204305D1019870
:101AC000022101F065FA00B106462879C04300F012
:101AD0000800204305D10098002101F0E9FA00B187
:101AE00006462879C04300F01000204305D1009835
:101AF000012101F0DDFA00B106462879C04300F06B
:101B00002000044304D10098022101F0D1FA00B969
:101B100016B10120BDE8FE8F0020FBE74C440258BF
:101B20002DE9F05F04000F467ED0DFF83882D8F848
:101B3000000000F00F00B8420CD2D8F8001021F0DD
:101B40000F013943C8F80010D8F8000000F00F006A
:101B5000B84269D12078844D40070AD520692968A8
:101B600001F07001884204D9296821F07001014315
:101B7000296020787C4E361D00070AD560693168DF
:101B800001F07001884204D9316821F070010143ED
:101B900031602078C0060AD5A069316801F4E0619F
:101BA000884204D9316821F4E06101433160207832
:101BB000DFF8B4B180060BF1080B0CD5E16958468B
:101BC000DBF8002002F07002914204D9026822F092
:101BD00070020A430260207880070AD5E06829680D
:101BE00001F00F01884204D9296821F00F01014357
:101BF00029602078C0073ED05B49A2682868183960
:101C000020F47060104328606068022818D0032810
:101C100019D00968012819D0490700294ADADFF8E4
:101C200048A1AAF1080A00E044E0DAF8002022F016
:101C300007020243CAF80020FFF732F8814612E09B
:101C400009688903E9E709688901E6E7C905E4E766
:101C5000FFF726F8A0EB090141F28830814202D952
:101C60000320BDE8F09F6168DAF8000000F038005A
:101C7000B0EBC10FECD1207880070AD5E068296865
:101C800001F00F01884204D2296821F00F010143BD
:101C90002960D8F80010404601F00F01B9420BD975
:101CA000016821F00F0139430160006800F00F0066
:101CB000B84201D00120D4E7207840070AD5206936
:101CC000296801F07001884204D2296821F070016E
:101CD00001432960207800070AD56069316801F066
:101CE0007001884204D2316821F0700101433160F3
:101CF0002078C0060AD5A069316801F4E061884205
:101D000004D2316821F4E06101433160207880061B
:101D10000CD5E1695846DBF8002002F070029142D0
:101D200004D2026822F070020A43026000F06CF8EC
:101D30000E492A682B68C2F3032203F00F038A5C62
:101D4000C95C02F01F0201F01F01D040084A20FACE
:101D500001F111600749086007480068BDE8F05FBD
:101D6000FEF7DABF0020005218440258BC3F0008BA
:101D7000100000240C0000240400002430B500F002
:101D800043F80B4A0B490C4B15681468C5F3032242
:101D900004F00F048A5C095D02F01F0201F01F01CC
:101DA000D040064A20FA01F119601060084630BDA3
:101DB00018440258BC3F0008100000240C00002406
:101DC00000B5FFF7DBFF05490968054AC1F30211B9
:101DD000515C01F01F01C84000BD00001C440258C6
:101DE000BC3F000800B5FFF7C9FF05490968054A6F
:101DF000C1F30221515C01F01F01C84000BD000089
:101E00001C440258BC3F0008454970B54548096864
:101E1000434B103B11F0380208D00111082A03D0BF
:101E2000102A0BD0182A0BD0084670BD19688906F5
:101E3000FBD51968C1F3C101C84070BD3A4870BDF7
:101E40003749374D18310C1D24350A680968266852
:101E50002D6802F0030406F00102C1F30511C5F379
:101E6000CC0515FB02F200EE102AB8EE400AE9B3E9
:101E70002F4ADFED2E0AB7EE001A6CB1DFED2D1AF6
:101E8000012C01D0022C43D002EE101A1068F8EE9B
:101E9000422A81EEA22A1EE01C68A40611D51B6806
:101EA00001EE901A1168C3F3C103F8EE612AD8401D
:101EB00001EE900AC1F30800F8EE611A81EEA22A41
:101EC0000BE001EE901ADFED1C2A00BFF8EE611A5C
:101ED000106882EEA12AC0F3080001EE900AF8EE25
:101EE000611A40EE201A31EE810A00E015E022EE80
:101EF000000A1068C0F34620401C00EE900AF8EE7D
:101F0000600A80EE201ABCEEC10A10EE100A70BD05
:101F100001EE901ADFED092AD8E7002070BD00001D
:101F2000104402580090D00300127A0000000039DB
:101F3000304402580024744A0024744C0024F44AAB
:101F40002DE9F05F04007DD0FF4F2078FE4D18375B
:101F5000DFF8F493103DC00748D0D9F80000396885
:101F600000F03800102815D0182803D101F0030024
:101F700002280FD06068B0F5803F12D010B1B0F5E4
:101F8000A02F18D0286820F480302860286820F41A
:101F9000802009E02868800328D560680028D2D016
:101FA00024E0286840F480302860606888B1FEF73B
:101FB00077FE064609E0286840F480202860F0E7B4
:101FC000FEF76EFE801B64286FD828688003F7D563
:101FD0000CE0FEF765FE064605E000BFFEF760FE7A
:101FE000801B6428F0D828688003F7D4207841F259
:101FF0000308D54E0C3E800769D5D9F80000396832
:1020000010F038000ED0182801D188070AD0E068F7
:1020100090B3296821F0190101432960FEF740FEC1
:10202000824631E02868400702D5E06800288AD05F
:10203000E168286820F0190008432860FEF730FEA8
:10204000824607E0DFE000BFFEF72AFEA0EB0A00B1
:102050000228B9D828684007F6D500BFFEF71AFE57
:1020600040451BD82069402812D0316821F47C31CA
:1020700041EA003030602AE018E000BFFEF710FEB1
:10208000A0EB0A0002289FD828684007F6D5E5E7AC
:10209000306820F47C3040F40030EBE7207C31687D
:1020A00021F0FE4141EA0060E4E70DE1286820F0FC
:1020B00001002860FEF7F4FD824605E0FEF7F0FD22
:1020C000A0EB0A0002288DD828684007F6D42078B3
:1020D000C0065DD5D9F80000DFF86CB2396800F0B1
:1020E0003800ABF1040B082810D0182803D101F0F8
:1020F000030001280AD0E0690028286838D040F0A1
:1021000080002860FEF7CCFD824623E02868C005E9
:1021100023D5E069802876D11FE0206A202821D0CD
:10212000316821F0F84141EA8060306030E000BF62
:1021300094F82010DBF8002022F07C5242EA016182
:10214000CBF8001024E000BFFEF7AAFDA0EB0A00C8
:10215000022898D82868C005F6D5FEF79BFD4045B3
:10216000E6D8DAE7306820F0F84040F08040DCE75D
:1021700020F080002860FEF793FD064605E000BFD2
:10218000FEF78EFD801B02289DD82868C005F7D475
:102190002078000729D56C486169643000298046A1
:1021A000016811D041F001010160FEF779FD06469A
:1021B00005E000BFFEF774FD801B0228C9D8D8F8DF
:1021C00000008007F6D510E021F001010160FEF764
:1021D00067FD064605E000BFFEF762FD801B022892
:1021E00072D8D8F800008007F6D42078800623D56E
:1021F000A0690028286810D040F480502860FEF7BD
:102200004FFD064605E036E1FEF74AFD801B022839
:102210005AD828688004F7D50EE020F48050286052
:10222000FEF73EFD064604E0FEF73AFD801B02285D
:102230004AD828688004F7D4207840074FD5DFF8C3
:102240000C81D8F8001041F48071C8F80010FEF736
:1022500027FD064605E000BFFEF722FD801B64282F
:1022600032D8D8F80000C005F6D5374EA0686036E1
:1022700001280AD008B1052813D0306820F00100E9
:102280003060306820F0040002E0306840F0010067
:102290003060A06841F2883A90B1FEF701FD8046B7
:1022A0000AE0306840F004003060EEE7FEF7F8FC2A
:1022B000A0EB0801514507D830688007F6D50EE03D
:1022C000FEF7EEFC804607E084E000BFFEF7E8FC86
:1022D000A0EB080151457DD830688007F6D4606ACC
:1022E000B0B3DFF86480D9F8001008F120084FF689
:1022F000F87B08F10409C1F3C2010329A8F1040A1B
:1023000069D00228286820F08070286003D0FEF78A
:10231000C7FC044684E0FEF7C3FC064605E000BFA8
:10232000FEF7BEFC801B022877D828688001F7D40E
:10233000E26A40F2F331386854F8283F884340EAB3
:1023400002101843386004E0104402580048025854
:10235000B5E0217B434622894FF4FE0C208A4FF0E2
:10236000FE474902267D521E401EA1F50071C2F3B0
:1023700008088AB2761E0CEA004042EA08020243CC
:10238000504607EA06610A431A60DAF8002022F094
:102390000102CAF80020D9F80020266A22EA0B02BE
:1023A00042EAC602C9F80020DAF80010A26921F05A
:1023B0000C011143CAF800100168E26921F0020122
:1023C00011430160016841F480310160016841F40A
:1023D000003101E021E027E00160016841F4802143
:1023E0000160016841F001010160286840F08070DF
:1023F0002860FEF755FC044605E000BFFEF750FCE0
:10240000001B022809D828688001F7D557E000BFD3
:10241000FEF746FC001B022802D90320BDE8F09F0E
:1024200028688001F4D44AE039680128D8F800000F
:1024300021D0A26A01F0030393421CD1E26AC1F3E6
:1024400005118A4217D1216BC0F30802491E8A4246
:1024500011D1616BC0F34622491E91420BD1A16B91
:10246000C0F30642491E914205D1E16BC0F30660FC
:10247000491E814201D00120D0E7A16C4E46D9F817
:102480000000C0F3CC00814219D0DAF800005546B4
:1024900020F00100CAF80000FEF702FC4FEA000736
:1024A000FEF7FEFBB842FBD0A26C306820EA0B00BE
:1024B00040EAC2003060286840F001002860002037
:1024C000ACE700002DE9F047040029D0594A4FF04D
:1024D00000092068584B594D9042C4F8289006D006
:1024E000984204D0A84202D0E1680F2918D8E168C8
:1024F0004FF0010AE76B0831C9080AEB5716714320
:10250000904205D0984203D0A84201D0082907D8AC
:10251000904203D0984201D0A84204D1102902D998
:102520000120BDE8F08794F8810020B9204684F8A6
:10253000809000F085F8022084F88100206801680E
:1025400021F0010101602068A1698268B1F1806F0A
:1025500002F4F81110D16268B2F5800F01D01AB1FF
:102560000AE0A26B22B107E0A26BB2F1805F03D157
:10257000026842F4805202606068400209D5E06857
:10258000072806D32068236D026822F480721A435C
:1025900003E02068026822F480720260A66AE069A3
:1025A000E26B25683043E3680A4310431843A86090
:1025B000D4E90D02D4E90581636A25691843D4F88A
:1025C00020C00A43266810432843A56DD4E9017250
:1025D000D4E9123140EA080040EA0C0038430843CD
:1025E000104318432843F060606868B92068816828
:1025F00021F4C05141F4006181602068816821F4B8
:10260000C06141F4806181602068016D21F00101A9
:1026100001656068400206D52068626DC16821F0DE
:1026200000411143C160C4F8849084F881A0002067
:1026300077E700000030014000380040003C0040D7
:1026400010B5B6B00446142130A8FDF742FFC021F2
:102650006846FDF73EFF1949206888422CD1811455
:1026600000208A001892CDE900106846FEF782FD2E
:1026700008B1FDF794FF1248016841F40041016080
:10268000006800F4004035900D480838016841F0BA
:102690000401016000680623022200F00400359066
:1026A00000204FF4E051309130A9CDE93120CDE93F
:1026B00033030448FEF7CEF936B010BD003C0040AD
:1026C000E844025800080258401EB0F1807F10B55F
:1026D00001D3012010BD4FF0E02460610F2160178D
:1026E00001F0DDFB0020A0610721216110BD000089
:1026F000F0B590F83C20012A3BD01F4E012480F811
:102700003C40022280F83D2002681C4D5368B242D2
:10271000D2F808C001D0AA4203D14F6823F4700355
:102720003B430F6823F070031F4357600268B242B7
:1027300013D0B2F1804F10D0114B9A420DD0114BF3
:102740009A420AD0104B9A4207D0AA4205D00F4BAA
:102750009A4202D00E4B9A4204D189682CF0800331
:1027600019439160002180F83D4080F83C100846F4
:10277000F0BD0220F0BD0000000001400004014057
:102780000004004000080040000C00400018004019
:102790000040014010B5040003D094F83D0010B192
:1027A00007E0012010BD002084F83C00204600F026
:1027B00023F8022084F83D002068211D00F0DEFD92
:1027C000012084F8480084F83E0084F83F0084F833
:1027D000400084F8410084F8420084F8430084F803
:1027E000440084F8450084F8460084F8470084F8E3
:1027F0003D00002010BD000008B500680649884271
:1028000008D10648016841F004010160006800F049
:102810000400009008BD000000080040E844025891
:1028200070B5044690F83C000025012814D03A4BBE
:10283000012684F83C60022084F83D0022689068FC
:10284000184020F47F409060086870282FD010DC7A
:1028500010F00F0F03D022E04FF0020070BD4FEADE
:102860002012072A1BD2DFE802F0535353534B398F
:102870004100B0F1101F4BD009DCB0F5805F0FD0E4
:10288000B0F5005F1ED0B0F5801F08D140E0A0F584
:10289000801120393CD010293AD0202938D0012588
:1028A00084F83D60002084F83C00284670BD4A68EA
:1028B0002068D1E9021300F0C7FD2068816841F06B
:1028C000770109E04A682068D1E9021300F0BCFDF5
:1028D0002068816841F480418160E1E7CA68496805
:1028E000206800F067FF2068502106E0CA68496848
:1028F000206800F08DFF2068602100F0AFFDCFE779
:10290000CA684968206800F055FF20684021F4E754
:10291000226801461046F0E788FFCEFF10B586B06A
:10292000044614216846FDF7D4FD0E49206888420C
:1029300015D10D48016841F008010160006801AC43
:10294000002200F0080005900220032341030091BB
:1029500084E80D00049069460448FEF77BF806B051
:1029600010BD000000080040E0440258000C02586E
:1029700070B5044690F83C0000260D4601280BD0A7
:10298000012084F83C000C2A4AD007DC82B1042ADA
:1029900020D0082A06D131E0022070BD102A53D081
:1029A000142A63D00126002084F83C00304670BD14
:1029B000206800F05DFD2068816941F008018161B7
:1029C0002068816921F00401816120682A69816998
:1029D000114311E0206800F0A1FD2068816941F4F5
:1029E000006181612068816921F4806181612068D2
:1029F0002969826942EA01218161D4E7206800F0F7
:102A0000DBFD2068C16941F00801C1612068C1692E
:102A100021F00401C16120682A69C169114311E0F4
:102A2000206800F017FE2068C16941F40061C161AF
:102A30002068C16921F48061C16120682969C26987
:102A400042EA0121C161AEE7206800F03FFE206844
:102A5000416D41F0080141652068416D21F004019C
:102A6000416520682A69416D114311E0206800F03A
:102A700067FE2068416D41F4006141652068416D49
:102A800021F48061416520682969426D42EA012193
:102A9000416588E710B5040003D094F83D0010B1FB
:102AA00007E0012010BD002084F83C00204600F023
:102AB00022F8022084F83D002068211D00F05EFC11
:102AC000012084F8480084F83E0084F83F0084F830
:102AD000400084F8410084F8420084F8430084F800
:102AE000440084F8450084F8460084F8470084F8E0
:102AF0003D00002010BD704730B590F884100129CA
:102B000018D0012280F884202421C0F888100022E7
:102B1000202401680B680D6823F0005325F001059F
:102B20000D60426601680B60C0F8884080F8842020
:102B3000104630BD022030BD70B5044690F88400C8
:102B400001281DD0012284F884202420C4F88800A4
:102B500020680568026822F001020260206882682D
:102B600022F060620A438260204600F071FE226813
:102B7000202100201560C4F8881084F8840070BDFE
:102B8000022070BD70B5044690F8840001281DD065
:102B9000012284F884202420C4F888002068056875
:102BA000026822F0010202602068826822F060421E
:102BB0000A438260204600F04BFE2268202100205C
:102BC0001560C4F8881084F8840070BD022070BDC0
:102BD00010B5040003D0D4F8880010B107E001203C
:102BE00010BD002084F88400204600F027F824203F
:102BF000C4F888002068016821F001010160A06A22
:102C000010B1204600F046FE204600F027FF0128C4
:102C1000E6D02068416821F49041416020688168D5
:102C200021F02A0181602068016841F00101016002
:102C30002046BDE8104000F091BE000010B5B6B0CF
:102C40000446142130A8FDF744FCC0216846FDF776
:102C500040FC1949206888422CD10020012118220B
:102C60001F92CDE900106846FEF784FA08B1FDF71F
:102C700096FC1248016841F010010160006800F004
:102C8000100035900D481038016841F002010160D4
:102C900000680423022200F00200359000204FF467
:102CA0004041309130A9CDE93120CDE933030448CA
:102CB000FDF7D0FE36B010BD00100140F0440258C0
:102CC00000040258FEE700001748002170B5154CBB
:102CD0000122816000F1180604600D24C160022504
:102CE0000274042341748174426186E834004262B4
:102CF0008262C262C0E90C218163C163C0E9101322
:102D0000C0E91213C0E914138165C1650166C0E909
:102D10001913FDF739FD002803D0BDE87040FDF719
:102D20003EBC70BD00A40040140000242DE9F04119
:102D300086B014216846FDF7CCFB2C48016841F0B1
:102D400080010160016801F080010591016841F096
:102D500001010160016801F001010591016841F084
:102D600002010160016801F002010591016841F072
:102D700008010160016801F008010591016841F056
:102D80000401016000680122194F48F6104100F06B
:102D9000040005903846FDF777FFDFF858800122E0
:102DA00008214046FDF770FF0024694601251020E8
:102DB0000090CDE9015438460394FDF74BFE0226FE
:102DC00069464FF40C40CDE90005CDE9024638468E
:102DD000FDF740FE08206946CDE90005CDE9024631
:102DE0004046FDF737FE06B0BDE8F081E0440258EA
:102DF00000000258000C02582DE9F04117484FF42A
:102E00008007DFF854C00021FA000726C0F800C090
:102E10001301C0E90362C0E90171C0E907314162F1
:102E20005510540081625201C162C0E90D21C16395
:102E3000016441648164C164016541658165C0E9E3
:102E40000554FFF73FFB002803D0BDE8F041FDF734
:102E5000A6BBBDE8F0810000003C0040B4000024A7
:102E600010B58EB000241C21009407A80194029490
:102E70000394049405940694FDF72BFB1D484FF62C
:102E8000FF711B4AC0E90024C0E90241046184616A
:102E9000FFF780FC08B1FDF782FB4FF480500090F3
:102EA00014486946FFF7BCFC08B1FDF778FB1148F0
:102EB000FFF7F0FD08B1FDF772FB0E4804A904947A
:102EC0000694FFF715FC08B1FDF769FB6020CDE91A
:102ED00007040848082207A909940B94FFF748FD46
:102EE00008B1FDF75CFB0348FFF718FD0EB010BDFD
:102EF000000800403C0100241848002110B5164C81
:102F00000C224FF4E1330460C0E90131C160C0E933
:102F100004128161C161016241628162FFF758FE62
:102F200008B1FDF73CFB0D480021FFF72BFE08B16F
:102F3000FDF735FB09480021FFF7FEFD08B1FDF75D
:102F40002EFB0648FFF7D8FD002803D0BDE810404F
:102F5000FDF725BB10BD00000010014088010024D2
:102F6000FEE7FEE7704700B5B1B0C0216846FDF747
:102F7000B0FA002015904FF00041CDE900106846EE
:102F8000FEF7F8F8002801D072B6FEE731B000BDB8
:102F90002DE9F047454D044689464FF0000A286860
:102FA000C04380070AD0414E283E306820F0806040
:102FB0003060FDF775FE0746B04608E00120BDE829
:102FC000F08700BFFDF76CFEC01B022867D8D8F859
:102FD00000000001F6D4206829684FF4FE0721F4B0
:102FE0007C313E0241EA00302860207AA389B4F89F
:102FF00004C040022D4D2D495B1E227CACF1010C1A
:103000001035091DA0F5007080B2521ECCF3080CDB
:1030100007EA034340EA0C00184306EA0262104341
:1030200028600868626920F0C000104308600A68E0
:10303000A06922F0200202430A60281D0A6822F0DB
:1030400010020A6002684FF6F873E4699A4342EA94
:10305000C40202600868B9F1000F40F010020A6073
:1030600011D00868B9F1010F11D040F400100860C8
:10307000D8F80000444640F08060C8F80000FDF732
:103080000FFE05460DE0086840F40020EFE740F42D
:103090008010ECE7FDF704FE401B022801D9032055
:1030A0008DE720680001F5D5504688E7284402588E
:1030B0002DE9F047454D044689464FF0000A28683F
:1030C000C04380070AD0414E283E306820F080502F
:1030D0003060FDF7E5FD0746B04608E00120BDE899
:1030E000F08700BFFDF7DCFDC01B022867D8D8F8C9
:1030F00000008000F6D4208829684FF4FE0721F0F4
:103100007C713E0241EA00502860207AA389B4F81D
:1031100004C040022D4D2D495B1E227CACF1010CF8
:103120001835091DA0F5007080B2521ECCF3080CB2
:1031300007EA034340EA0C00184306EA0262104320
:1031400028600868626920F44060104308600A68DB
:10315000A06922F4007202430A60281D0A6822F462
:1031600080720A6002684FF6F873E4699A4342EA93
:10317000C40202600868B9F1000F40F480720A606E
:1031800011D00868B9F1010F11D040F080700860CB
:10319000D8F80000444640F08050C8F80000FDF721
:1031A0007FFD05460DE0086840F48000EFE740F43D
:1031B0000000ECE7FDF774FD401B022801D9032055
:1031C0008DE720688000F5D5504688E728440258EE
:1031D0007047FDF76BBD000070B59CB04C21684690
:1031E000FDF777F9202113A8FDF773F90220FDF709
:1031F00041FE224800252249026842F44042026012
:1032000002680A6842F001020A60096801F00101DF
:103210001B9101688904FCD5022009904024C20357
:1032200003260DF1280C0121CDE900627823CDE9B8
:1032300003148CE80B000FA90D900C220E9081E86E
:10324000250068461295FEF77BFE08B172B6FEE7D0
:1032500008211595CDE91614CA011A943F200421BE
:10326000CDE91842CDE9130613A8FEF759FC002852
:1032700001D072B6FEE71CB070BD000018480258BD
:103280002C0400583348F0B5334A016841F470010A
:103290000160106800F00F00072804D2106820F0C9
:1032A0000F00C01D10602D4900202C4C10340B68FD
:1032B0002B4D43F001030B6020600B682B400B602B
:1032C000136803F00F03072B04D9136823F00F03CF
:1032D000DB1D1360214C234A1834234B261D371D58
:1032E00020601E4C214D28343060261D3860371D6B
:1032F00023603B1D35601C1D3A60251D2E1D186086
:10330000331D22602860326018600A68134B184C25
:1033100022F4802260330A60186020686FF30F0087
:10332000B0F1005F03D213490120C1F808010B4836
:10333000D4300168C9040BD4026843F2D2010E4BA9
:1033400042F4805202601960016821F480510160EA
:10335000F0BD000088ED00E000200052004402585B
:103360007FEDF6EA80020101000202020000FF0187
:103370000010005C00800051004000522DE9F04731
:10338000294B4FF0804A294D02689842284E294F18
:10339000294C09D0504507D0A84205D0B04203D0EF
:1033A000B84201D0A04205D1D1F804C022F0700289
:1033B0004CEA0202DFF884C0DFF884809842DFF82C
:1033C00084900FD050450DD0A8420BD0B04209D008
:1033D000B84207D0A04205D0604503D0404501D097
:1033E000484503D1CD6822F440722A438E684D6966
:1033F00022F08002C6620E682A439842866207D095
:10340000A04205D0604503D0404501D0484501D1D8
:10341000096901630368012143F00403036041610A
:103420000260BDE8F0870000000001400004004099
:1034300000080040000C0040000401400040014032
:10344000004401400048014042EA032283680A43E5
:1034500023F47F410A43826070470000034B826877
:103460001A400A4342F00701816070478FFFCFFF87
:103470002DE9F04FDFF88C80234EDFF89090DFF8D5
:1034800090B0026A036AB042DFF888A022F0020C12
:10349000214F23F001020262436885698A680C6843
:1034A00005EA080525F0030542EA0C0244EA050492
:1034B00007D0484505D0584503D0504501D0B84203
:1034C00008D1D0F820C022F008052CF004020262D6
:1034D000CA682A43B04207D0484505D0584503D0B2
:1034E000504501D0B84205D123F44076D1E90553C7
:1034F00035432B4343608461496841630262BDE800
:10350000F08F00008FFFFEFF00000140000401402B
:10351000004001400044014000480140F0B5DFF8A0
:1035200080E0204C204D026A036AA04222F020066F
:1035300023F01003036242688369D1F808C00F6862
:1035400003EA0E0323F4407E46EA0C134EEA0726F4
:1035500001D0A84208D1076A23F0800327F0400772
:103560000762CF6843EA0713A0420AD0A84208D0F6
:103570000E4CA04205D00E4CA04202D00D4CA042F1
:1035800007D1D1E9054522F4406242EA840242EAC9
:10359000850242608661496881630362F0BD000074
:1035A000FF8FFFFE00000140000401400040014089
:1035B0000044014000480140F0B5DFF880E0204DB4
:1035C000204E026A036AA84222F4007723F4807333
:1035D00003624368C269D1F808C002EA0E020C68AF
:1035E00022F0030E47EA0C2244EA0E0401D0B04256
:1035F00008D1076A22F4006227F480670762CF6867
:1036000042EA0722A8420AD0B04208D00E4DA84292
:1036100005D00E4DA84202D00D4DA84207D1D1E9E8
:10362000055623F4405343EA051343EA0613436067
:10363000C4614968C1630262F0BD00008FFFFEFFF4
:1036400000000140000401400040014000440140EE
:1036500000480140F0B5046A026A22F48052026216
:103660004268C36924F40054DFF848C08E680D68CE
:1036700003EA0C03104F23F4407344EA0634B842C3
:1036800043EA05230BD00D4DA84208D00C4DA842AB
:1036900005D00C4DA84202D00B4DA84204D14D6973
:1036A00022F4804242EA85124260C36149680164A3
:1036B0000462F0BDFF8FFFFE0000014000040140E6
:1036C000004001400044014000480140F0B5164F61
:1036D000164B026A046A984222F4003524F48033BF
:1036E00003624268436D0E890C6803EA070344EAEB
:1036F000030445EA06430BD00D4DA84208D00D4DFA
:10370000A84205D00C4DA84202D00C4DA84204D1CD
:103710004D6922F4803242EA0522426044654968DC
:1037200081650362F0BD00008FFFFEFF00000140D5
:1037300000040140004001400044014000480140B5
:10374000F0B5164F164B026A046A984224F48013AF
:10375000036222F400144268436D0E890D6803EA87
:10376000070344EA065443EA05230BD00D4DA84253
:1037700008D00D4DA84205D00C4DA84202D00C4DEA
:10378000A84204D14D6922F4802242EA8522426097
:1037900043654968C1650462F0BD0000FF8FFFFE0C
:1037A000000001400004014000400140004401408D
:1037B0000048014030B5114C036A056AA04225F06B
:1037C000010404620BD00E4CA04208D00D4CA04264
:1037D00005D00D4CA04202D00C4CA04203D1046A8B
:1037E00024F004040462846923F00A030B4324F0E8
:1037F000F00444EA02118161036230BD000001401F
:1038000000040140004001400044014000480140E4
:1038100030B50D4C036A056AA04225F0100404621D
:1038200002D00A4CA04203D1046A24F0400404628E
:10383000846923F0A00343EA011124F4704444EAAC
:1038400002328261016230BD00000140000401408B
:1038500030B5416EB9B101680D4B03F108048A68B7
:103860008968C2F34262490F5D5C615C2D01B5FB62
:10387000F1F1A0F86A10995CA25C0901B1FBF2F1C8
:10388000A0F8681030BD0121A0F86A10F8E7000028
:10389000AC3F000890F82810090706D50168836B33
:1038A0004A6822F400421A434A6090F82810C90777
:1038B00006D00168C36A4A6822F400321A434A609B
:1038C00090F82810890706D50168036B4A6822F42E
:1038D00080321A434A6090F82810490706D50168DB
:1038E000436B4A6822F480221A434A6090F82810F9
:1038F000C90606D50168C36B8A6822F480521A4350
:103900008A6090F82810890606D50168036C8A68D9
:1039100022F400521A438A6090F82810490611D503
:103920000168436C4A6822F480121A434A60416C71
:10393000B1F5801F06D10168836C4A6822F4C00289
:103940001A434A6090F82810090606D50168C26C2F
:10395000486820F400201043486070472DE9F84380
:1039600000250446C0F89050FDF79AF9804620687B
:1039700020266FF07E470068000713D500224346DB
:1039800031042046009700F03FFA58B1216851E811
:10399000000F20F0800041E80002002AF6D1C4F8B0
:1039A000886021E020680068400722D50022434655
:1039B0004FF480012046009700F026FAC8B1206835
:1039C00050E8001F21F4907140E80012002AF6D15F
:1039D0002068083050E8001F21F0010140E8001283
:1039E000002AF5D1C4F88C60032084F88450BDE827
:1039F000F883C4F88860C4F88C60E5662567002009
:103A000084F88450F3E7000010B5026852E8001F04
:103A100021F4907142E80013002BF6D10E4B02689E
:103A2000083252E8001F194042E80014002CF6D179
:103A3000C16E012908D1026852E8001F21F010016F
:103A400042E80013002BF6D100212022C0F88C2080
:103A5000C166416710BD0000FEFFFFEF2DE9F04396
:103A600004468068D84E87B0D84B2168D4E9042733
:103A7000D4F81CC010430A68002547EA0C073843F5
:103A8000324002430A602068E268416821F44051F4
:103A9000114341602268A1699A4201D0206A014322
:103AA0009768DFF82CC3CB4ECB4807EA0C070F43CF
:103AB00097602168676ACA6A22F00F023A43CA62B5
:103AC0002268B2420ED1006800F03800182873D086
:103AD00047DCB8B3082879D010286FD178E02828BF
:103AE0007ED17BE0BD498A4209D1006800F0070021
:103AF000062875D2DFE800F0546A6C6E7072B8491F
:103B00008A4209D1006800F00700062868D2DFE881
:103B100000F0475D5F616365B2498A4209D1006880
:103B200000F0070006285BD2DFE800F03A5052545C
:103B30005658AD498A420BD1006800F007000628AC
:103B40004ED200E010E0DFE800F02B41434547494A
:103B5000A6498A420AD1006800F03800182839D0F6
:103B6000B7DD2028BBD13CE001203AE0A0498A42E1
:103B700009D1006800F00700062831D2DFE800F024
:103B80001026282A2C2E9B498A420BD1006800F06F
:103B90000700062824D2DFE800F003191B1D1F21AF
:103BA00000201EE09A421BD18B48001D006800F0E7
:103BB0000700062814D202E00CE007E010E0DFE87E
:103BC00000F0030507090B0D02200AE0042008E0BD
:103BD000082006E0102004E0202002E0402000E061
:103BE00080208549DFF814829A42854A4FF40043C9
:103BF0004FEA21174FF000064ED110281AD006DCEC
:103C0000022809D004280BD008287CD10DE02028F8
:103C10003ED0402877D13DE0FDF756F9014610E04F
:103C20006846FDF763F901990BE003A8FDF700FA78
:103C3000049906E01068800605D51068C0F3C1003D
:103C4000C140002970D0606A676838F8102007EB1F
:103C50004703B1FBF2F0834255D8B0EB073F52D88F
:103C6000002308461946FCF78BFB02467808130E22
:103C7000120243EA012110183A4671410023FCF771
:103C80007FFB604AA0F5407191423CD821688FE0EB
:103C90003946D8E71946D6E7D4F81CC04FF6EF7975
:103CA0009C4546D1082819D005DC58B101280CD014
:103CB000042875D10DE0102815D0202835D04028D3
:103CC0006ED134E0FEF77CF801E0FEF78BF8014698
:103CD00010E06846FDF70AF901990BE003A8FDF72B
:103CE000A7F9049906E01068800604D51068C0F3AF
:103CF000C100C140C1B1636A606838F81330B1FBDC
:103D0000F3F1490000E04BE001EB5001B1FBF0F0B2
:103D1000A0F11001494543D84FF6F0732168C0F374
:103D200042021840104343E043E03946E3E71946B6
:103D3000E1E7082819D005DC58B101280CD0042887
:103D40002ED10DE0102815D020282BD0402827D1C7
:103D50002AE0FEF735F801E0FEF744F8014610E0EE
:103D60006846FDF7C3F801990BE003A8FDF760F979
:103D7000049906E01068800604D51068C0F3C100FD
:103D8000C140B1B1636A606838F81330B1FBF3F138
:103D900001EB5001B1FBF0F0A0F11001494505D94C
:103DA000012506E03946EDE71946EBE7216880B2C8
:103DB000C8600120A4F86A00A4F868002846666775
:103DC000A66707B0BDE8F083F369FFCF000C005889
:103DD000FFF4FF1100100140544402580044004019
:103DE00000480040004C00400050004000140140DA
:103DF00000780040007C00400090D003943F000811
:103E000000440258FFFC0F002DE9F0479946174681
:103E10000D460446089E4FF0000833E0701C31D078
:103E2000FCF73EFFA0EB0900B04218D8BEB12068F5
:103E30000168490726D5802D24D0402D22D0C169A4
:103E4000C94309070DD4082505622046FFF7DCFDAC
:103E5000C4F89050012084F88480BDE8F0870320E6
:103E6000FBE7C069C04300050CD421684FF4006033
:103E700008622046FFF7C8FD2021C4F8901084F89E
:103E80008480ECE72068C06935EA000004D0002097
:103E9000B842C3D00020E0E70120F9E7FEE70907B8
:103EA00000284FEA116104DB00F1E02080F80014E3
:103EB000704700F00F0000F1E02080F8141D7047FB
:103EC0001FB500240094019402940394FCF772FF40
:103ED00001208DF80C001F218DF8081087228DF825
:103EE00009208DF80D008DF8000068468DF80A4015
:103EF0008DF80E408DF8014001948DF80B408DF83F
:103F00000F40FCF729FF0420FCF762FFFCF7D6FE08
:103F1000FFF762F9FFF727F8FEF708FFFEF7D4FE78
:103F2000FEF76AFFFEF79CFFFEF7E6FFFEE74FF0A5
:103F30004070E1EE100A7047000102030405060715
:103F4000080C101418203040000000000000000091
:103F50000000000000000000000000000100000060
:103F60000200000003000000040000000000000048
:103F7000050000000000000000000000000000003C
:103F8000060000000000000000000000000000002B
:103F900007000000010002000400060008000A00FB
:103FA0000C0010002000400080000001010101030E
:103FB00007010000080402040801010100000000DC
:103FC000010203040102030406070809EC3F00088C
:103FD0000000002414000000D40200080040000883
:103FE000140000246C080000F0020008010000002A
:103FF00010000000000000000090D0030090D003EB
:040000050800029954
:00000001FF
