:020000040800F2
:10000000F0080020A1010008A9250008C11F000870
:10001000F5240008D1020008E130000800000000CB
:100020000000000000000000000000008127000820
:10003000F503000800000000AB2500088327000836
:10004000BB010008BB010008BB010008BB010008A0
:10005000BB010008BB010008BB010008BB01000890
:10006000BB010008BB010008BB010008BB01000880
:10007000BB010008BB010008BB010008BB01000870
:10008000BB010008BB010008BB010008BB01000860
:10009000D5020008BB010008BB010008BB01000835
:1000A000BB010008BB010008BB010008BB01000840
:1000B000BB010008BB010008BB010008BB01000830
:1000C000BB010008BB010008BB010008BB01000820
:1000D000BB010008BB010008BB010008BB01000810
:1000E000BB010008BB010008BB010008BB01000800
:1000F000BB010008BB010008BB010008BB010008F0
:10010000BB010008BB0100082D280008BB01000846
:10011000BB010008BB010008BB010008392800082A
:10012000BB010008BB010008BB010008BB010008BF
:10013000BB010008BB010008BB010008BB010008AF
:10014000BB010008BB010008BB010008BB0100089F
:10015000BB010008BB010008BB010008BB0100088F
:10016000BB010008BB010008BB010008BB0100087F
:10017000BB010008BB010008BB0100080000000033
:10018000BB010008BB010008DFF810D000F08EF8BA
:1001900000480047FD360008AFF30080F00800205B
:1001A0000648804706480047FEE7FEE7FEE7FEE711
:1001B000FEE7FEE7FEE7FEE7FEE7FEE71D28000894
:1001C000890100082DE9F05F0546002092469B4614
:1001D00088460646814640241BE02846414647465D
:1001E000224600F053F853465A46C01A914110D3A4
:1001F00011461846224600F03AF82D1A67EB01081E
:100200004F4622460120002100F031F817EB00098B
:100210004E41201EA4F10104DFDC484631462A4647
:100220004346BDE8F09F40EA01039B0703D009E085
:1002300008C9121F08C0042AFAD203E011F8013BD2
:1002400000F8013B521EF9D27047D2B201E000F82B
:10025000012B491EFBD270470022F6E710B513466A
:100260000A4604461946FFF7F0FF204610BD202A33
:1002700004DB203A00FA02F1002070479140C2F1FD
:10028000200320FA03F3194390407047202A04DB2F
:10029000203A21FA02F00021704721FA02F3D040FF
:1002A000C2F120029140084319467047064C074DA1
:1002B00006E0E06840F0010394E807009847103436
:1002C000AC42F6D3FFF764FF043800082438000876
:1002D000FEE70000014800F00CBA0000E400002036
:1002E00000B58BB028216846FFF7B6FF144A00928C
:1002F0004FF61422019200204FF6FF720121029264
:100300000590CDE90601CDE903200E20CDE90810C6
:1003100069460C4800F0ECF808B100F06CF80221D6
:10032000084800F06AF808B100F065F8054800F0E8
:10033000D9FB002801D000F05EF80BB000BD000032
:100340002AD5FFFFE400002010B50446084802F05B
:1003500043F958B10021425C6254491CC9B20829D2
:10036000F9D3034802F022F9002010BD012010BD8E
:10037000200300201CB50C0A8DF800108DF80140F8
:100380000C0C090E8DF804208DF805008DF8024044
:100390008DF803108DF8063000208DF807006946AF
:1003A0009DF807200B5C401C1A44C0B28DF8072052
:1003B0000728F5D30822024800F004F81CBD00000D
:1003C000435FA51A00B587B013460022CDE900208F
:1003D0000DF1080C04208CE80D008DF814200A465D
:1003E00006AB6946024800F01AF807B000BD0000ED
:1003F000E4000020704772B6FEE790F82020012A42
:1004000007D0022A05D0416A41F4802141620120CF
:100410007047006842690A43426100207047F0B5A6
:1004200090F820500468A468012D05D0022D03D057
:10043000416A41F4802157E014F0406F01D1E5009A
:100440004FD5C4F301640125A5401D608D684FF4AC
:10045000C0739DB1CE6835434E6845EAC60506684F
:1004600003EB0417F5514FF4C275076805EB04154B
:100470000E697E51097D012905D009E00E88CD68FD
:1004800045EA4655EBE701684E5946F480764E51F1
:100490001179D579567941EA056195792D0445EAB6
:1004A000062529434FF4C676056806EB0416A951C4
:1004B0001178D57841EA0561957852782D0445EA9E
:1004C000022211434FF4C475026805EB0415515123
:1004D000006803EB0411425842F001024250002030
:1004E000F0BD416A41F4001141620120F0BD0000FD
:1004F00010B590F82020012A07D0022A05D0416AC1
:1005000041F480214162012010BD3B48D0F8002217
:1005100042F00102C0F80022D0F8002222F47C52FE
:10052000C0F80022D0F800224B6A42EA0322C0F849
:1005300000220A7D02F01F0301229A40D0F81C32EB
:100540009343C0F81C32CB69B3B9D0F80C32934353
:10055000C0F80C328C894B6864F31F434C6900EB84
:10056000C404C4F840320C890B6864F31F434C691F
:1005700000EBC404C4F84432CB69012B16D1D0F887
:100580000C321343C0F80C320C884B6864F31F43E1
:100590004C6900EBC404C4F840320C89CB6864F3A6
:1005A0001F434C6900EBC404C4F844328B69002B30
:1005B000D0F804320ED01343C0F804320B69002B7C
:1005C000D0F8143208D01343C0F81432096A012954
:1005D00004D008E09343EFE79343F5E7D0F81C120B
:1005E0001143C0F81C12D0F8001221F00101C0F82C
:1005F0000012002010BD000000640040704770B57C
:1006000090F82040012C05D0022C03D0416A41F41F
:10061000802128E0046809B32469A40720D04FF49E
:10062000D874056804EB01142D5915F00405956084
:1006300005682D591AD0ED08556005682C5904F04D
:100640000204D4604FF4DA74056804EB01142E59E7
:1006500006F00F06082E0CD308250DE0E468DCE751
:10066000416A41F400114162012070BD6D0D1560B9
:10067000E3E72D5905F00F05156105682D59C5F300
:100680000725956105682C59240C54614FF4DC72E0
:10069000046802EB0112A4581C700468A458240AD0
:1006A0005C700468A458240C9C700468A258120E54
:1006B000DA704FF4DE72046802EB0112A4581C7168
:1006C0000468A458240A5C710468A458240C9C7122
:1006D0000468A258120EDA71006829B1016941F06C
:1006E00020010161002070BDC16841F02001C1609E
:1006F000F8E72DE9F05F0546006800244669D0F868
:1007000004908768D0F80CB0D0F810A0D0F818800A
:10071000F10748D0F90714D001218160B80703D54B
:10072000284600F00CFA0CE0780702D54FF400647C
:1007300007E0380702D54FF4805402E0284600F065
:10074000FDF9F80516D529684FF480708860B80562
:1007500003D5284600F0F5F90CE0780502D544F4FD
:10076000005407E0380502D544F4804402E02846EE
:1007700000F0E6F9F80316D529684FF48030886058
:10078000B80303D5284600F0DEF90CE0780302D563
:1007900044F4004407E0380302D544F4803402E016
:1007A000284600F0CFF9300707D55FEACB6004D5C3
:1007B0002968102044F40074C86070074FF00807DF
:1007C00007D55FEA0B7004D52868C760284600F09B
:1007D00059F9B00706D52868C068800702D02846B6
:1007E00000F052F9700607D55FEACA6004D529689F
:1007F000102044F480640861B00607D55FEA0A70EF
:1008000004D528680761284600F068F9F00606D587
:1008100028680069800702D0284600F060F9B0031C
:1008200008D55FEAC96005D52968102048602846C8
:1008300000F056F9F00307D55FEA097004D528687F
:100840004760284600F080F9300446D55FEA4970D9
:1008500040D5F00504D55FEAC87001D044F001042A
:10086000B00504D55FEA887001D544F00204700534
:1008700004D55FEA487001D544F00404300529D559
:1008800018F0700F26D008F07000402815D006DC54
:10089000102809D020280AD0302816D10AE0502884
:1008A0000ED0602811D10EE044F008040DE044F0B1
:1008B00010040AE044F0200407E044F0400404E09F
:1008C00044F0800401E044F480742868816921F0D8
:1008D00070018161296804204860002C05D0686A95
:1008E000204368622846FFF789FEBDE8F09F70B597
:1008F000040003D094F8200010B104E0012070BD82
:10090000204600F081F82068016841F00101016093
:1009100000F02CFA0546052604E000F027FA401BFB
:100920000A2811D820684068C007F6D020680168FE
:1009300021F00201016000F019FA05460BE000F019
:1009400015FA401B0A2806D9606A40F4003060623C
:1009500084F82060D2E7206840688007EFD4207ECA
:100960000128206801683DD021F080010160607E8F
:1009700001282068016838D021F040010160A07E84
:1009800001282068016833D021F020010160E07E59
:100990000128206801682ED041F010010160207FFD
:1009A00001282068016829D021F008010160607FDA
:1009B00001282068016824D021F004010160D4E9F5
:1009C00002010843D4E90412114308436168491E37
:1009D00008432168C86100206062012084F820007B
:1009E000002070BD41F08001C0E741F04001C5E743
:1009F00041F02001CAE721F01001CFE741F00801E2
:100A0000D4E741F00401D9E710B586B004461421BB
:100A10006846FFF721FC18492068884229D1174809
:100A20000021026842F000720260006800F000706D
:100A3000059012481038026842F001020260006816
:100A400000F0010005904FF4C05000900220CDE965
:100A5000010103200390092004906946084800F032
:100A600087F800221146142000F024FA142000F028
:100A700013FA06B010BD0000006400404038024088
:100A8000000002407047000000B589B06B4602AA22
:100A90000021FFF7B4FD00281CD19DF800009DF84F
:100AA00001109DF8032008449DF8021011440844E9
:100AB0009DF8041008449DF8051008449DF80610A0
:100AC00008449DF80710C0B2814203D1694602482C
:100AD00001F08BFD09B000BD200300207047704776
:100AE0007047000070B5044690F82000012804D03B
:100AF000606A40F40020606218E0022084F8200060
:100B00002068016821F00101016000F02FF905461D
:100B10000EE000BF00F02AF9401B0A2808D9606ADD
:100B200040F400306062052084F82000012070BD90
:100B300020684068C007EDD1606270BD70477047A3
:100B400070477047704770477047000070B50446A3
:100B500000F00CF90546601C02D0044800780444FB
:100B600000F004F9401BA042FAD370BD0000002041
:100B70002DE9F84FDFF8BCA10022012503264FF034
:100B80000F090AF1040BAAF1040E00BF0B6805FA65
:100B900002F42340A34270D10F7907F00307012F1D
:100BA00001D0022F16D187684FEA420806FA08FCE6
:100BB00027EA0C07D1F80CC00CFA08FC4CEA070C29
:100BC000C0F808C04768A7430C79C4F300149440E8
:100BD0003C4344600C79E443A4070AD0C4684FEA5C
:100BE000420C06FA0CF7BC438F6807FA0CF7274350
:100BF000C7600C7904F00304022C12D1D40800EB76
:100C0000840CDCF820405707FF0E09FA07F824EAA5
:100C10000804D1F8108008FA07F848EA0408CCF86C
:100C2000208004684FEA420C06FA0CF7BC430F79A7
:100C300007F0030707FA0CF7274307604C6814F422
:100C4000403F70D03C4C276847F4804727602468B9
:100C500022F0030704F480440094384C07EB040CA2
:100C6000DCF8084897074FEA177809FA08F7BC43F9
:100C7000334FB84202D1002724E054E0314FB8424C
:100C800001D101271EE0304FB84201D1022719E0FF
:100C90002E4FB84201D1032714E02D4FB84201D1A5
:100CA00004270FE02B4FB84201D105270AE02A4F55
:100CB000B84201D1062705E0284FB84201D10727E5
:100CC00000E0082707FA08F72743CCF80878DAF895
:100CD00000405746D1F804C09C435FEACC2C00D5B5
:100CE0001C433C60DBF800405F46D1F804C09C43E5
:100CF0005FEA8C2C00D51C433C60DEF80040774650
:100D0000D1F804C09C435FEA8C3C00D51C433C6096
:100D1000084F083F3C68D1F804C09C435FEACC3CD4
:100D200000D51C433C60521C102AFFF42FAFBDE8D5
:100D3000F88F0000083C0140443802400030014078
:100D4000000002400004024000080240000C024083
:100D5000001002400014024000180240001C024033
:100D60000AB1816170470904FBE70000014880680F
:100D7000704700000000002070B5040013D0216807
:100D80004CF6CC400860216845F255500860D4E923
:100D9000000141602168A0688860FFF7E7FF054611
:100DA00041F601060DE0012070BD00BFFFF7DEFF38
:100DB000401BB04205D92068C068800701D00320DD
:100DC00070BD2068C0688007F0D121684AF6AA206B
:100DD0000860002070BD00684AF6AA21016000206A
:100DE00070470000024881680278114481607047B2
:100DF000000000200B4810B5016841F4007101604B
:100E0000016841F480610160016841F48071016012
:100E1000032000F06FF80F2000F006F800F024F82F
:100E2000002010BD003C024070B50D4D04464FF44B
:100E30007A712878B1FBF0F00A490968B1FBF0F04B
:100E400000F096FC48B9102C07D200222146501E13
:100E500000F030F800206C6070BD012070BD000013
:100E6000000000200C0000200A4808B5016841F489
:100E700080410160006800F4804000900548001F38
:100E8000016841F080510160006800F080500090DE
:100E900008BD000044380240002809DB00F01F02B2
:100EA000012191404009800000F1E020C0F80011CC
:100EB00070470000F0B40E4B1B680C46C3F30223CE
:100EC000C3F10705042D00D90425191D072901D2F6
:100ED000002300E0DB1E012606FA05F1491E214031
:100EE00099409E40761E16403143F0BC02F0F9B89E
:100EF0000CED00E0064900F0070208684FF6FF031A
:100F0000184040EA0220034A10430860704700007E
:100F10000CED00E00000FA052DE9F0470E46050053
:100F200065D0DFF81481D8F80000F7B200F00700B0
:100F3000B04207D288F80070D8F8000000F007002F
:100F4000B04254D128683D4C810712D5400703D5E3
:100F5000206840F4E05020602878000703D520681E
:100F600040F4604020602068A96820F0F000084349
:100F700020602878C0072DD03049686808390128DA
:100F800012D0022813D0032811D00968890700293C
:100F90002DDA216821F0030101432160FFF7E6FE0D
:100FA000814641F2883A0EE009688903EFE7096853
:100FB0008901ECE7FFF7DAFEA0EB0901514502D900
:100FC0000320BDE8F0872068696800F00C00B0EBF2
:100FD000810FEFD1D8F80010404601F00701B1426F
:100FE00007D90770006800F00700B04201D0012067
:100FF000E7E72878400705D52068E96820F4E05045
:10100000084320602878000706D52068296920F465
:10101000604040EAC100206000F038F82168084ACA
:10102000C1F30311515CC8400649086006480068D6
:10103000FFF7FAFE0020C4E7003C024008380240F7
:101040004A3700080C00002004000020044805492D
:1010500000680968044AC1F38221515CC8407047A6
:101060000C000020083802405A370008044805499F
:1010700000680968044AC1F34231515CC8407047B6
:101080000C000020083802405A370008154810B5F7
:10109000006810F00C02144813D04110042A0FD03D
:1010A000082A0ED10F4C241F2268236802F03F0249
:1010B0005B0207D52068C0F38810A0FB010106E0A1
:1010C000084610BD2168C1F38811A1FB000100236F
:1010D000FFF778F82168C1F30141491C4900B0FBD2
:1010E000F1F010BD083802400024F4002DE9F84F5B
:1010F00004006ED02078DFF84C93C007A9F10405F6
:101100004AD009F104000168C1F38101012908D026
:101110000068C0F3810002280AD1D9F8000040021B
:1011200006D52868800337D560680028E1D033E011
:101130006068B0F5803F10D0B0F5A02F286810D0BF
:1011400020F480302860286820F4802028606068BF
:10115000A8B1FFF70BFE06460DE0286840F480308A
:10116000F4E740F480202860F7E700BFFFF7FEFDBA
:10117000801B642873D828688003F7D50CE0FFF73C
:10118000F5FD064605E000BFFFF7F0FD801B642873
:10119000F0D828688003F7D42078DFF8AC82800785
:1011A0004FF0000A3ED5A748001D016811F00C0F52
:1011B00008D00068C0F3810002280BD1D9F80000E4
:1011C000400207D42868800716D5E068012800D1BE
:1011D00012E033E1E068B8B10120C8F80000FFF781
:1011E000C5FD064605E000BFFFF7C0FD801B0228D5
:1011F000C0D828688007F7D52868216920F0F80052
:1012000040EAC10028600DE0C8F800A0FFF7AEFD7D
:10121000064604E0FFF7AAFD801B02281FD82868B5
:101220008007F7D42078000722D5864F8748616968
:10123000703771B101210160FFF798FD064604E0A7
:10124000FFF794FD801B022809D838688007F7D57E
:101250000EE0C0F800A0FFF789FD064605E082E039
:10126000FFF784FD801B02287DD838688007F7D4FB
:101270002078400768D5DFF8CCB100270BF13C0B94
:10128000DBF80000C0000BD4DBF8001041F0805107
:10129000CBF80010DBF80000012700F08050009030
:1012A0006B4E3068C00510D4306840F480703060F8
:1012B000FFF75CFD009005E0FFF758FD0099401A2C
:1012C000022850D83068C005F6D55E4EA0686C364E
:1012D00001280FD00528306810D020F001003060C0
:1012E000306820F004003060A068B8B1FFF73EFD20
:1012F00000900FE0306840F00100F4E740F0040097
:101300003060F7E7FFF732FD0099411A41F288306B
:10131000814266D830688007F4D50EE0FFF726FDDD
:10132000009007E0FFF722FD0099411A41F2883052
:10133000814256D830688007F4D42FB1DBF8001012
:1013400021F08051CBF80010A069C8B33D49091DB8
:101350000968C1F3810102294AD00228504607D00A
:10136000C8F8600000E03CE0FFF700FD04463BE009
:101370004746C8F86000FFF7F9FC064605E000BFE5
:10138000FFF7F4FC801B02282BD828688001F7D4D3
:10139000D4E907010843A16A2E4A490802EB01413A
:1013A000626A41EA8211084394F82C1040EA016114
:1013B000C9F8001001203866FFF7D8FC044606E0A3
:1013C0003EE000BFFFF7D2FC001B022809D82868C6
:1013D0008001F7D534E000BFFFF7C8FC001B0228EE
:1013E00002D90320BDE8F88F28688001F4D427E0F3
:1013F0000128F7D0D9F80000E26900F48001914299
:101400001CD1226A00F03F01914217D147F6C0710A
:10141000626A0140B1EB821F10D1A26A4FF0FF3324
:1014200000F4403103EB5202B1EB024F06D194F8C5
:101430002C1000F07060B0EB016F01D00120D1E7FB
:101440000020CFE70438024000004742800E4742A8
:10145000007000400000FFFF70B5040009D0606A12
:10146000002540B125616561A56294F8510040B145
:101470000CE0012070BD6068B0F5827FF4D0E561BA
:10148000F2E784F85050204600F044F8022084F837
:1014900051002068016821F040010160A088218985
:1014A00000F4827001F404410843A18901F4006151
:1014B0000843217C01F002010843217D01F0010174
:1014C0000843218B01F400710843217F01F03801AA
:1014D000084394F8201001F080010843218D01F4A5
:1014E0000051084321680860A069042101EA104006
:1014F00094F8241001F01001084321684860206826
:10150000C16921F40061C1616565012084F8510061
:10151000002070BD10B586B0044614216846FEF761
:101520009BFE14492068884221D11348002102689B
:1015300042F400420260006800F4004005900E484A
:101540001038026842F004020260006800F00400F3
:1015500005904FF4E05000900220CDE901010320F6
:1015600003900620049069460448FFF701FB06B08B
:1015700010BD0000003C004040380240000802401E
:101580002DE9FF4F81B01D46934604464FF00109F7
:101590000E9EFFF7EBFB074694F8510061680128A7
:1015A00006D0B1F5827F3CD1A168C9BB042838D1EF
:1015B0000298002871D0BBF1000FFBD0002DF9D0AC
:1015C00094F8500001282CD04FF0010A84F850A064
:1015D00094F85100042802D0052084F851004FF0FF
:1015E0000008C4F85480C4F838B0E587A58702998C
:1015F0002163E586A586C4F84080C4F8448020684D
:101600000168490603D4016841F040010160E068C7
:10161000B0F5006F606808D0F0B3012D49D081E0CB
:10162000FFE7022005B0BDE8F08F08B1012D39D1E8
:10163000206B21680088C860206B801C2063E08ECE
:10164000401EE0862EE02068816889070FD5E18E74
:1016500069B1B9F1010F0AD1216B0988C160206B12
:10166000801C2063E08E401EE0864FF00009206859
:101670008168C9070CD0E18F51B1C068A16B0880A7
:10168000A06B801CA063E08F401EE0874FF0010933
:10169000FFF76CFBC01B01E00BE067E0B04201D339
:1016A000701C50D1E08E0028CDD1E08F0028CAD127
:1016B0003EE0206B216800780873206B401C20639B
:1016C000E08E401EE0862DE02068816889070FD5F6
:1016D000E18E69B1B9F1010F0AD1216B097801736B
:1016E000206B401C2063E08E401EE0864FF0000916
:1016F00020688168C9070CD0E18F51B1C068A16B27
:101700000870A06B401CA063E08F401EE0874FF084
:101710000109FFF72BFBC01BB04202D3701C01D0A4
:1017200011E086B1E08E0028CED1E08F0028CBD129
:101730003A463146204600F08FFF50B120206065C8
:1017400084F8508012E084F851A084F8508003207F
:1017500068E7A06818B92068C1688068009084F8BC
:1017600051A084F85080606D0028F1D0012059E725
:1017700010B5401EB0F1807F01D3012010BD4FF0A5
:10178000E02460610F21601701F0ABFC0020A06134
:1017900007202061002010BD7047704770B590F899
:1017A0003C20012A32D0012480F83C40022280F8FB
:1017B0003D2003685A689D6822F070060A6832432B
:1017C0005A60134B02689A4214D0B2F1804F11D084
:1017D000104B9A420ED0104B9A420BD00F4B9A42AC
:1017E00008D00F4B9A4205D00E4B9A4202D00E4BB6
:1017F0009A4204D1496825F080031943916080F82A
:101800003D40002180F83C10084670BD022070BDAC
:10181000000001400004004000080040000C0040AF
:1018200000040140004001400018004010B50400D1
:1018300003D094F83D0010B107E0012010BD002056
:1018400084F83C00204600F01FF8022084F83D0098
:10185000211D206801F000F8012084F8460084F87A
:101860003E0084F83F0084F8400084F8410084F88A
:10187000420084F8430084F8440084F8450084F86A
:101880003D00002010BD000008B501682448B1F1FA
:10189000804F0BD0234A914210D1016841F00201E0
:1018A0000160006800F00200009008BD016841F08E
:1018B00001010160006800F00100F5E71A4A914259
:1018C00007D1016841F004010160006800F00400E4
:1018D000EAE7164A91420ED1016841F00801016021
:1018E0000068002200F00800009004213220FFF779
:1018F000E1FA322010E00E4A9142D6D1016841F05F
:10190000200101600068002200F020000090022108
:101910003720FFF7CFFA3720BDE80840FFF7BCBA01
:10192000403802400004004000080040000C004025
:101930000014004090F83D10012901D001207047AB
:10194000022180F83D100168CA6842F00102CA60B5
:1019500000681149884214D0B0F1804F11D00F496E
:1019600088420ED00E4988420BD00E49884208D0DA
:101970000D49884205D00D49884202D00C49884261
:1019800004D1816801F00701062903D0016841F004
:101990000101016000207047000001400004004088
:1019A00000080040000C00400004014000400140DD
:1019B0000018004070B5044690F83C00002501284E
:1019C00017D0012684F83C60022084F83D0020688E
:1019D000826822F0770222F47F42826008685028F1
:1019E00038D00DDC20284FD005DC90B3102811D161
:1019F0004AE0022070BD302846D040280AD13BE0A2
:101A000060282FD070280DD0B0F5805F03D0B0F5DE
:101A1000005F12D0012584F83D60002084F83C006E
:101A2000284670BDCB68D1E90121206800F089FF0C
:101A30002068816841F0770109E0CB68D1E9012194
:101A4000206800F07EFF2068816841F48041816059
:101A5000E1E719E0CA684968206801F047F85021B9
:101A6000206806E0CA684968206801F050F86021E3
:101A7000206800F070FFCEE7CA684968206801F06E
:101A800035F840212068F4E7226801461046F0E767
:101A900070472DE9F04104460068C66805694FF0BB
:101AA0000007A90713D5B10711D5F91E016101205F
:101AB0002077206880698007204602D0FFF7E8FF82
:101AC00004E000F0D3F8204600F091F9277768078A
:101AD00016D5700714D521686FF004000861022044
:101AE00020772068806910F4407F204602D0FFF7FD
:101AF000CFFF04E000F0BAF8204600F078F927772D
:101B0000280715D5300713D521686FF00800086144
:101B1000042020772068C0698007204602D0FFF7A4
:101B2000B7FF04E000F0A2F8204600F060F9277744
:101B3000E80616D5F00614D521686FF0100008618C
:101B4000082020772068C06910F4407F204602D02A
:101B5000FFF79EFF04E000F089F8204600F047F907
:101B60002777E80708D0F00706D021686FF001005A
:101B70000861204600F0A0F9280608D5300606D5F1
:101B800021686FF0800008612046FFF705FE6806B7
:101B900008D5700606D521686FF040000861204620
:101BA00000F09CF9A8060AD5B00608D521686FF0A8
:101BB000200008612046BDE8F041FFF7EEBDBDE81A
:101BC000F081000070B586B0044614216846FEF727
:101BD00043FB24680022204902232048B4F1804FAF
:101BE00016D01F4E4025B44223D1086840F00400AF
:101BF000086008680095CDE9013200F00400CDE9E5
:101C00000430694603921748FEF7B2FF06B070BD74
:101C10000C6844F002040C60096801F002010591AF
:101C20004FF480610091CDE901320121CDE903211A
:101C300010E00D4EB442E9D10C6844F002040C608F
:101C40000968009501F002010591CDE901320321F7
:101C5000CDE903136946D7E730380240000402405B
:101C6000000400400008024000080040704770B5C2
:101C70000D46040003D094F83D0010B107E00120A8
:101C800070BD002084F83C00204600F01BF80220C4
:101C900084F83D00211D206800F0DEFD2068016809
:101CA00021F00801016054F8460B016829430160E6
:101CB000012004F81F09E0752076E0762077A075F2
:101CC000002070BD704770B5044690F83C000026B7
:101CD0000D4601280FD0012084F83C006AB1042A87
:101CE0001DD0082A2FD00C2A3FD00126002084F8CE
:101CF0003C00304670BD022070BD206800F034FE0C
:101D00002068816941F0080181612068816921F0C2
:101D100004018161206881692A69114311E020680A
:101D200000F052FE2068816941F400618161206801
:101D3000816921F480618161206881692A6941EAB1
:101D400002218161D2E7206800F074FE2068C16939
:101D500041F00801C1612068C16921F00401C1613D
:101D60002068C1692A69114311E0206800F096FEDD
:101D70002068C16941F40061C1612068C16921F432
:101D80008061C1612068C1692A6941EA0221C1619B
:101D9000ACE710B5040003D094F83D0010B107E0A3
:101DA000012010BD002084F83C00204600F01EF801
:101DB000022084F83D00211D206800F04DFD012027
:101DC00084F8460084F83E0084F83F0084F8400020
:101DD00084F8410084F8420084F8430084F8440009
:101DE00084F8450084F83D00002010BD704770471E
:101DF00010B50446022249B104290ED0082913D097
:101E000094F84100012816D0012010BD94F83E003E
:101E10000128F9D184F83E200FE094F83F00012812
:101E2000F2D184F83F2008E094F840000128EBD17B
:101E300084F8402001E084F841200122206800F06D
:101E400073FD16492068164A884201D0904203D19A
:101E5000436C43F4004343642068884213D0B0F1DC
:101E6000804F10D00F4988420DD00F4988420AD0C8
:101E70000E49884207D0904205D00D49884202D0D1
:101E80000C49884204D1816801F00701062903D07A
:101E9000016841F001010160002010BD0000014017
:101EA000000401400004004000080040000C004015
:101EB000004001400018004010B500680449884205
:101EC00005D10448FEF787FF03490120087010BDC3
:101ED000000C00400C01002010000020704770B57D
:101EE000040004D094F84100002510B106E0012060
:101EF00070BD84F84050204600F024F8242084F877
:101F000041002068C16821F40051C160204601F001
:101F100061F82068016921F49041016120684169FC
:101F200021F02A0141612068C16841F40051C1607B
:101F30006564202084F8410084F842006563002035
:101F400070BD000010B586B0044614216846FEF747
:101F500083F918492068884229D11748002102686E
:101F600042F010020260006800F010000590124874
:101F70001438026842F001020260006800F00100BB
:101F800005904FF4C06000900220CDE901010320CC
:101F900003900720049069460848FEF7E9FD0022F7
:101FA00001212520FEF786FF2520FEF775FF06B0EC
:101FB00010BD000000100140443802400000024003
:101FC000FEE70000114810B50F490160062141608D
:101FD00000214FF08072C0E902124FF4202202610A
:101FE0004FF4801242610176012242768176C176F9
:101FF00001774177FEF77BFC002803D0BDE8104055
:10200000FEF7F9B910BD000000640040E4000020B4
:102010002DE9F04F87B014216846FEF71DF95E48A0
:102020000024016841F080010160016801F0800135
:102030000591016841F001010160016801F00101B1
:102040000591016841F002010160016801F002019F
:102050000591016841F020010160016801F0200153
:102060000591016841F004010160016801F004017B
:102070000591016841F008010160016801F0080163
:102080000591016841F0400101600068434F00F094
:1020900040000590012202213846FEF761FE002231
:1020A00004213846FEF75CFEDFF8F4B0012242F26C
:1020B00003015846FEF754FEDFF8E8804FF400565F
:1020C000002231464046FEF74BFE00227110584672
:1020D000FEF746FEDFF8D090012224214846FEF7A5
:1020E0003FFE002218214846FEF73AFEDFF8BCA06A
:1020F000012231465046FEF733FE062000900125AE
:10210000CDE90154694638460394FEF731FD43F2A8
:1021100003000090CDE90154694658460394FEF748
:1021200027FD4FF4C057CDE900746946404602943C
:10213000FEF71EFD0096CDE9015469464046039422
:10214000FEF716FD02208DE8310069464846FEF78D
:102150000FFD3C200090CDE90154694648460394A8
:10216000FEF706FDCDE90074694650460294FEF77D
:10217000FFFC0096CDE90154694650460394FEF7F2
:10218000F7FC8020CDE90004694658460294FEF72A
:10219000EFFC07B0BDE8F08F30380240000002408D
:1021A0000004024000140240000C024000180240EB
:1021B000094810B507490160032141604FF4FA61F5
:1021C0008160FEF7D9FD002803D0BDE81040FEF77E
:1021D00012B910BD003000400C010020104810B5AD
:1021E0000E4901604FF4827141600021022281603A
:1021F000C0E9031201224261520282611822C0E941
:102200000721416281620A21C162FFF725F9002896
:1022100003D0BDE81040FEF7EEB810BD003C004012
:102220001801002010B58EB000240794089409947A
:102230000A940B941C2168460C94FEF70DF8224872
:102240004FF08041016042F2CF01C0E9011442F237
:102250000F71C0E903148461FFF7E8FA08B1FEF7D3
:10226000CAF84FF48050079007A91748FFF7A2FB60
:1022700008B1FEF7C0F81448FFF78BFD08B1FEF770
:10228000BAF808211048FFF7F2FC08B1FEF7B3F8DE
:102290000B940BA90C480C94FFF780FA08B1FEF7D9
:1022A000AAF86020CDE90004029408226946064895
:1022B0000494FFF708FD08B1FEF79DF80248FFF708
:1022C00081FC0EB010BD00007001002010B58EB072
:1022D00000240794089409940A940B941C216846DE
:1022E0000C94FDF7B9FF2248204901602921C0E97B
:1022F00001144FF6FF71C0E903148461FFF796FAE9
:1023000008B1FEF778F84FF48050079007A91848F5
:10231000FFF750FB08B1FEF76EF81548FFF739FDDF
:1023200008B1FEF768F808211148FFF7A0FC08B1D2
:10233000FEF761F80B940BA90D480C94FFF72EFAE9
:1023400008B1FEF758F86020CDE90004029400229D
:10235000694607480494FFF7B6FC08B1FEF74BF84E
:102360000348FFF72FFC0EB010BD00000004004032
:10237000B801002010B58EB0002407940894099489
:102380000A940B941C2168460C94FDF765FF1F48C6
:102390001D49C0E900140521C0E902418021046102
:1023A0008161FFF743FA08B1FEF725F84FF480503A
:1023B000079007A91548FFF7FDFA08B1FEF71BF8CB
:1023C0001248FFF7E6FC08B1FEF715F80B940BA9CD
:1023D0000E480C94FFF7E2F908B1FEF70CF8602004
:1023E00000900320CDE901040420049000226946F6
:1023F0000648FFF768FC08B1FDF7FDFF0348FFF74B
:10240000E1FB0EB010BD00000008004000020020FB
:1024100010B586B0002417480094019402940394E8
:10242000049413490594016042F2CF01C0E90114FC
:1024300041F28731C0E903148461FFF7F7F908B16D
:10244000FDF7D9FF4FF48050009069460948FFF727
:10245000B1FA08B1FDF7CFFF049404A9054805942B
:10246000FFF79CF9002801D0FDF7C5FF06B010BDAD
:10247000000C0040480200201CB500240E480094C7
:102480000C49019401605321C0E901146321846166
:10249000C160FFF7CBF908B1FDF7ADFF00946946C5
:1024A00005480194FFF77AF9002801D0FDF7A3FF52
:1024B0001CBD000000140040900200200C4810B524
:1024C0000A4901604FF4E1314160002181600C2232
:1024D000C160C0E904128161C161FFF700FD0028FD
:1024E00003D0BDE81040FDF786BF10BD00100140CD
:1024F000D8020020FEE700002DE9F04100279046B9
:10250000054601280CD0022D47D1254C002C44D083
:102510000126062941D2DFE801F040050E162029E8
:10252000204CF3E71946204600F01CFB41462046AC
:1025300000F059FC05E01946204600F013FB414627
:1025400007E0A67016E01946204600F00BFBC8F124
:102550000001204600F03CFCF3E71946204600F05D
:1025600001FB4146204600F0C9FC03E0204600F094
:10257000DAFCA770204600F049FB0746204600F031
:1025800065FB0646204600F05BFB01463B463246B3
:102590002846BDE8F041FDF7EDBEBDE8F081000042
:1025A0001C00002019000020FEE7704790F9801100
:1025B0004A1C05D090F98121914203D1FF2107E007
:1025C000012070473022491C91FBF2F302FB1311EA
:1025D00080F880110020704790F980114A1C02D0C9
:1025E00000EBC10070470020704730B50D4604462F
:1025F00000F022F808B1012030BD94F981013021AA
:10260000401C90FBF1F201FB120084F881010020D4
:1026100094F98121295C04EBC2021154401CC0B220
:102620000828F5D394F98001401C03D194F8810166
:1026300084F88001002030BD90F981113022491CBE
:1026400091FBF2F302FB131190F98001814201D159
:102650000120704700207047F8B515460E460B461E
:10266000009204460122022100F02CF8A0B9134880
:1026700013490068B0FBF1F04FF47A7148430090C1
:102680006068B0F5827F0DD133460022802120465C
:10269000009500F017F870B1606D40F020006065A3
:1026A0000320F8BD009830B1401E0090206880687B
:1026B000C0430006F6D50020F8BD00000C00002045
:1026C00000366E012DE9F8431E46914688460446C1
:1026D000089DFEF74BFB401B351AFEF747FB0746EC
:1026E00026480068C0F3CB3068430AE0701C09D06C
:1026F000FEF73CFBC01BA8420FD275B10098B8B3DF
:10270000401E00902068816838EA010033D0002123
:102710004945EBD10020BDE8F8832068416821F0ED
:10272000E00141606068B0F5827F0BD1A068B0F530
:10273000004F02D0B0F5806F04D12068016821F00D
:1027400040010160A06AB0F5005F09D1206801680E
:1027500021F4005101602068016841F400510160DA
:10276000012084F85100002084F850000320D2E7B3
:10277000FFE70025C6E70121CAE700000C000020A2
:102780007047FEF72FBB000030B593B0302168468C
:10279000FDF762FD14210CA8FDF75EFD1D48002524
:1027A000016841F080510160006800F08050119094
:1027B0001948016841F4804101600068022400F476
:1027C00080401190092000904FF48030019001204A
:1027D000CDE905048005079008AA0420542182E869
:1027E00013000B906846FEF781FC08B172B6FEE755
:1027F0000CA90F2081E831004FF480500F90109009
:1028000002210CA8FEF788FB002801D072B6FEE773
:1028100013B030BD403802400070004002480168EB
:1028200041F470010160704788ED00E00148FFF756
:1028300030B9000048020020054800680169C90756
:1028400005D06FF001010161024800680047704740
:102850009002002048000020F0B50268274B284D68
:10286000284E294F294C4FF0804C984209D06045A2
:1028700007D0A84205D0B04203D0B84201D0A04250
:1028800004D122F0700E4A6842EA0E0298421BD030
:10289000604519D0A84217D0B04215D0B84213D025
:1028A000A04211D01A4DA8420ED01A4DA8420BD00A
:1028B000194DA84208D0194DA84205D0184DA8427C
:1028C00002D0184DA84203D122F44075CA682A43A9
:1028D0004D6922F080022A438D68C5620D688562C9
:1028E000984201D0A04201D109690163016841F019
:1028F00004010160012141610260F0BD000001405E
:102900000004004000080040000C004000040140AA
:1029100000400140004401400048014000180040D0
:10292000001C00400020004010B501F01F030121F1
:10293000046A99408C430462016A9A40114301621F
:1029400010BD10B5846842EA032224F47F440A4390
:102950002243826010BD826822F070020A4342F076
:102960000701816070470000F0B5036A026A22F037
:102970000102026242688469124E24F073050C68F9
:102980002C4323F002058B682B430D4DA84201D048
:10299000B04205D123F00807CB683B4323F0040382
:1029A000A84201D0B04205D14D6922F440721543CE
:1029B0008A692A4342608461496841630362F0BDC9
:1029C0000000014000040140F0B5026A036A23F0F0
:1029D00010030362436884690D6824F4E64444EA02
:1029E00005248D6822F0200242EA05120F4D104E98
:1029F000A84201D0B04206D1CF6822F0800242EA5C
:102A0000071222F04002A84201D0B04207D14D691E
:102A100023F4406343EA85038D6943EA85034360F9
:102A20008461496881630262F0BD000000000140DA
:102A300000040140F0B5026A036A23F48073036264
:102A40004368C46922F4007224F073050C68124EC6
:102A50002C438D6842EA05220E4DA84201D0B042B7
:102A600006D1CF6822F4006242EA072222F4806293
:102A7000A84201D0B04207D14D6923F4405343EA44
:102A800005138D6943EA05134360C4614968C16356
:102A90000262F0BD000001400004014030B5046A4C
:102AA000026A22F4805202624268C3690D6823F40C
:102AB000E64343EA05238D6824F4005444EA0534D0
:102AC000084DA84202D0084DA84204D14D6922F415
:102AD000804242EA85124260C3614968016404622F
:102AE00030BD0000000001400004014010B5036A41
:102AF000046A24F001040462846924F0F00444EAC6
:102B0000021423F00A020A438461026210BD10B568
:102B1000036A046A24F010040462846923F0A003A9
:102B200024F4704444EA023243EA011182610162F2
:102B300010BD000010B50848FEF7FCFE0748FEF780
:102B4000F9FE0749032009684863BDE810400021E9
:102B50000348FFF74DB90000480200209002002012
:102B60000002002070B5054609B1042900D90121F1
:102B700001EBC100194901EB8004232154F8242DF5
:102B8000284600F0DDF92B212846626800F0D8F9CC
:102B900025212846A26800F0D3F924212846E268BE
:102BA00000F0CEF926212846226900F0C9F9272134
:102BB0002846626900F0C4F928212846E26900F03D
:102BC000BFF92A212846A26900F0BAF92846226AEC
:102BD000BDE870402C2100F0B3B900007437000844
:102BE00010B504460022382100F0AAF9064A3A211D
:102BF000204600F0A5F92046BDE810404FF4807251
:102C00003D2100F09DB90000CDCC0C0010B5002492
:102C1000352100F0F7F8810600D50124410601D5E1
:102C200044F00204010601D544F00404410501D535
:102C300044F00804C00701D044F01004204610BD41
:102C4000212100F0DFB8352100F0DCB82DE9F0419A
:102C500080460024352100F0D5F807466F21404614
:102C600000F0D0F806460121404600F0CBF80546BA
:102C70003B21404600F0C6F8791C15D0711C13D0DA
:102C8000691C11D0B90500D50124800701D544F095
:102C90000204B00F01D044F00404A80701D544F0A9
:102CA00008042046BDE8F0811020FBE72DE9FC5F19
:102CB0001F490024DFF87CA0D1E90001DFF878B0DB
:102CC0002746E8464FF00109CDE9000158F82450A5
:102CD000661C28462E7085F80190AF7000F032F81F
:102CE0004FF0000204B31548022100BFFEF738F888
:102CF00007220121284600F023F90422002128465A
:102D000000F01EF952466C21284600F019F92846B9
:102D1000FFF766FF5A461021284600F011F9F4B279
:102D2000022CD3D3BDE8FC9F4FF400510448DDE7EB
:102D30006C370008C50101000610060000040240BF
:102D40000018024070B50178012902D002291AD07A
:102D500037E040781C4C012804D0022804D0032816
:102D60001CD109E0002200E0012208212046FDF7E5
:102D7000F7FF0122042121E0012208212046FDF76E
:102D8000EFFF0022F6E740784FF480510F4C4D00E2
:102D9000012805D0022805D0032809D0012070BDE4
:102DA000002200E001222046FDF7DAFF012204E0C4
:102DB00001222046FDF7D4FF002229462046FDF7D8
:102DC000CFFF002070BD0000000C02400004024054
:102DD00070B50C460546FFF733FF01192846BDE8DC
:102DE0007040AFF3008070B50C46054600222021EC
:102DF00000F0A6F822462846BDE870402D2100F0DC
:102E00009FB8000070B586B001F07F018DF80C10FE
:102E100000218DF80D108DF80E108DF80F108DF823
:102E2000101000784C1E012802D0022827D050E054
:102E30002F4D002220212846FDF792FF052301AAED
:102E400003A92C480094FEF79BFB06460122202193
:102E50002846FDF785FFE6BB0120FDF777FE00223F
:102E600020212846FDF77CFF052301AA03A921485C
:102E70000094FEF785FB01220646202125E01E4D29
:102E8000002201212846FDF76BFF052301AA03A9B3
:102E900018480094FEF774FB0646012211462846A6
:102EA000FDF75EFFAEB90120FDF750FE00220121C3
:102EB0002846FDF755FF052301AA03A90D480094F4
:102EC000FEF75EFB0122064611462846FDF748FF45
:102ED00016B1204606B070BDBDF805009DF807107C
:102EE00040BA000440EA01209DF808100843F1E7C9
:102EF000000C0240180100200004024070B50C00D4
:102F0000054605D40122202100F01AF8224604E0EB
:102F10000222202100F014F862422846BDE87040E9
:102F2000272100F00DB810B504460022272100F03B
:102F300007F820460022BDE810402021AFF30080B2
:102F400030B585B041F080018DF80410110E8DF878
:102F50000510110C8DF80610110A8DF807108DF868
:102F6000082000784FF0FF34012802D0022811D049
:102F700024E0154D002220212846FDF7F1FE05230F
:102F800003AA01A911480094FEF7FAFA01220446A7
:102F900020210FE00E4D002201212846FDF7E0FE22
:102FA000052303AA01A909480094FEF7E9FA0122C2
:102FB000044611462846FDF7D3FE14B1012005B0A2
:102FC00030BD0020FBE70000000C0240180100208B
:102FD0000004024070B5044600680169E26821F40B
:102FE0004051114301612169A068E26908436169A8
:102FF000114308432168CA6849F20C639A430243AB
:10300000CA6020684169A26921F44071114341619D
:1030100031492068884202D03049884202D1FEF707
:1030200025F801E0FEF712F8E26900231921642572
:103030003226B2F5004F626828D0A0FB0101930F41
:103040009200FDF7BFF80146B0FBF5F06FF01802F3
:10305000504301EB800006EB0010B0FBF5F000F0F0
:10306000F002B1FBF5F002EB0012B1FBF5F06FF0EE
:103070001803584301EB800006EB0010B0FBF5F09D
:1030800000F00F0021681044886070BDA0FB0101B2
:1030900092185B41FDF796F80146B0FBF5F002018E
:1030A000B1FBF5F06FF01803584301EB800006EB1D
:1030B000C000B0FBF5F000F0F80002EB4002B1FBFD
:1030C000F5F0584301EB800006EBC000B0FBF5F0D3
:1030D00000F00700D6E70000001001400014014096
:1030E000FEE70907090E002804DB00F1E02080F864
:1030F0000014704700F00F0000F1E02080F8141D6C
:10310000704702E008C8121F08C1002AFAD17047B0
:103110007047002001E001C1121F002AFBD1704757
:1031200070B50C460988002505292FD1417840F259
:10313000CF760A0281781143C278491C13020279C2
:1031400089B21A43531EB34220D2002323800123A5
:1031500000F8013B2688761C2680560703D003EB37
:10316000D203DEB201E0C2F3C70600F8016B238888
:103170005B1C2380002300F0A3F918B100F0D9FAFA
:10318000054604E020883044208000E003252846DE
:1031900070BD70B50C460988002505292FD14178EE
:1031A00040F2CF760A0281781143C278491C13029B
:1031B000027989B21A43531EB34220D200232380DE
:1031C000022300F8013B23885B1C2380530704D0B3
:1031D000012303EBD203DEB201E0C2F3C70600F81D
:1031E000016B23885B1C238000F0B8F918B100F054
:1031F000A0FA054604E020883044208000E0032542
:10320000284670BD70B50C4609880026052925D1D1
:10321000417805790A0281781143491C6A1E89B2F6
:103220007C2A1BD800222280032200F8012B22884E
:103230000023521C22806A0000F8012B2288521CB5
:1032400022802A4600F0CAF918B100F072FA064648
:1032500005E0208800EB4500208000E00326304692
:1032600070BD70B50C4609880026052927D1417824
:1032700005790A0281781143C278491C45EA022582
:103280006A1E89B27C2A1AD200222280042200F807
:10329000012B2288521C22806A0000F8012B228810
:1032A000521C22802A4600F0C5F918B100F041FAFC
:1032B000064605E0208800EB4500208000E003265C
:1032C000304670BD2DE9F0410446088800270D46C0
:1032D0000A2842D3607826790102A078227A08432E
:1032E000401C1FFA80F8E07846EA00266079731ED9
:1032F0000102A0790843401C81B2E0797C2B42EAAC
:103300000022607A28D83AB3792A25D8B0EB420F48
:1033100022D1012304F10A0000F060F998B90021DC
:103320002980172121702988601C491C298071007F
:1033300000F8011B29880023491C29803246414698
:1033400000F04CF918B100F0F4F9074605E02888C0
:1033500000EB4600288000E003273846BDE8F081F6
:1033600070B5064C0D4606492288401CFCF75BFFF1
:103370002088401C2880002070BD0000CC00002068
:10338000A204002038B50988002405290BD1417812
:103390000A0281781143491C027989B21AB9C278AC
:1033A000FF2A03D012B10324204638BD00228DF835
:1033B0000120C078FF280CD08DF8002001231A4688
:1033C000684600F07DF80028EED000F0B2F904461F
:1033D000EAE701208DF80000F0E710B50988002425
:1033E000052902D00324204610BD417801230A029A
:1033F0008178C01C1143491C89B21A4600F0EEF8CE
:103400000028F0D000F095F90446ECE72DE9F041F2
:103410000D4609880024052926D9417843790A02F6
:1034200081781143491C8EB2C178027942EA0122A7
:10343000510704D0012101EBD201C9B201E0C2F36E
:10344000C701571EB7F5F66F0ED299420CD1012372
:103450003146801D00F034F818B100F06AF90446D6
:1034600003E00520288000E003242046BDE8F08129
:1034700070B50D460988002406291DD341780A023B
:1034800081781143C278491C1302027989B21A4328
:103490004379561E772E0FD85606360E9E420BD114
:1034A0000123801D00F09AF818B100F042F904469B
:1034B00003E00520288000E00324204670BD0000C2
:1034C000F0B5491E89B28C180A2C01D90120F0BD33
:1034D000541EE51704EB5575012404EBE5061E4D5B
:1034E000012B18D1F4B213E010F8016B00230AE0AD
:1034F00026FA03F707F001076F54491C521E5B1CA4
:1035000089B292B2DBB20AB1082BF1D3641EE4B2E5
:10351000002CE9D11EE016F0FF061BD000273B4629
:1035200011E000BF15F801E0BEF1000F05D004FA6C
:1035300003FC4CEA070C0CF0FF07521E491C5B1CF5
:1035400092B289B2DBB20AB1082BEBD300F8017B4F
:10355000761EE0E70020F0BDCE000020F0B5491E49
:103560008CB2A1180A2901D90120F0BD511ECB1738
:1035700001EB5371012505EBE101CEB216491BE0C9
:1035800000273B4611E000BF11F804E0BEF1000F38
:1035900005D005FA03FC4CEA070C0CF0FF07521E9D
:1035A000641C5B1C92B2A4B2DBB20AB1082BEBD351
:1035B000761E00F8017BF6B2002EE1D100200A5CF5
:1035C0003AB100220A54401C80B20A28F7D30020E6
:1035D000F0BD0122F6E70000D800002010B5491E1A
:1035E00089B28C180A2C01D9012010BD104C012B76
:1035F00009D018E030F8023B5BBA24F81130491CBE
:10360000521E89B292B2002AF4D10EE034F8113081
:103610001B0A00F8013B14F81130491C521E00F837
:10362000013B89B292B2002AF0D1002010BD000007
:10363000C2040020491E10B58BB29C1810490A2CF8
:103640000FD9012010BD00BF31F81340240A00F843
:10365000014B11F813405B1C521E00F8014B9BB24A
:1036600092B2002AF0D1002031F81020521C21F82B
:103670001020401C80B20A28F6D3002010BD0000A4
:10368000D60400201CB5FCF72BFEFFF753FAFFF71A
:103690000DFB184E6D461848FCF756FEC8B9164982
:1036A0008B780A8891F8048048798C7963F31F42FB
:1036B000C978062842EA016723463A46414606D1C0
:1036C0000120FEF719FF23463A4641460220FEF745
:1036D00013FFD6E900010024CDE9000155F82400CC
:1036E000817809B1FFF7AFFA641CE4B2022CF5D37C
:1036F000D1E700006437000811000020FDF77AFBD5
:10370000FFF742F8FEF784FCFEF75CFCFEF78AFD4B
:10371000FEF730FEFEF74CFDFEF7D8FDFEF7CEFEBD
:10372000FEF776FEFEF75AFDFEF7A6FEFFF7AAFFAC
:10373000FEE7002804D0012803D0072803D0042086
:10374000704702207047062070470000000000000C
:10375000000001020304060708090000000001023E
:1037600003040000190000201C00002019000020A4
:103770001C000020000000000A0000000000000003
:1037800000000000E803000088130000E8030000C8
:10379000E80300000A000000000000000A0000002A
:1037A000000000000000000088130000204E000010
:1037B00088130000881300000A00000000000000C9
:1037C0000A000000000000000000000010270000B8
:1037D00050C3000010270000102700000A0000005E
:1037E000000000000A0000000000000000000000CF
:1037F000204E0000A0860100204E0000204E000058
:103800000A0000002438000800000020E400000046
:103810000231000808390008E40000200C0800000C
:10382000123100080100000010000000000000003C
:103830000024F40000000000000000000000000070
:103840000000000002000000000000000000000076
:103850000000000000000000000000000000000068
:103860000000000000000000000000000000000058
:1038700011000000613300080400000063320008FA
:103880000300000005320008100000007134000839
:1038900006000000DB33000817000000C5320008F6
:1038A00001000000213100080500000085330008F8
:1038B0000F0000000D3400080200000093310008E2
:1038C00000000000000000000000000000000000F8
:1038D00000000000000000000000000000000000E8
:1038E00000000000000000000000000000000000D8
:1038F00000000101010100000000010101010101BE
:083900000000000001010000BD
:040000050800018965
:00000001FF
